:1000000058270020212B00000F0900001B100000C2
:1000100033110000571F00002726000000000000D9
:1000200000000000000000000000000003290000A4
:1000300037290000000000009D2A0000C32A0000AC
:10004000CF2A00007B2B000019080000C707000022
:10005000CD0700007D2B00007F2B0000812B0000CE
:10006000832B0000852B0000872B0000892B0000CC
:100070008B2B00008D2B00008F2B0000912B00009C
:10008000932B0000952B0000972B0000992B00006C
:100090009B2B00009D2B00009F2B0000A12B00003C
:1000A000A32B0000A52B0000A72B0000A92B00000C
:1000B000AB2B0000AD2B0000000000000000000092
:1000C000AF2B0000B12B0000B32B0000B52B0000BC
:1000D000B72B0000B92B0000BB2B0000BD2B00008C
:1000E000BF2B0000C12B0000C32B0000000000004C
:1000F00000000000C52B000000000000C72B00001E
:1001000000000000000000000000000000000000EF
:1001100000000000000000000000000000000000DF
:1001200000000000000000000000000000000000CF
:1001300000000000000000000000000000000000BF
:1001400000000000000000000000000000000000AF
:10015000000000000000000000000000000000009F
:10016000000000000000000000000000000000008F
:10017000000000000000000000000000000000007F
:10018000000000000000000000000000000000006F
:10019000000000000000000000000000000000005F
:1001A000000000000000000000000000000000004F
:1001B000000000000000000000000000000000003F
:1001C000000000000000000000000000000000002F
:1001D000000000000000000000000000000000001F
:1001E000000000000000000000000000000000000F
:1001F00000000000000000000000000000000000FF
:10020000010008D4012200F01F01DFF8CC358A403C
:10021000400943F82020704781B0002242504058E6
:100220000090009901B07047405800B10120C0B261
:10023000704700F2445001E000F234500160426027
:10024000704770B51F28049D059C41EA420192BF8A
:100250004FF0A04600F01F00DFF8806541EA8301FF
:1002600041EA052106EB800041EA0441C0F800178D
:1002700070BD000018B50B7B0122032B00F5A060B8
:1002800023D8DFE803F0151A0E028B685C0303D550
:10029000C36C0C69A34214D18B685C0315D4C36C86
:1002A00004E0C36C0C69A3420BD1C36B496901E044
:1002B000C36C09698B4208D003E0C36B09698B42A8
:1002C00003D00022026006210160104612BD00002A
:1002D0002DE9FE4305460E4690462979DFF80005D4
:1002E000342212FB01F2871807F12D049946207879
:1002F00008B1082055E00FF20452286852F8211086
:1003000000F08DFA08B111204BE0C7F80080C7F863
:100310000490B860E070A0700621707B607100915D
:10032000002001900323306800220021FFF789FF9D
:100330000020019006210091032370680022002113
:10034000FFF77FFF29687068326801F5A1631A60C2
:100350005860B068D861386800B3090B307B4AB286
:10036000400149B2002903D4DFF87814885406E02C
:10037000DFF8741402F00F02114401F8040C29682C
:10038000090B48B2002809D4012201F01F00DFF850
:100390005C3449B28240490943F821200120207091
:1003A0000020BDE8FE830379DFF83424006834219F
:1003B0004B43D1180622C0F80025022281F82D20D7
:1003C000704700F5A86011F0010318BF012311F078
:1003D0000201036118BF0121016070472DE9F84F48
:1003E000054616464FF0000885F82E804FF00809A4
:1003F000F06800F06040B0F1005F77D10C4604F582
:100400004170DFF8EC13416005F12E01487820B10E
:10041000A968C4F804131120F4E01F4607F0140083
:10042000401E804105F12E0AC00F8AF801003146B6
:1004300005F10C00142200F027FA380900F0010041
:100440008AF802002F624FF482717078C4F8880530
:100450004FF4802A00F0B5F900F0B1F94FF4B07113
:1004600000F0AFF94FF4A47100F0ABF93946204623
:10047000FFF7A7FF307803284FF4807B55D8DFE8DB
:1004800000F037452402306900F06040B0F1005FB1
:100490002CD1C4F800B200F0B7F84FF4A87100F006
:1004A00090F901202062A0604FF4A87100F085F956
:1004B0000028F9D04FF4A87100F083F9B2683169CF
:1004C00000F0A4F8C5F808A031E000F09DF831690B
:1004D00001F06040B0F1005F08D1B2682046FFF73C
:1004E000ABFE4FF48450C4F8000219E0102089E0FC
:1004F00000F08AF8B80604D5C4F800B2C5F808A020
:1005000010E04FF40070C4F8000209E07268F1686E
:100510002046FFF791FE4FF48050C4F80002C14618
:100520000220A8600120206201E04FF00708380790
:1005300005D4317803291CBF012044F8090028683C
:10054000A8B1790744BF0020A860780603D4A86842
:1005500040F00200A860A86840F40070A860A86895
:10056000C4F804034DE04FF4A47100F02AF900260A
:100570004FF4A47100F021F900B1012600F01BF93D
:1005800020B14FF4827100F01CF901264FF49271F2
:1005900000F013F990B100F012F94FF4B07100F0CF
:1005A0000CF9D4F8001208B18A0505D401220026FE
:1005B000226200286261DBD0C805D4D4002ED7D0D7
:1005C000D4F8C404C4F8C40405F12E02002151700B
:1005D00070B14FF00308C10748BF4FF402488107CC
:1005E00048BF48F2012840070BD548F2022808E02E
:1005F000780606D429462046FFF73CFE08B94FF09E
:1006000003084046BDE8F28F7268F168204610E6A4
:1006100038B513460A4601680579714C34204543C4
:10062000601901B0BDE83040D8E60000F0B585B0F3
:1006300004460D4616461F464FEA0D0071A100F014
:10064000B7F88DF8015001970396002269462046BD
:10065000FFF7DEFF05B0F0BD2DE9F84386B0044694
:100660000D464FF49271FFF7DFFD05F12E0604F5FC
:100670004177C8B100F0A3F800F09DF8A0B9A868D0
:1006800078604FF4B0710220A860A868386000F06C
:1006900094F818B1D4F80002810502D40121216236
:1006A0006161012030707DE000F085F800284FEA9C
:1006B0001438DFF83C9135D04FF4827100F081F8A6
:1006C00095F82010480609D4307838B929462046D4
:1006D000FFF7D0FD401E8041C00F307095F820001C
:1006E000410717D400F061F84FF4B07100F069F8D9
:1006F0004FF4AE7100F065F8B17809B1307848B1C7
:100700000021C4F80012A960C7F804904FFA88F0DD
:10071000FFF776FDD4F8C404C4F8C404810720D5DB
:10072000012021E04FF4A47100F04BF8287B48B978
:1007300000F03BF8B0780028ECD10021C4F800129A
:10074000A860E1E74FF40070C4F8000240F2022014
:10075000A860C7F80490A86838600120A0602062F3
:1007600020E0410703D502208DF800000CE0C1070E
:1007700048BF032102D4307818B104218DF800104D
:1007800002E000228DF80020B07808B900217170D5
:1007900095F82010480701D5307818B169682A68A3
:1007A0006846904707B0BDE8F08301A805F10C0149
:1007B000142200F069B84FF48271204634E54FF4FA
:1007C0009271204628E506490A4845E70A494FF054
:1007D000402041E70000000080E200E000030050FC
:1007E0000406002000E400E018ED00E000E100E075
:1007F00002029C010030004038060020C7070000BC
:10080000CD07000001000000000000000000000013
:10081000000000000000000011480168084738B5DA
:100820000D461049884211D1002000F078F80C499B
:1008300008790024002811BF01240D6001220A71EB
:10084000002000F073F80CB1112032BD002032BD41
:100850000449884203D102480021016001717047B8
:10086000480700200020004062B38B0708D0521ECA
:1008700011F8013B00F8013B00F024808B07F6D112
:10088000830740F0208000BF103A07D330B4B1E8AE
:100890003810103AA0E83810F9D230BC530724BF02
:1008A000B1E80810A0E8081044BF51F8043B40F834
:1008B000043BD20724BF31F8022B20F8022B44BF9F
:1008C0000B7803707047121F17D35B0009D151F8E2
:1008D000043B20F8023B1B0C121F20F8023BF6D20F
:1008E0000BE051F8043B00F8013B1B0A20F8023BE7
:1008F0001B0C121F00F8013BF3D238BF121D521E11
:1009000024BF11F8013B00F8013BF8D87047FEE71F
:1009100007490868401E086000D162B6704700BFF2
:1009200072B603480168491C01607047F0E7000097
:100930005007002080B5DFF83C0500210170DFF88A
:10094000380500F0B7FA20B90FF25C5000F05CFBFC
:10095000002002BD30B591B1DFF82025DFF8201569
:100960000568DFF82035511A002200E0521CB2EB76
:10097000D10F06D233F82240AC42F7D102600020FA
:1009800030BD052030BD01B56846FFF7E3FF28B94B
:10099000DFF8F414009851F8300002BD002002BDC9
:1009A00000000000491EDFF8E024032981B002EBBB
:1009B000C0000BD8DFE801F002040608022006E0C0
:1009C000042004E0007902E0407900E0002001B05A
:1009D000704781B0024600201368C3F380029AB1C9
:1009E00003F00300012802D0022807D00BE00868BA
:1009F000C3F38312921C1018086004E008689B0D72
:100A00009B1C1B180B60012001B070477FB5DFF8FD
:100A1000644404F5836000F03DFB04F2144528466D
:100A200000F038FBA0680090002600E0009804F178
:100A30000C0100F0CEF90028F8D1009A04F10C0165
:100A400000F0CDF9F9D90199BDF80A0001F00301D0
:100A500001290AD002290FD1019906460098890D73
:100A6000C91C00EB9100009006E006460198009931
:100A7000C0F3831041180091284600F00DFB08B127
:100A80000098A060304604B070BD80B50021DFF84A
:100A9000FC0300F0C3FA80F3100002BD2DE9F84F0B
:100AA0000446884693461F460A9DDFF8C893FFF721
:100AB000ECFF09F10C0A7E1C00042E4040EA1440B1
:100AC000E4004AF8260004F0380444EA8B14C4F326
:100AD000090409F10C0044EA88242F4044F0010481
:100AE00040F82740BDE8F18F2DE9F04188461546D2
:100AF000DFF8807304460020FFF711FF7868C8F81C
:100B00000000A61C00F028F807F21C480BE00121A9
:100B1000404600F0A7FAFFF779FF0146404600F093
:100B2000A1FA00F019F8B142F1D32DB1A40104F4F7
:100B3000707444F0050402E0A40544F0060438791A
:100B400007EB8001CC60786836187E600020FFF7E4
:100B5000EDFE0120BDE8F0817968B868C1F58071CB
:100B6000411870472DE9FC4104460D46174698464A
:100B7000012201A94046FFF7B7FFDFF8F862B0B1E4
:100B80000198801C002108E000F0FF0206EB8203C0
:100B900057F82120DA60401C491C4145F4D3FF205E
:100BA00000904246019B29462046FFF777FF3078A8
:100BB00018B100F019F80028FBD1BDE8F38100233B
:100BC0000022CFE780B50092012300F001F801BDBB
:100BD0006A46C7E7A74881684068814201D1012081
:100BE00070470020704700002DE9FF47FFF7F2FF34
:100BF000D8B9A04E06F58267B860BFF34F8F06F1F3
:100C00000C01B068009002E0009806F10C0100F0C1
:100C1000E0F8002800F0C280B868002840F0BE80EC
:100C2000706800998142EFD3B0600020B3E0019971
:100C300065F39F51019105F1080100F03DF95FEA6C
:100C400000094DD000F07FF900F0BDF8009901F0E7
:100C5000FF01C1F58070800006F10C02A84202EB92
:100C6000810117D228B9AA4606F10C0100240025FB
:100C700003E0824606F10C042D1A5FFA8AFA082373
:100C80005246484600F0B4F94CB10AF10803EAB202
:100C9000214601E008232A46484600F0A9F90098B9
:100CA00008F1030100EB9100009038E0019901F098
:100CB0000301012955D10199019AC1F38311052935
:100CC000C8BF062122F4707242EA81120192019992
:100CD000C1F38311891C890000F0EEF85FEA000976
:100CE0003FD000F030F900F06EF84FF00808002413
:100CF00010E00098411C009106F10C0500F0FF0087
:100D000005EB800143460422484600F071F908F1E2
:100D10000408641C0198C0F383108442E9D33C6842
:100D2000B86870B1484600F012F92FE0E0684179E8
:100D3000012904D122681368494620469847E06893
:100D40000468002CF2D1484600F001F90020FFF7BA
:100D5000E6FDB86808B90099B1600020FFF7E6FD2C
:100D600014E03C6805E021688A6820469047E06806
:100D70000468002CF7D14648DFF8042145A1801A09
:100D8000C008000440F00200FFF719FFFFF722FF40
:100D9000401E8041C00F04B0BDE8F0870020009ADB
:100DA00006F10C0100F01BF8F9D90199324801F065
:100DB000030102297FF47AAF019DAD0DA846502DA5
:100DC000A8BF502533E70023082201A9484600F0B8
:100DD0000FB900F0FF0001EB80006946F9E502F071
:100DE000FF0251F8221001AA42F82010401C00997D
:100DF000491C01280091704730B5024600201D4B68
:100E0000D3F8101400E0096889B1C9680C798442EC
:100E1000F9D1401C0A28F3DB4FF0FF3030BDC96820
:100E20000D682560D3F81034D9680A6030BD10F120
:100E3000010FFBD0D1680871D3F81014D4680029D1
:100E4000EDD1C3F81024216030BD10B50948D0F8A9
:100E500010440121017008E0E1680120487120463A
:100E6000226851688847E0680468002CF4D110BDFE
:100E700000000000A40000200C2B0000582A0000F5
:100E8000302A000000000000302A0000C0040020CA
:100E9000302A00004261636B656E647320666C7576
:100EA0007368656400000000840500207F00000076
:100EB000FC06002000F0F2B82DE9F04105460F468F
:100EC0002E8A00F002F9361F040021D00020207184
:100ED000F7190120FF1C6071A046B7FBF6F7E6800A
:100EE000FFB27F1EC8F80050002607E06179491C58
:100EF0006171C8F8000005608046761CBE4209D2C8
:100F0000284600F0E2F80028F0D1204600F005F86D
:100F1000002000E02046BDE8F081F8B501460D460E
:100F20004C79601E002200E0521C2D688242FBD3E7
:100F3000002605E00F68284600F0E6F83946761CE2
:100F4000A642F7D3F1BD0121001D00F08BB81CB5FE
:100F500004460121201D00F091F800909DF800004A
:100F600018B92046BDE81640D7E713BD2DE9F04774
:100F70001446B0F806804279256846465643361F27
:100F80005F1903F1040CBE42BCFBF8F234BFF31A44
:100F90002B4608FB12CC2360002A01E00068521E99
:100FA000FCD1A8EB0C02089F9A4693424FF000092F
:100FB00088BF92460E4605461C46BCB105EB0C00A8
:100FC000001D06EB0903390052460EBF19460146C3
:100FD0001846FFF749FC2D68A4EB0A04D1444445A8
:100FE0004FF0000CA246E8D9C246E6E7BDE8F0871C
:100FF000E0B50192002202E0E0B5019201220092E8
:1010000001AAFFF7B3FF07BD80680021816001617D
:101010004161C160416001607047FEE710B5024662
:1010200052E8000F0C4642E8004393F0000FF7D15E
:1010300010BD000010B5024652E8004F44EA01001E
:1010400042E8000393F0000FF6D110BD10B5024640
:1010500052E8000F00EA010442E8004393F0000F59
:10106000F6D110BD10B5024652E8004F04EB010066
:1010700042E8000393F0000FF6D110BD10B5024610
:1010800052E8004FA4EB010042E8000393F0000F88
:10109000F6D110BD0121CDE70021D7E710B508B981
:1010A0000E2010BD0368426881681A60891A03E047
:1010B00013685C1C146019700B46591EDBB2026881
:1010C000002BF5D10020107110BD38B5044600206A
:1010D000FFF725FC216862680868002582420ED26D
:1010E000421E0A601578208AE3684543A068821A88
:1010F00020681D4403799A4238BF1A460A710020BD
:10110000FFF714FC284632BD38B504460D460020D2
:10111000FFF705FC206801684A1C0260E0682D1A90
:10112000208AB5FBF0F008700020BDE83240FFF7E0
:10113000FDBBFEE781B0002242504058009000996C
:1011400001B070474058B9E1D0F80403084018BF17
:101150000120C0B2704700F20C50826001607047FD
:1011600000F5A16001608260704770B51F28049D82
:10117000059C41EA420192BF4FF0A04600F01F00DB
:10118000DFF8D46441EA830141EA052106EB8000DF
:1011900041EA0441C0F8001770BDE0B500F00FF857
:1011A000012105E0E0B50B460021002201910092EB
:1011B000FFF7DBFF07BDE0B500F001F8F8E700211D
:1011C000019100910023012270471F2892BFDFF890
:1011D0008C1400F01F00DFF88814012202FA00F0DE
:1011E0000860704738B50C460546206810F1010FBD
:1011F00004D0FFF7EAFF2068FFF7CFFF606810F127
:10120000010F1CBF0021FFF7CDFF2868A16900F284
:1012100024521160637D217D0B43936462682168D1
:10122000FFF799FF207D012815D1A06810F1010F6B
:101230001CBF0021FFF7B6FFE06810F1010F04D0DA
:10124000FFF7C3FFE068FFF7A8FFA268E16828681E
:10125000BDE8384084E731BD38B504460D46206806
:101260004FF48E71FFF766FF20684FF4A271FFF70D
:1012700061FF2068DFF8EC13C0F80413000B42B2E2
:10128000690140B2002803D4DFF8DC03815406E092
:10129000DFF8D80302F00F02104400F8041C2168A4
:1012A000090B48B2002809D4012201F01F00DFF821
:1012B000C03349B28240490943F8212031BD016859
:1012C000DFF8B003C1F80803090B48B200280DD4B9
:1012D000012201F01F00DFF8A03349B28240490922
:1012E00043F82120BFF34F8FBFF36F8F70472DE975
:1012F000F04104464FF0FF32206800F5A1614D68CF
:10130000CE680F68D1F808801146FFF724FF4FF030
:10131000FF3220681146FFF723FF15F1010F1CBFB4
:101320002846FFF748FF16F1010F1CBF3046FFF7B4
:1013300042FF18F1010F1CBF4046FFF73CFF17F1B9
:10134000010F03D03846BDE8F04134E7BDE8F08135
:101350002DE9F04104460D4690462179DFF81C0343
:101360002C2212FB01F2871807F12906707808B1C8
:10137000082023E00FF20C32206852F82110FFF70A
:101380004EFA08B1112019E029462046FFF72AFF3E
:10139000C7F8048028693860786818B1297F20462A
:1013A000FFF75AFF21680420C1F800050020B8614A
:1013B000F86130707861012070700020BDE8F08124
:1013C00038B504462C202279DFF8B01242438D183C
:1013D00021680020C1F80005686810B12046FFF7B9
:1013E0006EFF2046FFF783FF2068FFF731FA0020E9
:1013F00085F82A00686031BD38B50D4604464FF4C3
:101400008E71FFF797FEA868296A405C2A6A521C11
:101410002A62C4F81C0531BD2DE9F0410546174686
:101420002A790E462C20DFF8541242438C182846A5
:1014300000F03DF808B1112023E06761A66020624A
:1014400084F828004FF48E712868FFF773FE28682F
:101450000121816000262146FFF7CEFF606878B940
:101460002F68D4F8148012E028684FF48E71FFF7CB
:1014700069FE0028F8D029680120C860002060615A
:101480003046BDE8F08121463846FFF7B5FF206AB7
:101490004045E9D24FF48E713846FFF753FE0028DD
:1014A000F1D194F828000028F4D00F26E6E702795D
:1014B000DFF8C8112C2042438818406900B1012090
:1014C000C0B2704738B50D460446A86900284FF4ED
:1014D0008471204604D1FFF72DFED4F8180531BDE4
:1014E000FFF728FE686AD4F81815EA681154686A8C
:1014F000401C686231BDF8B50346012002918DF8A9
:1015000000000192684619685A680CE0F8B5024676
:1015100000208DF800000291002190680190516137
:10152000684611685268904705B000BDF8B584B0B0
:1015300005460C464FF40071FFF706FE04F128063D
:101540004FF4017718B34FF4927100F07EF8F0B1C8
:101550004FF492712846FFF7EDFDC5F808737078D7
:1015600008B90121696002208DF800000021D5F83A
:101570008004C5F880040390A0690290E06801909F
:10158000A161E161684621686268904729E0042111
:101590002846FFF7D9FD20B34FF4847100F055F8C9
:1015A000F8B121462846FFF78DFFA069616A88429D
:1015B00017D1E06940B1E268616AA0612069E0602A
:1015C0000020E061606209E0707808B9012169607B
:1015D000C5F808730020E268A061616A2046FFF741
:1015E0008AFF4FF48E7100F030F8A8B16069216A6B
:1015F000814206D2307820B921462846FFF7FCFE0A
:101600000AE04FF48E712846FFF794FD606918B127
:1016100061692046FFF77AFF4FF4A27100F015F8D8
:1016200088B14FF4A2712846FFF784FD707808B1A5
:1016300001212960A06930B10021A1612046E26842
:10164000616AFFF758FF05B0F0BD28467AE50B49FF
:101650000B486BE700000000000300500805005035
:10166000080800508000020000E400E018ED00E0EF
:1016700000E100E08402020080E100E0AC0600200E
:10168000002000404F16000081B000224250405818
:101690000090009901B070474058C1E100F20C5031
:1016A00001E000F5A16001608260704770B51F28FD
:1016B000049D059C41EA420192BF4FF0A04600F014
:1016C0001F00DFF8B46441EA830141EA052106EB1B
:1016D000800041EA0441C0F8001770BDE0B500F099
:1016E0000FF8012105E0E0B50B4600210022019131
:1016F0000092FFF7DBFF07BDE0B500F001F8F8E767
:101700000021019100910023012270471F2892BF00
:10171000DFF8681400F01F00DFF86414012202FAF9
:1017200000F00860704738B50C460546206810F197
:10173000010F04D0FFF7EAFF2068FFF7CFFF6068D2
:1017400010F1010F1CBF0021FFF7CDFF2868A16930
:1017500000F224521160637D217D0B439364626823
:101760002168FFF79BFF207D012815D1A06810F1AB
:10177000010F1CBF0021FFF7B6FFE06810F1010F59
:1017800004D0FFF7C3FFE068FFF7A8FFA268E16895
:101790002868BDE8384084E731BD000038B504460C
:1017A0000D4620684FF48871FFF76EFF20684FF4F4
:1017B0009071FFF769FF20684FF49271FFF764FFA3
:1017C00020684FF4A271FFF75FFF00F04DF9206829
:1017D000DFF8B013C0F80413000B42B2690140B245
:1017E000002803D4DFF8A003815406E0DFF89C034F
:1017F00002F00F02104400F8041C2168090B48B2E3
:10180000002809D4012201F01F00DFF8843349B217
:101810008240490943F8212031BD0168DFF86403A3
:10182000C1F80803090B48B200280DD4012201F0C9
:101830001F00DFF8603349B28240490943F8212094
:10184000BFF34F8FBFF36F8F70472DE9F041044610
:101850004FF0FF32206800F5A1614D68CE680F6837
:10186000D1F808801146FFF719FF4FF0FF322068CA
:101870001146FFF716FF15F1010F1CBF2846FFF7B1
:101880003BFF16F1010F1CBF3046FFF735FF18F183
:10189000010F1CBF4046FFF72FFF17F1010F03D0C8
:1018A0003846BDE8F04127E7BDE8F081F8B50446C9
:1018B0000D4616462179DFF8E002242212FB01F2E0
:1018C000871897F8200008B10820F2BD0FF2D02247
:1018D000206852F82110FEF7A2FF08B11120F2BDD6
:1018E00029462046FFF71FFF7E6028693860786828
:1018F00018B1297F2046FFF751FF21680820C1F861
:1019000000050020B861F8617861012087F82000A7
:101910000020F2BD70B500F0A2F8266842438D1891
:10192000686810B12046FFF778FFD6F8000220F073
:101930002000C6F80002A86918B100F014F90120CF
:1019400070604FF4AC7100F010F90120F06000F00D
:1019500002F90028FBD0A86918B100F000F90028AE
:10196000F5D00020C6F800052046FFF76EFF304690
:10197000FEF76EFF002085F82000686070BDF8B5A6
:10198000054617462A790C462420DFF80C124243FC
:101990008E1804F06040B0F1005F28D1284600F0B6
:1019A00039F830BB7761B4604FF490712868FFF765
:1019B0006BFE28684FF4AC71FFF766FE706929680A
:1019C000B36801F244520027136050600120886020
:1019D0007068C8B928684FF49071FFF75DFE04463F
:1019E00000F014F80443F5D028B10F270AE01020C6
:1019F000F2BD1120F2BD29680120C86000F006F890
:101A00000028FBD0002070613846F2BD28684FF4F2
:101A1000AC7141E60279604924204243881840694C
:101A200000B10120C0B27047F8B503460120029111
:101A30008DF800000192684619685A680CE0F8B504
:101A4000024600208DF8000002910021906801906C
:101A50005161684611685268904705B000BD044660
:101A6000242022794C49704720684FF4AC710BE672
:101A70007FB50C464FF492710646FFF70DFE06F255
:101A80003C55B8B14FF4927100F06FF802208DF818
:101A900000000021D6F88004C6F88004039028686E
:101AA0000290E0680190A161E16168462168626886
:101AB000904721E04FF488713046FFF7EDFDD8B133
:101AC0004FF4887100F051F82968A069814213D160
:101AD000E268E06960B1D6F8003223F02003C6F86E
:101AE0000032E069A0612069E0600020E06100E070
:101AF000A0612046FFF798FF00F031F858B100F0E0
:101B000032F8A06938B10021A161E161204629685D
:101B1000E268FFF789FF4FF490713046FFF7BCFD94
:101B200058B14FF4907100F020F80120F060606926
:101B300018B129692046FFF782FF00F00CF848B180
:101B40004FF4AC7100F011F8606918B129692046B2
:101B5000FFF775FF7FBD4FF4AC7130469CE54FF445
:101B6000A271304698E54FF4A27130468CE50A49DF
:101B70000A487DE7000000000003005008050050FF
:101B8000080800501003420000E400E018ED00E0F7
:101B900000E100E080E100E0D806002000200040E5
:101BA0006F1B000038B50D4604460A2D04BF0D21F9
:101BB000FFF7F8FFA068411CA16022681554606817
:101BC000814204D32046BDE8324000F089B931BDDE
:101BD0002DE9F84F8B464FF0010C154603E0B1FBA1
:101BE000F5F10CF1010CA942F9D29A460B9FD146AE
:101BF000E245804638BFE1460A9CF8070BD454B151
:101C0000B8070BD42026A14505D2314600F05EF975
:101C1000641E002CF7D12E46012507E0BAF1000F13
:101C2000F0D13026EFE7AAF1010A7543BAF1010FAE
:101C3000F9D8BBFBF5F0B04228BF7543F9D200BF1D
:101C4000A3A1BBFBF5F005FB10BB095C00F03EF95E
:101C5000B5FBF6F5002DF2D1F80707D534B1A14553
:101C600004D200F032F9641E002CF8D1BDE8F18FE7
:101C70002DE9FC470E0048BF49420125904602E08D
:101C800091FBF8F16D1C4145FADA9A460B9F0A9CCC
:101C9000D146AA4538BFA94624B1002E01D4790700
:101CA00000D5641E0546B80702D5BAF1000F0BD067
:101CB000F80709D444B1A14506D220212846FFF7F0
:101CC00071FF641E002CF6D1002E02D576422D2124
:101CD00002E0780703D52B212846FFF763FF07F0C2
:101CE0000300022808BFBAF1000F09D144B1A14591
:101CF00006D230212846FFF755FF641E002CF6D18E
:101D0000019700945346424631462846FFF760FF4C
:101D1000BDE8F3872DE9FE430D008046174600F02D
:101D2000C78015F8011B002900F0BA80252940F072
:101D3000B180002602E046F001066D1C29782B29AF
:101D400007D02D29F7D0302908BF46F00206F4D07D
:101D5000B0E046F00406F0E72978A1F130020A2A43
:101D60000CD200FB04146D1C303C2A29F4D13968D4
:101D700039606D1C51F8042B39601419297800233F
:101D80002E290BD16D1C04E000FB03116D1CA1F189
:101D900030032978A1F130020A2AF5D3287801E02E
:101DA00015F8010F6C2818BF6828F9D025286CD0C9
:101DB000582822D063280CD0642818BF69280FD077
:101DC00070284CD073281ED0752812D0782814D0D3
:101DD0005EE03868386050F8041B3860C9B255E0DE
:101DE000386838600A2200F06AF84046FFF740FF82
:101DF0004EE0386838600A2202E038683860102205
:101E000000F05DF83DE03868386050F8049B3860B9
:101E10000020F10751D4B9F1000F1CBF484600F073
:101E20007FF8064610E000F051F8761C19F8011B07
:101E30000800F8D1A6422BD254B300F046F8641E35
:101E4000F8E700F042F8641EA64201D2002CF8D157
:101E500019F8011B08001BD000F038F8F8E73868C3
:101E60003860302150F8044B386000F02FF87821AA
:101E700000F02CF808210091002001900823102286
:101E800021464046FFF7A4FE02E0252100F01EF89F
:101E90006D1C01E000F01AF8287800287FF441AFAB
:101EA00098F80C1021B14046BDE8FE4300F018B888
:101EB000BDE8F78300240A2057E70026B6E750F86C
:101EC000041B38600196009470472021404669E663
:101ED0003031323334353637383941424344454660
:101EE00010B50446A2682AB1216820696369984741
:101EF0000020A06010BD0000002900D170470CB484
:101F00001CB500BF05A21368009304AC00946A4698
:101F1000FFF700FF13BC5DF80CFB000000000000A1
:101F200000F10103810704D010F8011B89B181077A
:101F3000FAD10268B2F10131914311F0803F04BF40
:101F400050F8042FF6E710F8011B11B110F8011B2F
:101F5000FBE7C01A7047FEE77CB504460D46E388F0
:101F60004BB100BF0FF2C8100FF2CC1274A1009059
:101F70002846FFF7C1FF217A05291CD0607A6B4EF5
:101F800048B1A088FEF70EFD06EB800061A1426912
:101F90002846FFF7B1FFA0880021FEF7F4FC0346B6
:101FA000207A56F8202028460DF1080DBDE8704033
:101FB00069A1FFF7A1BF73BD38B50C46017A0529A9
:101FC00055A507D0407A30B159A252A12046FFF75B
:101FD00093FF00E01AB129462046FFF78DFF204607
:101FE000BDE83240FFF77CBF2DE9F84384B081465D
:101FF0000C9D2E7B002028730C46984617462946D8
:102000004046FFF7A9FF062F25D8DFE807F00409AF
:102010000F1C1A18160049462846FFF76DFF1AE0F4
:10202000226849462846FFF767FF14E06368226884
:1020300049462846FFF760FF0DE06069039020697C
:102040000290E06801904946A068009063682268A9
:102050002846FFF751FF002229464046FFF7ACFF14
:102060002E7305B0BDE8F0832DE9FC4B8946B9F12C
:10207000080F054698464AD80092002098F80CB000
:1020800038A688F80C0041460098FFF765FF002746
:1020900022A44F4505D2EA5D31464046FFF72CFFAA
:1020A00003E021464046FFF727FF7F1C082FF0D3AF
:1020B0001BA14046FFF720FF00261AA71AA401958E
:1020C0004E4516D20198855D7F2D0BDAA5F12000D3
:1020D0005F2808D3284600F049F820B9284600F0C8
:1020E0004FF800B92E252A4621464046FFF704FF47
:1020F00003E039464046FFF7FFFE761C082EDFD38B
:10210000012200984146FFF757FF88F80CB0BDE860
:10211000F38B0000257300000D0A00002020200032
:102120007C0000002000000025630000200000204B
:102130001B5B306D000000001B5B313B33316D00D9
:1021400025734C6F67732064726F7070656420280C
:1021500025642925730D0A003C25733E2025733A1A
:1021600020000000202530327800000010B5044621
:1021700000F02FF8014620460969BDE810400847E5
:1021800010B5044600F025F801462046C969BDE8AF
:1021900010400847613807E005E0A0F161011A2905
:1021A00001D20120704741381A288041C00F704782
:1021B000A0F121010F290AD3A0F13A02062A06D97B
:1021C000A0F15B01062902D37B380428EDE701204A
:1021D00070470148704700005C00002030B551494D
:1021E0000868082806D1504800220260426000209A
:1021F0004E4A10600A68082A23D14D4A4D48136898
:1022000003605368436093688360D368C360136955
:1022100003615369436193690362D3694362136A3B
:102220008362536AC362936A0363D36A4363136B23
:102230000364536B4364936B8364D36BC364126C0A
:1022400002650A68082A04BF4868002802D13A4B90
:102250003A4A1A600B68082B04BF4868002802D16C
:10226000374BFB221A600B68082B04BF4868002814
:1022700009D13448344B02681C78120904F00F0469
:1022800044EA021202600A68082A04BF486800286B
:1022900003D12E4B4FF400721A600868082806D14B
:1022A0002B480168CA0744BF6FF001020260294A47
:1022B000D06F40F47000D067BFF34F8FBFF36F8FC4
:1022C000254B186800285CBF5868002821D5234C8E
:1022D000234D0120206029680029FCD012201860BD
:1022E00028680028FCD01221596029680029FCD0F8
:1022F0000020206028680028FCD0BFF34F8F1168B1
:10230000184801F4E06101431160BFF34F8F00BF33
:10231000FDE702490248086030BD00005800002077
:102320000090D003300100100C010040380500403F
:102330000404001020C500408C5600404881030072
:1023400018F50040E40E004058020010409602408C
:10235000000400400CED00E00012001004E5014014
:1023600000E401400400FA05000000000000000045
:1023700028B100BF56A1800141F001010847704714
:102380001F2892BF464900F01F00464905E01F285C
:1023900092BF454900F01F004449012202FA00F0B3
:1023A00008607047F8B50546414C2968414E424FD8
:1023B00040F20C6000F032F82868FFF7E1FF68682F
:1023C000FFF7DEFF296840F20D6000F027F80024D7
:1023D00000F02AF868681F2892BF394600F01F00F5
:1023E00031460968C140C80715D42868FFF7CFFFF8
:1023F00000F01AF82868FFF7C3FF00F015F8641C16
:10240000092CE7DB6868FFF7C2FF00F00DF8686889
:10241000BDE8F240B4E7002CF4D1F1BD44F821004E
:102420006A6844F8220070470420A1E71FB50A46F5
:1024300001788DF8001003798DF8043041791F4B35
:102440008DF8051003EB820481688DF80610C168D1
:102450008DF807100169029140690390A16853F853
:102460002220684690471FBDF8B504460D462678E1
:102470001248174600EB860140F826708B60687B97
:1024800010B12846FFF78EFF002F14BF0C4A002220
:1024900033462946201D01B0BDE8F040FDF718BFC6
:1024A00008050050080800500C0500500C080050AA
:1024B00000070050100800501005005028070020A9
:1024C0002D240000000000000000000000000000BB
:1024D0000338FDD8704700001FB5684646A100BF0D
:1024E00041A41022FEF7D0F90023002269462046BD
:1024F000FFF7BAFF08B100F087F8201DFDF753FF82
:102500001FBD00002DE9FC4100210020FEF712FA5A
:10251000002408B100F078F800F086F81A481B4D46
:102520001BA1451BED082D0445F003052846FEF7C9
:1025300046FBFEF759FB0028FBD1FFF7CDFF012634
:102540000FF2640828A701236A46F1B2381DFEF78E
:102550006DF828B9F2B241462846FEF733FB012454
:10256000FEF742FB0028FBD1761CF0B28028EADBA4
:1025700044B900BF16A12846FEF721FBFEF734FB45
:102580000028FBD1FEE70000302A0000302A0000BE
:10259000545749207363616E6E6572207374617263
:1025A0007465642E00000000545749206465766904
:1025B000636520646574656374656420617420617B
:1025C00064647265737320307825782E00000000F3
:1025D0004E6F206465766963652077617320666F4E
:1025E000756E642E00000000000000000030004006
:1025F00000000000010000001B0000001A000000A5
:1026000000009801020000001FB569460022002367
:10261000002481E81C0002906A46002144F2010077
:1026200000F012F81FBDFEE780B500F068F8042145
:102630000348FEF7E1FB03490120487101BD00009A
:10264000302B00001800002072B6FEF7FEFBFEF7EC
:10265000CBFA0028FBD11048104C1149041BE408A8
:10266000240444F00100FEF7AAFA0E480168CA07E4
:1026700000D500BE0C4944F00200FEF7A0FABFF3FB
:102680004F8F0A490A480A6802F4E06202430A606E
:10269000BFF34F8F00BFFDE7302A0000302A000053
:1026A000DC2A0000F0ED00E0E82A00000CED00E07C
:1026B0000400FA052E4901200870704738B588B02B
:1026C000044668462FA12022FEF7DEF84FF0FF30C7
:1026D00001900290039006254FF0EB700690009554
:1026E000200014BF234A0022214D6946281D00F016
:1026F0006FF808B1FFF788FF6C7009B030BD01209A
:10270000DCE738B51A4C00202070D2B225791A487F
:10271000435D23B104F10800FFF731F903E004F150
:102720001000FEF779FE08B1FFF76EFF617811B176
:1027300020780028FCD031BD80B5104A009240239B
:102740000F4A00F075F801BD704780B508490A4886
:102750000A79805C20B101F10800FFF7DBF803E0A3
:1027600001F11000FEF72CFEBDE802400020A5E7B5
:1027700000000020B52600001407002003270000F9
:102780006C060020FFFFFFFFFFFFFFFFFFFFFFFFC3
:10279000FFFFFFFF00000000000000000000D60166
:1027A00006010000F8B500E0F8B502788DF80020C9
:1027B0004368019382688DF80820C068194A039025
:1027C00002EB81026846D1685268904705B000BDAF
:1027D000F8B5044688B02678124F07EB86001546F8
:1027E00045600A69C2602022487FB8556846FEF7F6
:1027F0004BF804962178785C40B1002D14BF0A4A4A
:1028000000226946201DFFF751F808E0002D14BF93
:10281000064A0022694604F10C00FEF799FD09B052
:10282000F0BD000014070020A5270000A927000024
:10283000F0B595B00D461A9C16461F462846FEF781
:1028400082FB09A8182100F059F809960A970E94FE
:102850000023082201A92846FEF7CEFB0398049026
:102860000826BDF80800ADF814000021BDF80A00E4
:10287000ADF816008DF81910019800F0030001283A
:1028800017D10198019CC0F3C2008DF818000823ED
:102890000198C0F38316B2000FA92846FEF7ACFBDF
:1028A00009A8009004AB32460FA9A00AFFF79CFBD1
:1028B0001FE0019800F0030002281AD10198019C42
:1028C000C0F3C200A40D8DF818000827082C98BF8B
:1028D000274633463A4607A92846FEF78DFB09AB43
:1028E00004AA394607A8FFF7BFFBBE19E41B002C5A
:1028F000EBD12846FEF72BFB15B0F0BD002200F00F
:1029000001B8FEE700B500BF1300964694461039A3
:1029100028BFA0E80C50FAD85FEA417C28BF0CC061
:1029200048BF40F8042BC90728BF20F8022B48BF36
:1029300000F8012B00BDFEE76572726F72000000A7
:102940007761726E696E6700696E666F00000000E5
:1029500064656275670000001B5B313B33306D00BE
:102960001B5B313B33326D001B5B313B33336D00FE
:102970001B5B313B33346D001B5B313B33356D00EA
:102980001B5B313B33366D001B5B313B33376D00D6
:1029900019E050F8042BD30744BFA9F101039A189A
:1029A000091F0023042942F8043BF9D25FEA817C25
:1029B000134604D54FF0000CA2F800C09B1CC907B9
:1029C00044BF0021197050F8041B0029E1D1704761
:1029D00030B5016884684218416802EB5103C907A9
:1029E0000BD54C4409E012F9011B12F8015B0029D8
:1029F00004F8015B05D5491CF9D19A42F3D10C309A
:102A000030BD491EF1D5F8E710B5074979441831B2
:102A1000064C7C44163404E00A68081D11448847BB
:102A20000146A142F8D110BD540000007000000022
:102A3000702B000000000303742B00000000000056
:102A4000582B000000000000602B00000000000078
:102A5000682B0000000000004EF68851CEF2000105
:102A6000086840F470000860BFF34F8FBFF36F8FAA
:102A70004FF00070E1EE100A7047000015FFFFFFF5
:102A8000B0060000A40000200000000045FFFFFF8A
:102A900038010000D200000000000020FEE7000026
:102AA0000120C046002801D0FFF7AEFFAFF3008041
:102AB0000020AFF30080FFF725FD00F000F800F0E4
:102AC00001B8FEE70746384600F002F8FBE7FEE7EC
:102AD0002021090326311820ABBEF9E74661746155
:102AE0006C206572726F720053797374656D207219
:102AF0006573657400000000756172745F6C6F67C8
:102B00005F6261636B656E64000000004007002037
:102B10003807002040070020C404002018000000EF
:102B20000148804701480047DD2100004D2B00008F
:102B3000402B000000000000F82A000018000020D0
:102B4000392700004B27000049270000AFF3008021
:102B5000FFF782FFFFF7A4FF5457494D0000000024
:102B600055415254000000005541525445000000A8
:102B700061707000505253004300FEE7FEE7FEE72D
:102B8000FEE7FEE7FEE7FEE7FEE7FEE7FEE7FEE71D
:102B9000FEE7FEE7FEE7FEE7FEE7FEE7FEE7FEE70D
:102BA000FEE7FEE7FEE7FEE7FEE7FEE7FEE7FEE7FD
:102BB000FEE7FEE7FEE7FEE7FEE7FEE7FEE7FEE7ED
:102BC000FEE7FEE7FEE7FEE7F70002200040FB001D
:102BD00002200040F80000FFF900313829000040D1
:102BE0002900004829000050290000302100005829
:102BF00029000038210000602900006829000070C9
:102C000029000078290000802900008829FD00079C
:102C100090D003782B000001F500019B21FA0005FC
:102C200095210000B121FA00019921E6000001F987
:012C300000A3
:0400000500002B4D7F
:00000001FF
