:1000000000000120750300005D0300005F03000095
:1000100061030000630300006503000000000000AE
:100020000000000000000000000000006703000066
:1000300069030000000000006B0300006D03000076
:100040006F0300006F030000891D0000CD1F00003A
:10005000DD1F00006F0300006F0300006F0300004E
:100060006F0300006F0300006F0300006F030000C8
:100070006F0300006F0300006F0300006F030000B8
:100080006F030000611B00006F0300006F0300009E
:100090006F0300006F0300006F0300006F03000098
:1000A0006F0300006F0300006F0300006F03000088
:1000B0006F0300006F03000000000000000000005C
:1000C0006F0300006F0300006F0300006F03000068
:1000D0006F0300006F0300006F03000000000000CA
:1000E0000000000000000000000000000000000010
:1000F0000000000000000000000000000000000000
:1001000000000000000000000000000000000000EF
:1001100000000000000000000000000000000000DF
:1001200000000000000000000000000000000000CF
:1001300000000000000000000000000000000000BF
:1001400000000000000000000000000000000000AF
:10015000000000000000000000000000000000009F
:10016000000000000000000000000000000000008F
:10017000000000000000000000000000000000007F
:10018000000000000000000000000000000000006F
:10019000000000000000000000000000000000005F
:1001A000000000000000000000000000000000004F
:1001B000000000000000000000000000000000003F
:1001C000000000000000000000000000000000002F
:1001D000000000000000000000000000000000001F
:1001E000000000000000000000000000000000000F
:1001F00000000000000000000000000000000000FF
:10020000354936480A1A02D0072291438D463449AF
:1002100034480A1A06D00722914381F30988022242
:1002200082F3148830483149314A00F044F83148AB
:100230003149324A00F03FF831483249324A00F041
:100240003AF832483249334A00F035F832483349F7
:10025000334A00F030F833483349344A00F02BF881
:1002600033483449344A00F026F8344834490022EF
:1002700000F02CF833483449002200F027F83348C6
:100280003349091A082902DB002202604160314A21
:1002900090471F481F49884205D00268043003B4C4
:1002A000904703BCF7E700208646EC46002000217B
:1002B000294A9047FEE7884207D0521A05D00378B2
:1002C00001300B700131013AF9D17047884202D0F8
:1002D00002700130FAE770470000012000E00020C2
:1002E000000001200000012004AB010000000020FC
:1002F0009C000020D0030000D0030000E46A01004D
:1003000004AB01000000002000000020506B010041
:10031000506B0100506B0100506B0100506B0100ED
:10032000506B0100506B0100506B010003AB0100EA
:10033000A0AB01009C0000209C0000209C0000203D
:1003400010AF002010AF002010AF002010AF002031
:1003500010CF00209D030000392D0000FEE7FEE7CE
:10036000FEE7FEE7FEE7FEE7FEE7FEE7FEE7FEE765
:1003700000F002B8FFF7FCBF0F484FF007018843B9
:1003800085460E4880470E48016841F470010160BF
:10039000BFF34F8FBFF36F8FFFF732BF09480A4992
:1003A0000A4A884207D0521A05D0037801300B70F0
:1003B0000131013AF9D1704700000120695E010066
:1003C00088ED00E0506B01000000002000000020DC
:1003D0007047000007B5044B0093044A402300F027
:1003E00032F803B05DF804FBF10300009D0000202B
:1003F0002DE9F84388461446B2B10F4B0F4E032542
:10040000002743F00109224608EB0701002015F000
:10041000D7FC0744241A48B933782BB14FF47A40FB
:10042000C847013D02D13570BDE8F8830123337020
:10043000002CE8D1F8E700BF506B01009C000020C1
:10044000704715F0EDBCF0B595B01D461646084650
:100450000C4600F0D5FF1A9B0D93CDE908650025E9
:100460002B46082205A920460A958DF82C500C959C
:1004700000F0E2FF079B0293069B03939DF8143064
:100480008DF8115003F00302012A1DD1BDF814208C
:10049000059DC3F3C203C2F383168DF81030B2007A
:1004A00008230EA9204600F0C7FFC5F3952508AB29
:1004B0000093324602AB0EA9284600F097FB204677
:1004C00000F0A2FF15B0F0BD022AF8D1BDF8165019
:1004D000C3F3C203C5F389158DF810300827082D22
:1004E0002E4628BF08263B4632460EA9204600F07D
:1004F000A3FFAD1B08AB02AA31460EA8374400F09B
:10050000D9FB002DEBD1DAE7014B01221A707047BD
:100510001E0100207047000070B50E4D06460FCD3D
:1005200088B06C460FC495E80F00002E84E80F00D9
:10053000094A0A484FF0060308BF002269460093A3
:1005400001F0E4FB08B100F015FC054B1E7008B08B
:1005500070BD00BF646B01000905000000000020B1
:10056000DD00002007B5044B0093044A4023FFF749
:100570006AFF03B05DF804FB81050000DE00002087
:1005800038B50D480D4C0E4D002323700378EB5CFD
:10059000D2B263B1043002F081FB08B100F0EAFB93
:1005A000084B1A7812B12378002BFBD038BD0C30E1
:1005B00002F022F9F1E700BF000000201E01002038
:1005C00058070020DD00002008B50848084A0378D5
:1005D000D35C3BB1043002F0C5FABDE8084000200E
:1005E000FFF79ABF0C3002F091F8F6E70000002008
:1005F000580700200120FFF78FBF000038B50A4DD3
:10060000FFF71FFF0421284600F05AFA074B012488
:100610005C71FFF7EFFF042105F1100000F050FAC4
:10062000034B5C7138BD00BF1C6B0100140000203F
:100630001C000020037813F0040216D003F003031B
:10064000012B03D0022B09D0012070470A680088D3
:100650000232C0F3831002440A60F5E70B68428857
:10066000023303EB92130B60EEE710467047000075
:100670002DE9F04FDFF810A10F4685B00446861C27
:100680000020154600F0CCFBDAF804203A60DAF8D6
:10069000083003F580739B1A0AF21C470AF5836938
:1006A0000AF21448B34219D30020002D68D004F098
:1006B0000F039B0143F0050363F30F00DAF80430E6
:1006C000DAB2033233444AF822000020CAF8043078
:1006D00000F0A8FB012005B0BDE8F08F01213846ED
:1006E00000F0C5FB484600F0DAFB404600F0D7FBBF
:1006F000DAF808000090C0B203300AEB80006946C7
:10070000FFF798FF009B30BBDAB20AEB8202D16898
:1007100001919A1C0133DBB20AEB83030092D3F8F8
:100720000CB001F00303012B22D0022B15D083461D
:10073000404600F0B7FB10B1009BCAF8083059469C
:10074000384600F094FBDAF80830DAF8042003F5B4
:1007500080739B1AA6E7D8B2CEE7BDF80630C3F384
:10076000891303334FEA1B4B02EB93030093DFE73C
:10077000BDF80430C3F383134FEA1B4B1344F5E772
:10078000A40544F0060099E7F0010020064B074855
:1007900010B500221A7000F0ECFD044610B90448B0
:1007A00000F054FE204610BDF00100203C6B01001B
:1007B000C86B010030B50A4C71B10A4A0A49121BD4
:1007C000D20800239A4201D1002030BD31F82350D5
:1007D000854202D00133F5E7034654F83300F4E7CD
:1007E000E46A01001C6B010000000020094B013984
:1007F00003EBC000032909D8DFE801F00A02040670
:100800000420704700797047407970470020704796
:1008100002207047E46A0100034BD3E90130C31A98
:1008200058425841704700BFF00100202DE9FF41B8
:10083000FFF7F2FF0546002840F0E980754CC4F848
:100840001804BFF34F8FA3680093DBB2033304EBAC
:1008500083006946FFF7EEFE009B18B1D4F8182418
:10086000002A5AD0DAB2991C013304EB8202DBB2BF
:1008700004EB8303D268DB68029302F00303022BCC
:100880000192009154D1BDF806306348C3F3891733
:10089000502F3E4628BF502606F1080166F38F13FD
:1008A000C1F30901ADF8063000F07BFD05460028D4
:1008B00000F0988000F0A4FD0023082201A928463A
:1008C00000F0B0FD0099CB43DBB20133C9B2033174
:1008D000B6EB830F4FEA830204EB810125D95FFA5F
:1008E00082F80823A6EB0806284600F09BFDF6B226
:1008F00008F10803494903F0FC033246284600F09A
:1009000091FD009B033703EB97070097D4F8183449
:10091000002B43D1D4F8106453E062689A4294D813
:10092000A260284604B0BDE8F08108233246E5E71E
:10093000012B57D1BDF804303748C3F38311062982
:1009400028BF062161F38913023101F00F018900EC
:10095000ADF8043000F025FD0546002842D000F037
:100960004FFD0023082201A9284600F05BFD002668
:10097000BDF80420C2F38312B300964203F10803CA
:10098000C4D200994A1CC9B20331009204EB810120
:100990000422284600F046FD0136E9E7284600F02B
:1009A00033FDFFF739FF80F00100C5B2B9E7F36806
:1009B0005B7923B1336829461B6830469847F36852
:1009C0001E68002EF3D1284600F01EFD304600F0D0
:1009D00027FAD4F818340BB9009BA360002000F06C
:1009E00021FADEE7D4F8104454B90D4B0D480E49F6
:1009F000C01AC008000440F0020000F05DF8D0E723
:100A0000236820469B689847E3681C68ECE700254C
:100A100087E700BFF00100203C6B0100FC010020D3
:100A2000E46A0100046B0100B16B01002DE9F3479A
:100A300004460E46924601A9012218469946FFF740
:100A400017FE1B4F10B3019D4FF00008AA1CC845AC
:100A500008EB020123D11748002100F0E5F980F3EB
:100A60001000000440EA1440E4006B1C04F0380459
:100A7000DBB2EDB244F0010407EB8303033544EA33
:100A8000881444EA8624D86047F825403B781BB197
:100A9000FFF7CCFE0028FBD102B0BDE8F087C9B259
:100AA00007EB81015AF82830CB6008F10108CEE746
:100AB000F00100200C06002000231A46FFF7B6BF05
:100AC00030B50F4CD4F8102403460020114631B93C
:100AD000D96808714AB9C4F810340A6030BDC968D1
:100AE0000D79854206D00968F1E7D26814680C6078
:100AF0001360F3E701300A28E8D14FF0FF30EDE74B
:100B0000F001002038B5084B0125D3F810441D70C2
:100B100004B938BDE3685D71236820465B68984777
:100B2000E3681C68F4E700BFF001002030B5C3881B
:100B300085B004460D4633B1144A00921449154A53
:100B4000284600F009FA217A05291DD0637A4BB1B5
:100B5000A088FFF74BFE104B104953F82020284681
:100B600000F0FAF9227A0E4BA08853F82220039263
:100B70000021FFF71FFE039A0A490346284605B0E5
:100B8000BDE8304000F0E8B905B030BDF46B0100BD
:100B9000DC6B0100D46B0100606C0100F96B01009B
:100BA000846C0100FC6B010007B503460846197A06
:100BB000052911D05B7A2BB1094A0A49019000F04E
:100BC000CBF901980849019000F0C6F9019803B0EB
:100BD0005DF804EB00F0B5B9002AF8D0F2E700BFE9
:100BE000F46B0100F96B0100F16B01002DE9F0439A
:100BF00085B01F460C9D002395F80C902B7306467C
:100C00000C46904629463846FFF790FFB8F1060F8C
:100C100009D8DFE808F00412181F283340003146D5
:100C2000284600F099F9002229463846FFF7BCFF14
:100C300085F80C9005B0BDE8F0832268314628465F
:100C400000F08AF9EFE7D4E900233146284600F0A6
:100C500083F9E8E7A36800933146D4E900232846E6
:100C600000F07AF9DFE7E3680193A3680093314667
:100C7000D4E90023284600F06FF9D4E723690293F2
:100C8000E3680193A36800933146D4E90023284622
:100C900000F062F9C7E76369039323690293E3688D
:100CA0000193A36800933146D4E90023284600F05D
:100CB00053F9B8E708292DE9F74F80460E46174645
:100CC0001C463DD800251B7B257321461046019309
:100CD000FFF72CFFDFF88CA0DFF88CB0AE4232D9E2
:100CE00018F805205946204600F036F90135082D40
:100CF000F4D11B49DFF874A0DFF874B0204600F08F
:100D00002BF94FF000094E4524D918F809507E2DD3
:100D10001ED8284615F076FA002814BF2A462E223F
:100D20005946204600F018F909F10109B9F1080FF8
:100D3000E9D1012221463846FFF736FF019B237394
:100D400003B0BDE8F08F5146204600F005F9CDE72D
:100D50002E22E5E75146204600F0FEF8E4E700BF0A
:100D6000106C01000C6C0100066C01000E6C01009F
:100D7000126C01001FB50021039001AA44F201008A
:100D8000CDE9011100F004F805B05DF804FB0000A6
:100D900038B572B6FFF7B6FEFFF748FD0028FBD165
:100DA000104B114C114D1249E41AE408240444F08C
:100DB0000100FFF781FED5F8F030DB0700D500BE5B
:100DC0000C4944F00200FFF777FEBFF34F8FEA684B
:100DD000094B02F4E0621343EB60BFF34F8F00BF97
:100DE000FDE700BFE46A0100046B010000ED00E0D4
:100DF000986C0100A46C01000400FA0572B6024A66
:100E00001368013313607047A8060020034A136873
:100E1000013B136003B962B6704700BFA80600200B
:100E2000FFF7ECBFFFF7F2BF10B5034653E8000F22
:100E30000A4643E8002494F0000FF7D110BD10B526
:100E4000034653E8002F42EA010043E8000494F00F
:100E5000000FF6D110BD10B5034653E8000F00EAAD
:100E6000010243E8002494F0000FF6D110BD10B544
:100E7000034653E8002F02EB010043E8000494F01E
:100E8000000FF6D110BD10B5034653E8002FA2EBBA
:100E9000010043E8000494F0000FF6D110BD0121D9
:100EA000FFF7CDBF0021FFF7D6BF10B590B1D0E955
:100EB000012301689B1ADBB20A60013BDBB2FF2B06
:100EC000026802D10020107110BD11684C1C146022
:100ED0000B70F2E70E20F7E738B504460020FFF765
:100EE0009FFF226863681168994213D9481E1060F9
:100EF00011F8013CE568218A01FB0355A3681179CB
:100F00001B1ADBB2994200D213710020FFF78AFF4F
:100F1000284638BD0025F8E738B5054600200C46C0
:100F2000FFF77EFF2A681368591C1160E968641A8C
:100F3000298AB4FBF1F41C70BDE838400020FFF7AB
:100F400071BF826810B504462AB14369016800691F
:100F500098470023A36010BD0EB403B5039921B1D7
:100F600004AB01AA019300F077F802B05DF804EB3E
:100F700003B070470A2938B504460D4602D10D2149
:100F8000FFF7F8FFA3682268591CA160D554D4E983
:100F900001329A4204D32046BDE83840FFF7D1BF62
:100FA00038BD00002DE9F84F9846DDE90A431546A3
:100FB00082460F460A464FF00109AA420FD2C145A8
:100FC00038BFC14613F0010B01D16CB900240126D2
:100FD000B8F1010F1BD908F1FF386E43F8E709F1AA
:100FE0000109B2FBF5F2E8E79B070ED5B8F1000F57
:100FF0000CBF30262026A145E9D2013C314650469F
:10100000FFF7B8FF002CF6D1E0E72026F3E7B7FBA7
:10101000F6F39D42E1D9DFF83C80B7FBF6F350468A
:1010200018F8031006FB1377FFF7A4FF3346AB4213
:10103000B6FBF5F6F1D2BBF1000F02D00CB1A14521
:1010400001D3BDE8F88F20215046013CFFF792FF05
:10105000F4E700BFB16C01002DE9F74F05461746D4
:101060008846002900F03E8118F8011B49B92B7B06
:10107000002B00F03781284603B0BDE8F04FFFF7A2
:1010800060BF252940F0B780002698F800302D2B4E
:10109000424608F1010823D0302B24D02B2B25D039
:1010A00000242A2B02F1010123D13B681A1D1B6881
:1010B0003A601C440A4613782E2B26D101324FF099
:1010C000000A104610F8011BA1F1300CBCF1090F09
:1010D0001DD80A2303FB0A13A3F1300A0246F0E7E6
:1010E00046F00106D1E746F00206CEE746F00406D8
:1010F000CBE711F8013CA3F130000928DBD80A2224
:1011000002FB0434303C0A46CBE74FF0000A12F8E9
:10111000011B01F0FB0068289046F8D0782909D817
:101120006F290CD8632962D022D8252963D0582989
:1011300000F0888098F80030002B95D197E770393F
:101140000829F7D801A353F821F000BFBF1200000F
:101150003511000035110000551200003511000056
:101160003312000035110000351100004512000057
:10117000642901D06929DDD13A68D2F80090111DA7
:1011800089EAE9723960A2EBE9724FF0010B092A92
:1011900035DCD34538BFD3462CB1B9F1000F01DBA4
:1011A000720700D5013CB30702D5BAF1000F03D096
:1011B000F00701D44CBB0024B9F1000F2DDAC9F1BE
:1011C00000092D212846FFF7D5FE06F00302022A6A
:1011D00004D1BAF1000F01D11CBB0024CDE90046B7
:1011E00053460A2249462846FFF7DCFEA2E73B6841
:1011F0001A1D19783A602846FFF7BCFE9AE70A23C1
:101200000BF1010BB2FBF3F2C1E7A345D4D22021CD
:101210002846013CFFF7AEFECCE77107D5D52B2160
:10122000D0E7A345DAD230212846013CFFF7A2FEE1
:10123000D2E73968CDE900460A1D3A6053460A22D2
:101240000968D0E739680A1D3A60CDE9004653467F
:101250001022F5E73B681A1D3A6016F00106D3F834
:10126000009024D1B9F1000F03D0484615F0EEF8F4
:101270000646B4421DD809F1FF3919F8011F0029AB
:101280003FF458AF2846FFF775FEF6E728460136CB
:10129000FFF770FE19F806100029F7D1A642BFF437
:1012A00049AF20212846013CFFF764FEF6E70026FF
:1012B000F0E720212846013CFFF75CFED9E73B68B8
:1012C0001A1D3A60302128461C68FFF753FE78212A
:1012D0002846FFF74FFE00220823CDE900322146C1
:1012E000102280E703B0BDE8F08F00BF2DE9F84F72
:1012F000B0F806A04579D2F800B09DF828900AFB16
:1013000005F5043D88460BEB0301A94203F10404F3
:1013100088BFA5EB030BB4FBFAF607460AFB16449D
:10132000C2F800B04EB9AAEB04055D4528BF5D4682
:10133000BBF1000F04D1BDE8F88F3F68013EF1E733
:10134000043408EB06003C442A46B9F1000F0DD0E6
:101350002146ABEB050B14F0D4FFDA452E443F6871
:1013600055464FF0000428BF5D46E1E701462046A0
:10137000EFE7FFF79ABDF8B546790146721E0546BC
:10138000002393422D6803D30024A64202D8F8BD5F
:101390000133F6E70F682846FFF7BEFD01343946F2
:1013A000F3E72DE9F843068ACD1C0746FFF794FDC5
:1013B000043E35440446B5FBF6F5F0B14FF48073B6
:1013C000EDB28380C680013D076081464FF0000882
:1013D000A84512D23846FFF77FFD064648B163792B
:1013E0000133637108F10108C9F800000760814604
:1013F000EEE72046FFF7BFFF34462046BDE8F883FE
:1014000001210430FFF733BD10B50121044604303B
:10141000FFF739FDC0B220B92046BDE81040FFF704
:10142000AABF10BD1FB503920022009203AAFFF7C6
:101430005DFF05B05DF804FB1FB503920122009229
:1014400003AAFFF753FF05B05DF804FB8368002291
:101450005A60C3E904229A60DA601A60704710B5D6
:1014600061B1B2FBF3F403FB1424A4B244B9C0E9A4
:10147000001484608281C381204610BD0E20FCE7E9
:101480000920FAE737B550E8013F9DB2C4892544E9
:101490008489A54228BF2D1B0489A54202BFBFF342
:1014A0002F8F002207E0C5EA030540E80154002C15
:1014B000E9D14FF001028DF803200193019A0A60EF
:1014C0009DF8031001F0FF0321B1006810FA82F0CB
:1014D00003B030BD1846FBE70A884B889A4209D111
:1014E00050E8012FC2EA024240E80123002BF7D165
:1014F000012070470020704737B550E8023F1FFABF
:10150000A3F5C488A54202BFBFF32F8F00220DE0D0
:10151000C48925448489A54228BF2D1BC3EA0545FB
:1015200040E80254002CE8D14FF001028DF803206E
:101530000193019A0A609DF8031001F0FF0321B1A5
:10154000006800EB124003B030BD1846FBE70A8884
:101550004B889A4209D150E8022FC2EA224240E861
:101560000223002BF7D1012070470020704770B58F
:10157000446806460D46206818B1B3682946984766
:1015800018B923682B60256070BD2468F3E74368B1
:10159000186808B102681A60704743681868704795
:1015A0004368186800B97047884203D102681A601E
:1015B0000120704703460068F4E710B5D0E9024304
:1015C000D1E90202A04272EB03032CBF01200020EC
:1015D00010BD000008B50A4800F0ABFA094AD2E98C
:1015E0000031C018084BD3E9002341F100019042BB
:1015F00071EB030303D210F1807041F1000108BDCB
:1016000024000020B00600202807002037B505463A
:101610000C460A4801A9FFF735FF60B10570446028
:1016200001A90648FFF758FF18B1054800F086FAEF
:10163000002003B030BD0420FBE700BF14070020EA
:101640002400002038B5184B1B78044613B9002538
:10165000284638BD0028FAD0037F03F0FF05002B91
:10166000F5D0FFF7B7FFD4E90223904271EB0303F3
:1016700014D3236903B92377D4E905309847216946
:101680000029E4D0237F03F0FF05002BDFD0D4E94D
:1016900002325B1842F10002C4E9023203482146DB
:1016A000FFF765FFD4E700BFB8060020D86C010043
:1016B00013B5114B1149186801900823104858229E
:1016C000FFF7CDFE044698B90E4A0F4801A900F075
:1016D00021F9044660B90C48012100F00DFA0123FC
:1016E0000A4A0948194600F06FF9094B01221A709D
:1016F000204602B010BD00BFD46C0100BC06002023
:10170000140700206917000024000020FFFF7F005D
:10171000B80600203AB103685A614A1E514251414D
:101720001961002070470720704738B5037F0446D1
:101730000D4683B98261FFF74DFF2369281841F1F7
:101740000001C4E9020103B1256121460020BDE882
:101750003840FFF75BBF002038BD0000014800F0B3
:10176000E8B900BF240000202DE9F347064600F049
:10177000CBF940B1584AD2E9003113F1807341F1FD
:101780000001C2E900310021304600F0CCF938B147
:10179000524C236823B12068FFF754FF00232360D5
:1017A0000121304600F0BFF920B1FFF713FF4C4B89
:1017B000C3E900014B48494D4B4C4C4F01A9FFF781
:1017C0009BFE002842D1DFF82081444CDFF82491B1
:1017D0004046FFF7E2FE2368002872D07BB1236801
:1017E000D0E90252D3E902138D4272EB03032AD2ED
:1017F00023681B7F1BB121684046FFF7B8FE4046B7
:10180000FFF7C5FED0E9027A0546FFF7E3FE381A76
:101810006AEB010A01287AF1000345DBB0F5350FC8
:1018200040D3FFF79BFF324A02444FF49603002156
:10183000484600F0E9F800283ED1236813B9304645
:1018400000F0BAF8256002B0BDE8F0870378012BFC
:101850001DD0022B09D14FF000082046FFF797FE5C
:10186000002836D080F81C80F7E73BB941680B7F31
:1018700023B901230B772046FFF779FE01A9194808
:10188000FFF765FE01A91748FFF736FE99E74168A3
:101890002B68994202D100232B60EFE72046FFF727
:1018A0007FFEEBE7AA68C0E70021484600F031F967
:1018B0002846FFF7C7FE01E00D28F9D0002323607A
:1018C00086E7002BBFD1304602B0BDE8F04700F0FC
:1018D00077B801233B70D1E7B00600203007002025
:1018E0002807002014070020D86C0100B80600204B
:1018F000FFFFB40024000020435882B03BB1002316
:10190000435043580193019B012002B07047184691
:10191000FBE70000F8B5204B4479204E43F8242023
:101920001F4A204B06EBC4049B1A2279DB081B04D8
:1019300032B143F002001C49FFF7BEF80820F8BDA1
:1019400002680C88C2F8084590F904508A78047936
:101950005201002DD2B219DB14494F1987F8002328
:1019600001226D0904F01F0402FA04F441F8254035
:10197000427906EBC201012446F832000C7143F0B3
:1019800003000B49FFF798F80020D8E7094904F055
:101990000F040A55ECE700BF3C0700203407002085
:1019A000E46A01000C6B0100E46C010000E100E05E
:1019B000066D010014ED00E0036801221A60704713
:1019C000036801225A60704773B501F15005AD00FC
:1019D0000068ADB24FF480348C400026C0F8084354
:1019E000C0F84843465101F5A8714559019522F0C8
:1019F0007F42019D40F82120C0F844430BB1C0F85C
:101A0000044302B070BD00002DE9F74F0D4622F0EF
:101A10007F4402684FF4803705F150068F408046BE
:101A2000B60002EB8500C2F84873B6B2C2F808737C
:101A3000D2F8041599464FF0000BD0F84035C0F8A5
:101A4000401542F806B05B1A9259009223F07F438A
:101A5000012B009A4FEA850A0CD1264B4FF4806087
:101A600043F001039847D8F8003043F806B09B597B
:101A70000193019BD8F80010D1F80465C1F84473B4
:101A8000A31B23F07F43012B1CD11A4B05F5A8752E
:101A9000013443F0010341F825404FF4806098473A
:101AA000D8F80030D3F804359E4209D1D8F8003078
:101AB0000020C3F84473C3F8047303B0BDE8F08F8B
:101AC0000D20FAE78A44C9F1FF13CAF84045D1F85E
:101AD0000405221A013A22F07F4203F57F43934224
:101AE000EED3002AE2D10134CAF84045D1F80435DA
:101AF0009842DAE7206D010003680222C3F844230C
:101B000009B1C3F80423704700684FF48271FFF7EE
:101B1000F3BE4FF4803303FA01F10368C3F84813AE
:101B2000C3F80813704750318900006889B2FFF785
:101B3000E3BE0368D3F804057047000090F9043051
:101B4000002B09DB5A09012103F01F0301FA03F3FB
:101B50004032024941F82230704700BF00E100E006
:101B6000024B034A1B681068184700BF3C0700205F
:101B7000340700201FB503788DF800308388ADF856
:101B8000043083688DF80630C3688DF80730036928
:101B900002934369054A0393054B684653F8213085
:101BA00052F82110984705B05DF804FB400700206B
:101BB00048070020024B4FF4807043F001031847A0
:101BC000306D01002DE9F047154690F80090324A3B
:101BD00042F82950314A42F829304B7B07460C46DF
:101BE0006BB30868496882008B0002F1A04203F1E0
:101BF000A04340F20C66C2F800674FF0010AC3F838
:101C000000674FF0A0460AFA00F00AFA01F1C6F8A0
:101C10000805C6F8081540F20D61C2F80017C3F8B0
:101C20000017FFF7C7FF4FF00008D6F810256368CC
:101C300022FA03F3DB070DD5B8F1000F1DD1002DFB
:101C4000174A4B4608BF2A462146381DBDE8F047D3
:101C500000F0CCB923680AFA03F3C6F80C35FFF795
:101C6000A9FF23680AFA03F3C6F8083508F101084A
:101C7000FFF7A0FFB8F1090FD7D1636801264FF035
:101C8000A04806FA03F3C8F80C35FFF793FF636822
:101C90009E40C8F80865D2E74807002040070020AA
:101CA000751B00001FB503788DF800304368019361
:101CB00083688DF80830C368054A0393054B68466E
:101CC00053F8213052F82110984705B05DF804FB15
:101CD00050070020540700201FB503788DF800300E
:101CE0004368019383688DF80830C368054A0393FD
:101CF000054B684653F8213052F82110984705B03B
:101D00005DF804FB5007002054070020F0B5194B84
:101D100090F800C091F81DE043F82C20164B1646B1
:101D20000A6943F82C20154B03F80CE00C460746D3
:101D30000FCC89B06D460FC594E80F0085E80F0001
:101D4000CDF810C0BEF1000F09D0002E0C4A694634
:101D500008BF3246381D00F043FE09B0F0BD002E2A
:101D6000084A694608BF324607F10C0000F01AFC29
:101D7000F3E700BF54070020500700205807002059
:101D8000A51C0000D91C0000014B1B68184700BFB0
:101D90005C07002038B50B4B98420C4601D0002060
:101DA00038BD0020FFF73CF8074B1D7915B901221B
:101DB0001C601A710020FFF735F8002DEFD01120BC
:101DC000EEE700BF002000405C070020034B984274
:101DD00001BF034B00221A601A71704700200040B7
:101DE0005C0700200023435082B043580193019BBD
:101DF00002B070470B7B032B2AD8DFE803F02226C2
:101E00001A028B685A0304D5D0F84C350A699A42F5
:101E100007D18B685B031BD4D0F84C354A699A42D2
:101E200016D000230622C0F80035C0F80025184659
:101E30007047D0F84C350A699A42F2D1D0F83C3557
:101E4000ECE7D0F84C350A69E9E7D0F83C35FAE719
:101E500001207047F0B5D0F8243187B004460D4614
:101E6000EBB14FF49271FFF7BDFFD0F80431B3B975
:101E7000AB68C0F808330223AB60AB68C0F804332A
:101E8000D0F860311BB1D0F800329B0502D4012399
:101E900023626361012385F82E3007B0F0BDD4F8CA
:101EA0000431002B41D04FF482712046FFF79AFF96
:101EB0002B6A5F0609D495F82E3033B92946FFF70F
:101EC00099FF80F0010085F82E002B6A5E073ED452
:101ED00005F10C070FCF01AE0FC63B6833604FF41E
:101EE000B0712046FFF77EFF4FF4AE71FFF77AFF27
:101EF00095F8303013B195F82E3043B30023C4F871
:101F00000032AB602F4BC4F8083344F30733002B87
:101F10004FEA14321BDB02F01F015B0901228A40E9
:101F20006033294941F8232011E04FF4A471204681
:101F3000FFF758FF2B7B23BB05F10C070FCF01AE3A
:101F40000FC63B68336095F83030002BD7D0D4F8FB
:101F5000C434C4F8C434980725D501238DF8003063
:101F600095F830300BB985F82F302B6A5B0703D515
:101F700095F82E30002B90D0D5E90031684698476F
:101F80008BE74FF40073C4F8003240F20223AB60D9
:101F900003F1CE73C4F80833AB68C4F804330123EB
:101FA000A360236279E7590701D50223D6E7DA0750
:101FB00001D50323D2E795F82E30002BCED0042391
:101FC000CCE700BF02029C0100E100E001490248A9
:101FD000FFF740BF640700200030004002494FF087
:101FE0004020FFF737BF00BF980700202DE9F84FCA
:101FF0000679314D4FF0340A0AFB06FA05EB0A0761
:102000009B4697F82D3080460C469146002B4FD1C9
:102010002A4B006853F82610FFF7BCFE002849D170
:102020002168637B87F8323001F5E0724FF0A043FE
:10203000B860C7F804B087F82F0087F8300040F286
:102040000C6745F80A9043F82270626802F5E07C5C
:1020500043F82C70D8F80030C3F80815C3F80C25E5
:10206000A268C3F82425B9F1000F14D0227B43F3F2
:10207000073152010029C3F30733D2B213DB104CEE
:10208000671887F800230122490903F01F0302FAA9
:1020900003F344F82130342303FB0655012385F86C
:1020A0002D30BDE8F88F074903F00F03CA54F2E75B
:1020B0000820F6E71120F4E764070020406D0100D6
:1020C00000E100E014ED00E0036802790621C3F8A6
:1020D0000015044B342101FB0233022283F82D202A
:1020E000704700BF640700202DE9F843DFF8C8827D
:1020F00090F804900468342606FB0986002386F8CD
:102100002E30CB6803F06043B3F1005F0D461746F5
:1021100003D010263046BDE8F883A64BC4F8083338
:1021200096F82F3023B1B368C4F804331126F1E7D1
:1021300012F0140F0CBF0123002386F82F308E46B7
:10214000BEE80F0006F10C0CACE80F00DEF8003022
:10215000CCF80030C7F3001386F8303037626B7864
:10216000C4F8883520464FF48271FFF73BFE4FF4E8
:102170009271FFF737FE4FF4B071FFF733FE4FF463
:10218000A471FFF72FFE17F0010318BF0123C4F855
:10219000503517F0020318BF0123C4F840352B78DF
:1021A000032B00F2B580DFE803F084A069022B69FD
:1021B00003F06043B3F1005FABD14FF48073C4F818
:1021C0000032EA686B68C4F844254FF4A871C4F87B
:1021D0004835FFF707FE01232362A360D4F850318E
:1021E000002BFBD04FF4A8712046FFF7FBFDAB6836
:1021F0002A69C4F84425C4F84835342303FB09830D
:102200004FF480229A60082300263A0704D42A78E3
:10221000032A1CBF0122E250342303FB09F308EB1D
:10222000030258F80330002B75D10125D4F848215A
:10223000D4F80431002B40F08980003A18BF012205
:10224000D4F82431002B00F088804FF4927120469E
:10225000FFF7C8FDD4F86011D4F8003209B1980531
:1022600004D4256265610029E0D00022D90574D527
:102270004FF4A4712046FFF7B5FDD7E76B68EA6815
:10228000C4F84425C4F848352B6903F06042B2F124
:10229000005F7FF43EAFAA68C4F834354FF484532E
:1022A000C4F83825C4F80032342303FB0983022222
:1022B00012E06B68EA68C4F8442517F0200FC4F8F0
:1022C00048354FF034030BD04FF48072C4F800222D
:1022D00003FB09834FF480229A600123236292E773
:1022E0004FF40072C4F80022DFE76B68EA68C4F8B4
:1022F0003425C4F838354FF48053C4F80032342301
:1023000003FB098302229A600123236200237BE7F7
:102310000823072679E77B0744BF002393607D06E7
:1023200006D4342303FB09839A6842F002029A60C0
:10233000342303FB0988D8F8083043F40073C8F845
:102340000830D8F80830C4F80433E3E64FF482715B
:102350002046FFF747FD012272E7002A3FF466AFEF
:102360003421D4F8C434C4F8C43401FB09820020F9
:1023700082F82F0093B113F0010F14BF4FF40246FF
:10238000032648F2012213F0020F18BF164613F07D
:10239000040F48F2022318BF1E46BBE67B063FF53A
:1023A000B9AE09FB01812046FFF724FD002808BFD4
:1023B0000326AFE602029C016407002010B586B038
:1023C0000024CDE902349DF820308DF80510A34299
:1023D000CDE9042401A914BF202222468DF804402F
:1023E000FFF782FE06B010BD0023435082B0435871
:1023F0000193019B02B070470A4610B54FF48E71ED
:10240000FFF7F2FF136A9168C95C136A0133136224
:10241000C0F81C1510BD8B690A4610B54FF48471C5
:1024200023B9FFF7E1FFD0F8183510BDFFF7DCFF47
:10243000536AD168D0F81805C854536A01335362FF
:10244000F3E700001FB501238DF80030044BCDE900
:102450000110D3E900126846904705B05DF804FB0F
:10246000CC07002030B54D4DD5F804339A0585B022
:1024700051D5D5F82431002B4DD04FF49271284618
:10248000FFF7B2FF4FF40173C5F80833444B93F8DC
:1024900029200AB901226A60404902228DF80020F1
:1024A000D1F88024C1F8802403929A690292DA68F4
:1024B00001920022C3E906226846D3E90012904740
:1024C0003648D0F81C315BB1354A5169136A9942DC
:1024D0004DD992F82830002B49D11146FFF78CFFD7
:1024E0002E48D0F84431002B56D04FF4A271FFF79C
:1024F0007BFF2B4B93F829200AB1012202609A69D5
:10250000002A49D0586AD96800229A6105B0BDE80E
:102510003040FFF797BFD5F804335B07D0D5D5F827
:102520000831002BCCD01E4C1C482146FFF773FF0E
:10253000636AA2699A42C3D1E369E1684BB1A361BE
:102540002369E3600023606AE3616362FFF77AFF57
:10255000B6E794F829300BB901236B600F4B4FF4A9
:102560000172C3F808230023606AA361EEE70B48F9
:102570004FF48E71FFF738FF5369002BB0D05169CB
:102580000291002391688DF80030019153616846F3
:10259000D2E900139847A3E705B030BD0020004002
:1025A000CC0700202DE9F843534D90F804802C23EC
:1025B00003FB0853064693F82A300C469146002B3D
:1025C00040F096804D490068FFF7E4FB074600287D
:1025D00040F0908022683068511C0BD04FF0A04131
:1025E00001239340C1F8083502F5E0734FF0030C66
:1025F00041F823C061684B1C1FBF01F5E0734FF029
:10260000A04C4FF0000E4CF823E0A369C0F824352D
:1026100094F814C0637DBCF1010F4CEA0303C0F8C9
:102620006C35C0F81415C0F80C251DD1A268531CD8
:102630001FBF02F5E0734FF0A0414FF0000C41F8CE
:1026400023C0E368591C0BD04FF0A04C01219940E6
:10265000CCF8081503F5E0714FF0030E4CF821E0BB
:10266000C0F80835C0F810252C2202FB08F2AB1880
:10267000C3F804902369AB50B9F1000F20D04FF498
:102680008E71247FFFF7B0FE4FF4A2713068FFF720
:10269000ABFE32681A4BC2F80433130B42F3073215
:1026A0006101002AC9B21EDB1648841884F80013A1
:1026B0000121520903F01F0301FA03F340F822300D
:1026C00033680422C3F800252C2303FB085300229F
:1026D000C3E9062283F829205A61012283F82A20BF
:1026E0003846BDE8F883084A03F00F03D154E7E702
:1026F0000827F5E71127F3E7CC0700206524000041
:102700008000020000E100E014ED00E0F8B503688D
:102710000579304C0022C3F800252C2202FB05422B
:102720005268A2B12C4AC3F808231A0B43F30733AB
:10273000002B0CDB02F01F015B0901228A402033D1
:10274000264941F82320BFF34F8FBFF36F8F0068F6
:10275000D0F80C65D0F81415D0F80835D0F810254D
:102760004FF0FF37BE42C0F8147518BF06F5E0768B
:10277000C0F80C75C0F80875C0F810751EBF4FF092
:10278000A0474FF0020C47F826C04E1C1FBF4FF069
:10279000A04601F5E071022746F82170511C1FBFC9
:1027A0004FF0A04102F5E072022641F822605A1C67
:1027B0001FBF03F5E0734FF0A042022142F823103F
:1027C000FFF704FB2C2303FB0544002384F82A3085
:1027D0006360F8BDCC0700208402020000E100E045
:1027E0000279044B2C2101FB02335869003818BFD1
:1027F00001207047CC0700202DE9F84F064690F8DD
:10280000048089469246FFF7EBFF044600283CD13E
:10281000204F2C2508FB057B4FF48E71CBF814A0BC
:10282000CBF80890CBF820008BF828003068FFF731
:10283000DBFD3068012383605946FFF7DDFDDBF8DF
:1028400004305D461BBB3068DBF814402B6A9C42A9
:1028500011D83368D3F81C21002AFBD00122DA609A
:1028600000202C2303FB087700237B61BDE8F88F51
:1028700095F828303BB9D0F81C31002BF8D05946D8
:10288000FFF7BAFDE2E70F20EBE71120EEE7204665
:10289000ECE700BFCC0700200023435082B0435830
:1028A0000193019B02B070471FB501238DF80030E2
:1028B000044BCDE90110D3E900126846904705B0FA
:1028C0005DF804FBF80700207FB5434AD2F8246185
:1028D000002E60D010464FF49271FFF7DDFF022307
:1028E0008DF80030D2F88034C2F880340393D2F8E7
:1028F0003C350293394BDA6801920022C3E9062283
:102900006846D3E9001290473348D0F8443173B198
:102910004FF4A271FFF7C0FF304B9A693AB1002221
:10292000C3E90622D968D0F83C05FFF7BDFF2A4865
:10293000D0F82031ABB14FF49071FFF7ADFF012318
:10294000C360264B5A6962B1D0F84C15029100223F
:1029500099688DF8002001915A616846D3E9001208
:1029600090471D48D0F858319BB14FF4AC71FFF738
:1029700093FF1A4B5A6962B1D0F84C1502910022AC
:1029800099688DF8002001915A616846D3E90012D8
:10299000904704B070BDD2F81031002BB4D04FF482
:1029A00088711046FFF778FF0C4BD2F83C05996907
:1029B0008842A9D1DC69D96864B1D2F8005225F007
:1029C0002005C2F800521A699C61DA60DE61FFF7E7
:1029D0006BFF99E79C61FAE700200040F8070020B0
:1029E0002DE9F8435A4E90F80480242303FB086332
:1029F000044693F820300D469146002B40F0A3800A
:102A000054490068FFF7C6F90746002840F09D804A
:102A10002A682068511C0BD04FF0A041012393403D
:102A2000C1F8083502F5E0734FF0030C41F823C0FC
:102A300069684B1C1FBF01F5E0734FF0A04C4FF0CD
:102A4000000E4CF823E0AB69C0F8243595F814C0AB
:102A50006B7DBCF1010F4CEA0303C0F86C35C0F884
:102A60000C25C0F814151DD1AA68531C1FBF02F510
:102A7000E0734FF0A0414FF0000C41F823C0EB6829
:102A8000591C0BD04FF0A04C01219940CCF80815EF
:102A900003F5E0714FF0030E4CF821E0C0F8083563
:102AA000C0F81025242202FB08F2B318C3F80490E2
:102AB0002B69B350B9F1000F2FD04FF488712A7FE2
:102AC000FFF7EAFE20684FF49071FFF7E5FE2068FB
:102AD0004FF49271FFF7E0FE20684FF4A271FFF708
:102AE000DBFE4FF4AC712068FFF7D6FE23681A496D
:102AF000C3F80413190B43F307335201002BD2B26E
:102B00001CDB1648C51885F8002301225B0901F07B
:102B10001F0102FA01F140F8231023680822C3F8CC
:102B20000025242303FB08660023C6E906337361EE
:102B3000012386F820303846BDE8F883084B01F0C1
:102B40000F015A54E9E70827F5E71127F3E700BF1B
:102B5000F8070020C92800001003420000E100E04F
:102B600014ED00E0F8B5444C0579242303FB05433C
:102B700002465B680068ABB1404BC0F8083340F3D5
:102B80000733002B4FEA10310CDB01F01F065B0905
:102B90000121B14020333A4E46F82310BFF34F8F46
:102BA000BFF36F8FD0F8003223F02003C0F800325B
:102BB000242303FB05439B692BB14FF4A271FFF75C
:102BC0006BFE012343604FF4AC71FFF765FE0123F8
:102BD000C360242303FB0543D0F858110029FBD020
:102BE000996919B1D0F844110029F5D00023C0F833
:102BF00000351368D3F80C75D3F81465D3F808259D
:102C0000D3F810154FF0FF3C6745C3F80CC518BF4B
:102C100007F5E077C3F814C5C3F808C5C3F810C5B5
:102C20001EBF4FF0A0434FF0020C43F827C0771CA3
:102C30001FBF4FF0A04306F5E076022743F8267049
:102C40004E1C1FBF01F5E0714FF0A043022643F870
:102C50002160531C1FBF4FF0A04302F5E072022118
:102C600043F82210FFF7B2F8242303FB05440023A6
:102C700084F820306360F8BDF8070020100342009C
:102C800000E100E00279044B242101FB0233586982
:102C9000003818BF01207047F807002001F060439A
:102CA000B3F1005F2DE9F0470646884692463BD1D6
:102CB00090F80490FFF7E6FF0446002836D11D4F38
:102CC0003068242505FB09754FF49071C5F814A0F0
:102CD000C5F80880FFF7E0FD4FF4AC713068FFF7EE
:102CE000DBFD33686A69A968C3F84415C3F8482551
:102CF00001229A606A68DAB9D3F82021D3F8580122
:102D00001AB90028F8D00F2007E00028FBD10122D3
:102D1000DA60D3F85821002AFBD0242303FB09777B
:102D200000237B61BDE8F0871020FBE71120F9E765
:102D30002046F7E7F80700202DE9F041FEF7B8FC40
:102D400008B1FEF717F84FF480410020FDF71EFD93
:102D500008B1FEF70FF8FDF751FC1B481B4B1C494F
:102D6000C01AC008000440F003063046FDF7A4FE78
:102D7000FDF75CFD04460028FAD100F0BFF9154FBD
:102D8000DFF8548000F056F947F001070134A4B28F
:102D9000642C05F1010502D900F078F9002440F215
:102DA000E9339D420AD141463046FDF785FEFDF7E5
:102DB0003DFD05460028FAD100F08AF900F063F9DC
:102DC0004FF47A40B847E1E7046B0100E46A010080
:102DD000536D0100906D0100686D010003784BB9DF
:102DE0000379032B06D8DFE803F002060602034B43
:102DF00001221A707047024BFAE700BF1D0800203D
:102E00001C0800201FB505220723CDE900234FF041
:102E1000CD610223CDE90213074A08480023694621
:102E2000FEF7D0FE44B214B90548FFF74DF9B4FAE5
:102E300084F0400904B010BDDD2D0000986D010044
:102E40009C6D01007FB5054608461C4611460026CC
:102E50001A468DF808000DF10900CDF8096013F04D
:102E600050FA631C0A480096DBB202AA2946FFF713
:102E7000A5FA30B9074A49F64043117829B9013B10
:102E8000FBD14FF0FF3004B070BD00201070FAE7A6
:102E90009C6D01001D08002038B504464518AC4261
:102EA00000D138BD2246012300213C20FFF7CAFF94
:102EB0000134F4E730B5244B244C2549E41AE408E6
:102EC000240444F0030485B02046FDF7F5FDFFF728
:102ED00099FF30B91F49204605B0BDE83040FDF7E5
:102EE000EBBD20461C491D4DFDF7E6FD642445F071
:102EF00001054FF47A40A847013CFAD164244FF40D
:102F00007A40A847013CFAD18D238DF8053014236F
:102F10008DF80630A1238DF80730C8238DF80830CE
:102F200081238DF80930A6238DF80A30FF238DF810
:102F30000B300921AF2301A88DF804408DF80C3027
:102F4000FFF7AAFF05B030BDE46A0100046B010081
:102F5000A86D0100BA6D0100CA6D0100E06D0100AD
:102F600030B5BDF90C009DF81450C41004FB0233B9
:102F700000F007040120A0409BB29DF81040CA5CFD
:102F8000C0B21CB915B10243CA5430BD22EA0002D6
:102F9000FAE72DE9FF41B1F9024020238DF8053011
:102FA0002123C4F3C7088DF80730B1F906400B8818
:102FB0008DF808308B888DF80930C4F3C7040025DC
:102FC00022230646092101A88DF80C4017468DF8EA
:102FD00004508DF806508DF80A308DF80B800134BE
:102FE000FFF75AFFA4EB0804E401AC4205D13046D8
:102FF0000BF026FC04B0BDE8F0817A1901234021D2
:103000003C20FFF71FFF0135EFE7B0F90020B0F9D2
:103010000230D2B2DBB20020013A013B0880488086
:103020008A80CB80704708B5FDF700FC0028FBD1F3
:1030300008BD000008B5074A07480121FEF76AFBF2
:10304000002210210548FEF770FB003818BF012050
:1030500008BD00BF27300000E86D010020080020F7
:1030600030B4BDF908409DF810500495029430BC6E
:10307000FFF776BFFFF7C9BFFFF78BBF0CF02CBF80
:1030800001200BF08DBC01200BF08ABC0CF024BF9A
:1030900010B50B4B0B4C1A6886B0511C196003A875
:1030A000094913F008F9206803A912F0A7FD0023CD
:1030B000206800930122194600F024FF06B010BDDD
:1030C00040280020C8280020EC6D0100FFF7E0BF79
:1030D00013B5002000F07AF8002111F071FF0649C5
:1030E000044611F09BFE002300931A461946204621
:1030F00000F008FF02B010BDFC6D010010B5244CBB
:103100008EB000F0D3FAFFF7D5FE224900224FF42B
:10311000803320460BF032FB01A80BF011FB1E4B55
:1031200001931E4B04931E4B059301A81D4B069360
:1031300002940BF0AFFBFFF7CBFF1B4A1B480121AA
:10314000FEF7E8FA1A4800224FF4A471FEF7EDFAF0
:1031500008B1FDF70FFE174A17480121FEF7DAFA0A
:10316000164800224FF40041FEF7DFFA08B1FDF7E0
:1031700001FE134A13480121FEF7CCFA124800223F
:10318000C821FEF7D2FA08B1FDF7F4FD0EB010BD6C
:1031900044280020400800208000400079300000D2
:1031A000753000006130000081300000F46D0100D6
:1031B000882800207D300000F86D0100A82800203C
:1031C000CD300000F06D01006828002008B510B96E
:1031D0000BF0E2FA00B1406C08BD08B510B90BF075
:1031E000DBFA00B1806C08BD08B510B90BF0D4FA59
:1031F00000B1006D08BD08B510B90BF0CDFA00B1F3
:10320000406D08BD10B5002428B96CB12046BDE85A
:10321000104000F095BD90F8343013F0200F18BF27
:10322000044600F05FFBEFE710BD2DE9F743067D94
:1032300016F0010605468846174662D1C4684FF06D
:103240000109002C54D12B7DDA0601D4002E58D16F
:10325000B9F1000F55D02846C0470446002E42D190
:1032600000284ED006464FF000092068002101F0EA
:10327000F3F98306E5D4206800F0A2FC024600289A
:10328000DFD1EB68A3423CD083B118680192C369D7
:1032900017219847EB68019A18680E2100F0BAFAD6
:1032A00001282ED1EB68186800F01AFD2068EC6048
:1032B000C369002216219847EB68002218680D2187
:1032C00000F0A8FA01281CD1EB681868FFF79AFFF4
:1032D000EB68186800F004FD2B6993B1284603B031
:1032E000BDE8F04318474FF00009002CBDD1AAE714
:1032F00021462846B847002E08BF2646B04204465D
:10330000F3D103B0BDE8F083014818210CF0A1B857
:10331000442B0020014A0249FFF787BFDDF400007B
:10332000D1F40000014A0249FFF77FBFE7F4000033
:10333000D7F4000038B5037DC3F3001543F0100344
:1033400003751B07044606D4FFF7E4FF237D65F3EE
:103350000413237538BDFFF7E5FFF7E770B50D4699
:10336000044668B30CF0B4F8B0B9AB6B33B128467F
:1033700002F038F810B1A86BFFF7DCFFAC63204611
:103380000CF08AF806460BF073FF034660B90D484F
:1033900032460BF071FFFEE70368AB4210D00146E6
:1033A00020460CF09BF8DFE756B1356020460CF064
:1033B0008FF8864204D12046BDE87040FFF7BABFBF
:1033C00070BD00BF9071010070B5846B0646002C83
:1033D00031D0E3681B6883421CD1237DDA0744BFE8
:1033E0006FF30003237520460CF072F8E368834204
:1033F00022D120460CF06FF8E36898421CD1006897
:103400000022C36917219847E3681B68B34204BFD1
:103410000023E36020460CF05BF8054658B12B68AA
:10342000B342294620460BD10CF08FF828460CF009
:1034300001FA0023B36370BD2046FFF77BFFE3E78B
:103440000CF04CF8E9E710B1C06800B100687047B3
:1034500010B1007DC0F3400070470000014B1868B8
:10346000704700BFCC280020F8B50D46044608B3CD
:1034700090F8503043F0020380F850301F4B1B6827
:10348000834202BF1E4B00221A6071B1C36B8B4294
:103490000BD0636BAB4202D10023636315B1A36B06
:1034A000AB4201D10023A363F8BD0023E363002DE9
:1034B000F2D0EEE70BF06AFA104E114F0028F3D06D
:1034C00090F8503043F0020380F850303368834264
:1034D00008BF3C6075B1C36BAB420BD0436BAB42D2
:1034E00001D1446315B1836BAB4200D184630BF00F
:1034F0004DFAE3E7C463002DF3D0EFE7CC280020BA
:10350000D028002000210846FFF7AEBF014B186805
:10351000704700BFD0280020722867D8532816D8DB
:1035200033285BD81F281CD8013883B2172B20D929
:103530000020704700F5FF40012380B203FA00F03D
:1035400044F20B03184214BF012000207047543886
:1035500080B20123834035481840003818BF01204D
:1035600070472038012380B203FA00F003F571237D
:10357000E8E71728DCD801A353F820F0273600002D
:1035800027360000313500002736000027360000BE
:1035900027360000273600003135000031350000A5
:1035A0003135000031350000313500003135000083
:1035B0003135000031350000273600002736000085
:1035C000273600002736000031350000273600007E
:1035D000273600002736000027360000403880B22A
:1035E0001028A5D8012383401148B5E748F28E037F
:1035F000984211D848F27F0398429BD8FF2812D0F6
:1036000006D87F280FD0912814BF002001207047D2
:1036100048F20C039842F7E748F2A003984202D020
:1036200048F2AD03F6E70120704700BF01100044E7
:10363000050001002DE9F843051D28460E461746F2
:103640000BF046FF1FFA86F804461FFA87F90CB9FB
:10365000BDE8F883238A43442382638A4B44638210
:10366000A38A4344A382E38A4B44E38220463A463A
:103670003146FFF7DFFF214628460BF02FFF0446B7
:10368000E5E7000008B50246002302480BF0F4FD10
:10369000FEE700BF9E710100013900F1080311F837
:1036A000012F00F8012B9842F9D1704730B5194D20
:1036B0002B7885B063BB0CF05FF80CF05BFB0BF074
:1036C000F7FD0BF067FAFFF71FFE134810210BF010
:1036D000C0FE12484FF4C4710BF0BBFE10486021CD
:1036E0000BF0B7FE0F4B00930124CDE9013302220A
:1036F000214620460FF006F90CF0AAFF03F03CFB30
:10370000FFF700FF0AF0D0FC20460AF005F92C7004
:1037100005B030BDDC280020EC2B0020A82A0020BA
:10372000602B00204800002038B504460D460BF001
:103730009FFD034620B9064822460BF09DFDFEE79B
:1037400094F8343065F3C71384F8343038BD00BFC3
:103750009E71010038B504460D460BF089FD10B985
:103760002046FFF78FFF94F8343065F3000384F8A8
:10377000343038BD2DE9FF47804615461E460C46BD
:1037800049B108460BF074FD034620B91E48224695
:103790000BF072FDFEE71D4FDFF8749001940023DB
:1037A0008DF808303B68039301ABD9F800A03B606B
:1037B000C9F80060FFF752FE18B183680BB12946C3
:1037C0009847B8F1000F02D029462046C0473B6811
:1037D000C9F800A09B683B609DF8083083B98CB1A4
:1037E00094F834305A060DD5206858B1324629462F
:1037F00000F010F8431E5842584104B0BDE8F0876D
:103800000020FAE70120F8E79E710100D828002087
:10381000D428002013B50C460192009088B10BF01B
:1038200027FDDDE9001328B903460A4606480BF0D8
:1038300023FDFEE78869224602B0BDE81040FFF78D
:1038400099BF012002B010BD9E71010038B5044639
:103850000D460BF00DFD034620B9034822460BF040
:103860000BFDFEE7E56138BD9E71010010B1C36933
:1038700003B118470120704738B504460D460BF0D8
:10388000F7FC034620B9034822460BF0F5FCFEE79F
:10389000256238BD9E71010013B5044601910BF0FD
:1038A000E7FC0199034620B9054822460BF0E4FCE9
:1038B000FEE7606A0CF03BF900B1606202B010BD37
:1038C0009E71010010B504460BF0D2FC10B92046E1
:1038D000FFF7D8FE0022E369628620460621BDE894
:1038E0001040184710B504460BF0C2FC10B9204632
:1038F000FFF7C8FE206810BD38B504460BF0B8FCD1
:1039000010B92046FFF7BEFE2046FFF7EBFF254625
:1039100004460028F8D1284638BD0000F8B5054611
:103920000BF0A6FC034620B912482A460BF0A4FC73
:10393000FEE72B681BB12846FFF7DEFF05460E4861
:103940000D4F0BF0C5FD04460CB92046F8BD04F13F
:10395000380630460BF0BCFD28B9214638460BF03E
:10396000BDFD0446F0E78542EFD0014630460BF03E
:10397000B5FDF1E79E710100A82A002038B5044684
:103980000D460BF075FC10B92046FFF77BFE201D9D
:103990001DB9BDE838400BF09BBD2946BDE8384055
:1039A0000BF09CBD38B504460D460BF061FC10B918
:1039B0002046FFF767FE04F110012846BDE83840B5
:1039C000FFF76ABE10B504460BF052FC034620B95F
:1039D000084822460BF050FCFEE72046FFF782FF26
:1039E00020B1238A008A181A00B210BDB4F9100061
:1039F000FBE700BF9E71010010B504460BF038FCD8
:103A0000034620B9084822460BF036FCFEE7204664
:103A1000FFF768FF20B1638A408A181A00B210BD10
:103A2000B4F91200FBE700BF9E71010010B5044617
:103A30000BF01EFC10B92046FFF724FEA38A208A53
:103A40000133181A00B210BD10B504460BF010FC7B
:103A500010B92046FFF716FEE38A608A0133181A70
:103A600000B210BD13B511B9283002B010BD8DF8E9
:103A7000001000246A4608210194FFF7F7FE012890
:103A80000CBF01982046F0E72DE9F04707461A4899
:103A9000DFF864A00D46164698460BF01CFD044660
:103AA0000CB9BDE8F0874445FBD0214650460BF0E9
:103AB0001AFD81462068B8421BD1A179A94201D0E4
:103AC000FF2D16D1A388B34201D0FF2E11D1FFF7ED
:103AD000C9FF03F0F0FEA18803F060FD002120463D
:103AE0000BF08EF8504621460BF02FFD20460BF0D0
:103AF000A1FE4C46D4E700BFEC2B002070B5044675
:103B00000D46FFF7AFFF48B103F0DDFE2946204622
:103B10000023BDE87040FF22FFF7B6BF70BD70B54F
:103B200006460D460024E1B23046FFF79BFF30B158
:103B30004279013465F3C302402C4271F3D1402431
:103B400021463046FFF78EFF38B142790134E4B2A6
:103B500065F3C302FF2C4271F2D170BD70B50468E9
:103B60001648164E0BF0B4FC002590B945B9A17962
:103B70002068FFF777FF03F09EFEA18803F00EFD9B
:103B80000E4821460BF0E1FC2046BDE870400BF0EA
:103B900051BEA0420CD0026823689A4208D1436803
:103BA00023F07F42636823F07F439A4208BF0125D8
:103BB000014630460BF092FCD7E700BFEC2B00200B
:103BC00010B504460BF054FB10B92046FFF75AFD20
:103BD00094F83400C0F3001010BD2DE9F3410746FE
:103BE0000E46FFF7EDFF0546002857D13846FFF790
:103BF00083FE0446FFF792FE8046FFF7E7FA844211
:103C000029D1B7F9324007F110016846FFF744FDAA
:103C1000BDF80020A3B2D21AADF80020BDF80220F2
:103C2000D21AADF80220BDF804201A44ADF80420E1
:103C3000BDF806203146134430466A46ADF80630DA
:103C40000BF0A6F88046B0B13846FFF74BFE0446AD
:103C5000A8B945460FE04046FFF7BFFA8442D0D0EE
:103C60004046FFF7C1FA8442CBD04046FFF7C3FA83
:103C70008442C6D00125284602B0BDE8F08104F197
:103C80001002314630460BF083F80028F3D020466E
:103C9000FFF796FF0028EED12046D6E70025EAE799
:103CA0001FB5044601910BF0E3FA0199034620B9D0
:103CB0000A4822460BF0E0FAFEE702A8FFF7ECFC08
:103CC00002A92046FFF789FF28B12046FFF726FE0C
:103CD00002A903F052F804B010BD00BF9E710100AC
:103CE00037B505460BF0C4FA034620B913482A46F7
:103CF0000BF0C2FAFEE7B5F9324005F11001684653
:103D0000FFF7CAFCBDF80020A3B2D21AADF800201C
:103D1000BDF80220D21AADF80220BDF804201A44E2
:103D2000ADF80420BDF80620694613442846ADF8D6
:103D30000630FFF7B5FF03B030BD00BF9E71010034
:103D400070B505460BF094FA034620B911482A468F
:103D50000BF092FAFEE72846FFF7C4FD061D044665
:103D600030460BF0B5FB854212D02046FFF7B8FF76
:103D70002A463146304601230BF020FCE3692A46EF
:103D80002046012198472046BDE87040FFF7A8BFB4
:103D900070BD00BF9E7101002DE9FF4104460E4633
:103DA00015460BF065FA034620B9224822460BF06F
:103DB00063FAFEE727682FB1398A7A8A0E441544E0
:103DC00036B22DB2218A628A711AAA1A95B21FFAE6
:103DD00081F812B258EA05030EB2019226D02046AD
:103DE000FFF77EFF02A92046FFF7DCFD238A019A38
:103DF00043442382638A2B446382A38A9844E38AE0
:103E0000A4F814801D4431462046E582FFF712FCD9
:103E1000E36902AA02212046984727B1FB6922469E
:103E20000121384698472046FFF75AFF04B0BDE805
:103E3000F08100BF9E71010038B504460D460BF0BD
:103E400017FA034620B9074822460BF015FAFEE799
:103E50002046FFF7D1FD294602462046BDE83840FE
:103E6000FFF79ABF9E71010038B504460D460BF06E
:103E7000FFF9034620B9074822460BF0FDF9FEE79B
:103E80002046FFF79FFD2A4601462046BDE8384000
:103E9000FFF782BF9E710100F7B504460846103057
:103EA00004F110011D4601AB9DF820600BF0BAF83B
:103EB0002046FFF717FDBDF80610BDF92820BDF814
:103EC0000470B0F91230008A0A44BDF92410394454
:103ED000091AD21A09B212B2ADF80410ADF80620D0
:103EE00045B120461EB1FFF757FF03B0F0BDFFF705
:103EF000A3FFFAE7002EF8D011462046FFF7B4FFE3
:103F0000F3E700002DE9FF411E46BDF92880044675
:103F10000D4617460BF0ACF9034620B91648224669
:103F20000BF0AAF9FEE71DB92046FFF7DBFC0546BA
:103F300028460BF09DF9034620B90F482A460BF09E
:103F40009BF9FEE701230093CDE901683A46294633
:103F50002046FFF7A1FF94F8493084F848706FF3CA
:103F60004103A4F84460A4F84680256484F84930ED
:103F700004B0BDE8F08100BF9E7101002DE9F04F53
:103F800085B081460193BDF9403003920D460293FE
:103F90009DF838B0BDF93CA0FFF714FD0446484633
:103FA000FFF72AFD80464846FFF740FD00EBD07042
:103FB00040F34F074846FFF747FD039A00EBD070E8
:103FC00040F34F06142A2CD8DFE802F00B26145ACF
:103FD000531D64475F26145A531D642647535A5F86
:103FE00064002846FFF722FD00EBD070C7EB6000AD
:103FF00004B234E02846FFF719FD00EBD070C7EBA0
:10400000600004B20AE02846FFF710FD00EBD07014
:10401000C7EB600004B22EE07C4224B273420FFA78
:1040200083F84846FFF75EFC6A8A029B13441A46EF
:10403000438A4244D21A019B12B2ABB3298A51443B
:104040002144048A091B09B24846BBF1000F26D05F
:1040500005B0BDE8F04FFFF79FBE7C4224B2284672
:10406000FFF7F2FC00EBD070C6EB60000FFA80F8AF
:10407000D7E77C4224B22846FFF7E6FC801BF5E731
:104080002846FFF7D3FCC01BBBE72846FFF7CEFC52
:10409000C01BADE72846FFF7C9FCC01BBAE705B057
:1040A000BDE8F04FFFF7C8BEBBF1000F06D01146C8
:1040B000484605B0BDE8F04FFFF7D6BE05B0BDE8F5
:1040C000F08F00002DE9FF411E46BDF9288004460F
:1040D0000D4617460BF0CCF8034620B91648224689
:1040E0000BF0CAF8FEE71DB92046FFF7FBFB0546BB
:1040F00028460BF0BDF8034620B90F482A460BF0BE
:10410000BBF8FEE701230093CDE901683A46294652
:104110002046FFF733FF94F8493084F8487043F0A5
:104120000203A4F84460A4F84680256484F849306A
:1041300004B0BDE8F08100BF9E71010037B50446B0
:104140000BF096F8034620B90C4822460BF094F881
:10415000FEE794F84950B4F94600216C94F84820E1
:10416000B4F9443000902046AC0703D5FFF7AAFF0E
:1041700003B030BDFFF7C6FEFAE700BF9E71010035
:1041800038B500210546FFF7F9FB044600B938BDF4
:104190002046FFF7A5FD0421E36900222046984749
:1041A0002046FFF79DFD2046FFF7EAFF21462846FF
:1041B000E9E710B504460BF05BF810B92046FFF7AD
:1041C00061FA002010BD00002DE9F7430D460646B8
:1041D00000286AD10AF0E0FA20B90024204603B092
:1041E000BDE8F08338300BF03CF904460BF040F8A2
:1041F000034620B9D14822460BF03EF8FEE7002CDA
:10420000EBD04C2120460BF05DFD94F83530A661D3
:1042100066F3461384F83530C94BE361C94B23621A
:10422000266130460AF0BEFA0138A08230460AF014
:10423000C9FA0138E0824C21201D0BF00AF9B4F8CC
:104240004820002322F4FF72F11A22F0010218BF65
:104250000121A4F8482040F6014242EA0122A18E41
:10426000236321F4FF5121F01F010A4304F12800C8
:10427000C4E91033A286A363A3876362019003F0AD
:104280008BF80198002D40F09B80002E00F0938069
:10429000022120460CF0E2F9F36922460121304662
:1042A00098472046FFF71CFD98E70AF0E1FF034618
:1042B00020B9A54832460AF0DFFFFEE7301D0BF0BB
:1042C000D0F804460AF0D4FF034620B99B482246A2
:1042D0000AF0D2FFFEE7002C3FF47FAF4C212046CE
:1042E0000BF0F0FC94F8353026606FF3461384F839
:1042F0003530934BE361934B23624FF00008B6F9DE
:1043000012306382C4F818804046778A0AF06AFA4D
:104310004FF0320900FB09F0EF282EDD40460AF08D
:1043200061FA502300FB0930A02390FBF3F080B228
:104330003844E0822046FFF73CFF012807461ED1A3
:10434000B6F91480A4F8148000200AF04BFA4FF05C
:10435000640900FB09F0EF281FFA88F809DD002046
:104360000AF040FA502300FB0937A02397FBF3F72C
:10437000BFB2A8EB070727825DE70120D8E7B6F9AF
:104380001070278200200AF02DFA4FF0640800FB1D
:1043900008F0EF28BFB20CDD00200AF023FA50230A
:1043A00000FB0830A02390FBF3F080B23844A082D9
:1043B00041E70120FAE7012120460CF04FF90DE713
:1043C00005F1280103F0ABFA04F1100005F110012A
:1043D000FFF762F9B5F93230638695F8303084F82A
:1043E000303095F8313084F8313095F8353094F824
:1043F0003520C3F3411363F3461284F8352095F852
:10440000483084F84830B5F94430A4F84430B5F960
:104410004630A4F846302B6C95F84920236494F874
:10442000493062F3000384F84930AB69A36195F821
:10443000343094F83420DB0963F3C71284F8342055
:1044400095F8342094F8343062F3000384F8343063
:1044500095F8343094F83420C3F3400363F34102F9
:1044600084F8342095F8353094F83520C3F382036E
:1044700063F3840284F8352095F8343094F83420BE
:10448000C3F3800363F3820284F8342095F8343058
:10449000D2B2C3F3C00363F3C30284F8342095F8A7
:1044A0003430D2B2C3F3001363F3041284F834201F
:1044B00095F83430D2B2C3F3401363F3451284F855
:1044C000342095F83430D2B2C3F3801363F38612EC
:1044D00084F8342095F83C3084F83C3095F8352049
:1044E00094F8353062F3000384F8353095F83530B0
:1044F00094F83520C3F3400363F3410284F8352078
:10450000A86B10B12146FEF729FF2846FFF7EAF90C
:1045100078B1002E3FF462AE2846FFF753FA0190BF
:104520002846FFF769FA019902462046FFF734FC56
:10453000B2E6002E7FF4B0AE50E600BF90710100ED
:10454000096600006D5700009E71010073B50446B6
:104550000D4616460AF08CFE034620B9294822462D
:104560000AF08AFEFEE72046FFF760FA854204D192
:104570002046FFF769FA864238D02046FFF7B0FBA5
:1045800069462046FFF70EFA628A013E1644E6822B
:104590002046FFF70EFE0128ADB20BBFA38A238A87
:1045A000C5F1010505F1FF350BBFED18ED182582AA
:1045B000A582E3696A460221204698472046FFF714
:1045C00091F918B1C369224601219847261D30464A
:1045D0000AF07EFF054658B92046FFF781FB94F8A4
:1045E0004930DB0702D52046FFF7A8FD02B070BDB9
:1045F000EB696A46032128469847294630460AF067
:104600006DFFE7E79E71010038B504460D460AF0DC
:104610002FFE034620B9074822460AF02DFEFEE78A
:104620002046FFF703FA2A4601462046BDE83840F7
:10463000FFF78CBF9E71010038B504460D460AF0A5
:1046400017FE10B92046FFF71DF894F83C301D42C4
:1046500014BF0120002038BD37B504460D460AF0CE
:1046600007FE034620B90C4822460AF005FEFEE785
:104670003F2D03D894F83D0003B030BD002301AABC
:10468000092120468DF804508DF80530FFF7EEF82B
:104690009DF80500F0E700BF9E7101002DE9F7438A
:1046A00005460E461746144642F307293DB924F441
:1046B000FE40293801288CBF0020012014E031463B
:1046C0002846FFF7CFF9314680462846FFF7C4FF5A
:1046D00007EB0024A4B201AA2146404603F008FAE1
:1046E000012804D19DF8040003B0BDE8F083B9F1BE
:1046F000000FDCDA1EB92846FFF7F4F8054600265D
:10470000D4E700002DE9F04F064685B08B461746EA
:104710004FEA1228154648F2820948F2830A002E11
:1047200000F0AE8059463046FFF79CF942791107F8
:10473000044614D401798B0611D012F0040F25F42D
:10474000FE4205D159463046019200F0E3F8019A45
:10475000332A68DC2F2A20DC182A61DC52BB594638
:104760003046FFF779FF07EB002085B20DF10E020E
:104770002946204603F07AF9012840F0A680BDF9C9
:104780000E0005B0BDE8F08FA2F154015C4B012290
:104790008A401A42E3D0A2798CE0313A022A7DD8CD
:1047A00001A353F822F000BFA14800009747000082
:1047B000A5480000013A172AD1D801A353F822F0E6
:1047C000AB4800006F4800005F47000077480000DA
:1047D0007748000077480000774800005F470000F6
:1047E0005F4700005F4700005F4700005F47000031
:1047F0005F4700005F4700005F470000BB480000C4
:10480000BB480000BB480000BB4800005F470000F9
:10481000BF480000BF480000BF480000BF4800007C
:10482000202AB8D09BE7722A0BDC532AACDC422A40
:10483000B1D0502A3DD0402A91D1E27912F0010F37
:104840000CE04A453FD00CDC912AA4D0A2F50042EE
:10485000803A012A83D8E27912F0200F3FF47FAF2B
:104860000EE0524597D048F2A0018A42D9E762791A
:1048700012F0400FF2E794F90520002ABFF66FAF5F
:1048800025F4FE45222DABB233D02BD8032B32D0EA
:10489000072B14BF00204FF4807072E7A279DBE78A
:1048A000A279E5E794F90620E7E7627912F0100FA4
:1048B000D4E7E27912F0040FD0E7A279BEE7A2793B
:1048C00012F0020FCAE7E279D2E718F0800FD7D0D2
:1048D000BBF1000F03D13046FFF704F806464FF056
:1048E000000B1CE7312B08D0C02B14BF0020102078
:1048F00047E7FF2045E7062043E70F2041E700BFD9
:104900000110004008B50222FFF7FCFE003818BF76
:10491000012008BDF8B5054610460E46FEF7FCFD21
:10492000002800F01F812846FFF79CF84379C3F365
:10493000C00743F008030446437148F20C023146B5
:10494000284600F0A7F9A0F1FF0CDCF10000637924
:1049500040EB0C0060F34513637148F2820231466C
:104960002846FFF7CFFEC0B2E379B0FA80F04009E5
:1049700060F38613E37148F28E023146284600F058
:10498000F3F9C34BE279A3EB000EDEF1000343EB36
:104990000E03DB0102F05F0243F020031343E371D7
:1049A00048F2800231462846FFF7ACFE002800F0AE
:1049B000DA80E3796FF34513E3712C223146284600
:1049C00000F068F9A0F1FF02B0FA80F053424FEA1C
:1049D00050105341C00040EA0310A37923F018039C
:1049E0001843A071302231462846FFF78BFEA37989
:1049F000B0FA80F0400960F34513A37131223146CB
:104A00002846FFF77FFEC0B2A0F10F014842A3790C
:104A1000484160F386133322A37131462846FFF7DD
:104A200071FEA379B0FA80F0400960F3C713A37157
:104A300031462846FFF766FF637980F0010060F396
:104A40008613637148F2AD023146284600F022F920
:104A5000E379B0FA80F0400960F30413E371402277
:104A600031462846FFF74EFEE379B0FA80F0400960
:104A700060F30003E3716E223146284600F074F9BA
:104A8000E379B0FA80F0400960F34103E371012259
:104A900031462846FFF736FE6379B0FA80F04009C8
:104AA00060F304136371502231462846FFF72AFE53
:104AB000E379B0FA80F0400960F38203E3717F226A
:104AC0003146284600F050F96368B0FA80F040099A
:104AD000C00623F0006340F4004023F40043184371
:104AE0006060062231462846FFF70CFE002844D0BD
:104AF00063796FF3C7136371A37943F00103A37163
:104B0000102231462846FFF7FDFD00284CD0A3793E
:104B10006FF30003A371A37943F00203A37115227D
:104B200031462846FFF7EEFD002853D0A3796FF3F6
:104B30004103A371A37943F00403A37120223146FA
:104B40002846FFF7DFFDC0B2002859D0A3796FF3E4
:104B50008203A3716379FF0047F0040723F00C037D
:104B60001F436771F8BD48F2810231462846FFF7BE
:104B7000C9FD00287FF41DAF1FE7042231462846F7
:104B8000FFF7C0FD0028B3D1052231462846FFF7C4
:104B9000B9FD0028ACD1072231462846FFF7B2FD07
:104BA000B0F5807FA4D1A7E7112231462846FFF750
:104BB000A9FD0028ABD1122231462846FFF7A2FDFD
:104BC0000028A4D1132231462846FFF79BFD002878
:104BD0009DD1A0E7162231462846FFF793FD002815
:104BE000A4D1172231462846FFF78CFD00289DD11D
:104BF000182231462846FFF785FD002896D199E70F
:104C0000322231462846FFF77DFDC0B200289DD1F3
:104C1000602231462846FFF775FDC0B2002895D1C5
:104C2000422231462846FFF76DFDC0B200288DD1E3
:104C3000722231462846FFF765FDC0B2002885D1B3
:104C400048F2830231462846FFF75CFDC0B20028D7
:104C50007FF47CAF912231462846FFF753FDC0B266
:104C600000287FF473AF48F2A00231462846FFF7D0
:104C700049FDC0B200287FF469AF5422314628466E
:104C8000FFF740FDC0B200287FF460AF62E700BFCD
:104C9000480000202DE9F04F054685B00F469046AC
:104CA0004FEA1229144648F20C0A48F2AD0B75B9C6
:104CB00024F4FE446D2CA0B253D048F2AD039842C8
:104CC0004FD02C3818BF4FF0FF30C0B236E0394615
:104CD0002846FEF7C7FE4379064618071DD43279E9
:104CE00091061AD013F0040F24F4FE4205D1394680
:104CF00028460192FFF70EFE019A524509D05A4507
:104D00001FD02C2A09D1B379DA0628D413F0080F62
:104D100002E0737913F0200FCAD139462846FFF715
:104D20009BFC08EB002084B20DF10F0221463046B7
:104D300002F01FFF012808D19DF80F0005B0BDE863
:104D4000F08FF37913F0100FE6E719F0800FAFD072
:104D50001FB92846FEF7C6FD05460027A7E7FF2036
:104D6000ECE70020EAE700002DE9F74F06468B4606
:104D70009046144648F28E0942F3072A16B3594664
:104D80003046FEF76FFE4379190707462CD40279A7
:104D9000920629D013F0040F24F4FE4504D12A46CC
:104DA00059463046FFF7B6FD7F2D07D04D4517D049
:104DB0006E2D19D1FB7913F0020F02E0FB7913F08D
:104DC000080F11D024F4FE44BE2CA3B22BD048F21D
:104DD0008E02934201D07E2B27D10BF0D1FC12E042
:104DE00097F90730002BEDDB59463046FFF734FCCE
:104DF00008EB0024A4B201AA2146384602F0FBFECB
:104E0000012803D1019803B0BDE8F08FBAF1000F7B
:104E1000D8DABBF1000F03D13046FEF763FD06463A
:104E20004FF0000BAAE70248EDE70020EBE700BFD8
:104E30002CA7010038B50468A5882068A17905F081
:104E40000F03082B2A460CD8FFF75CFC20810023B7
:104E5000A380A179206823462A46FEF715FEA58087
:104E600038BD0B2B03D8FFF719FC2072EFE70D2B91
:104E700002D8FFF70FFFF8E7FFF776FFA060E6E73D
:104E80002DE9F34105460026F1B228460191FEF7CF
:104E9000E9FD0446002856D04379C3F3C00743F028
:104EA00008034371019948F20C022846FFF7F2FE0D
:104EB000A0F1FF0358425841637960F345136371D1
:104EC000019948F282022846FFF71CFCC0B2E37940
:104ED000B0FA80F0400960F38613E371019948F25B
:104EE0008E022846FFF740FF80460BF049FCA8EBF6
:104EF00000025042E379504160F3C713E371019916
:104F000048F2AD022846FFF7C5FEB0FA80F0E3791B
:104F100001994009000123F0300340F020001843BC
:104F2000E07148F280022846FFF7ECFB019998B146
:104F3000E3796FF34513E3716379013667F3C303D4
:104F4000402E6371A0D100212846FEF717FD0446CC
:104F500050B902B0BDE8F08148F281022846FFF75F
:104F6000D1FB0028E4D1E7E72046FFF789FF21467F
:104F7000EAE738B505460024E1B22846FEF772FD9F
:104F800060B9402421462846FEF76CFD70B9002127
:104F90002846FEF7F3FC044688B938BD437901344E
:104FA0006FF38203402C4371E6D1EAE74379013481
:104FB000E4B26FF38203FF2C4371E3D1E7E72046AD
:104FC000FFF75EFF2146E3E738B5054614460AF0D1
:104FD0004FF9034620B943482A460AF04DF9FEE747
:104FE0002046FEF799FA10B12846FFF7C2FF7F2C42
:104FF00057D86F2C1BD85C2C49D83F2C3ED8072C97
:105000004AD8012C43D92846FEF76AFEEB690022F4
:10501000042128469847182C54D8142C54D92868B1
:10502000002851D0C3690022012198474CE0A4F127
:1050300070030F2B2BD801A252F823F00750000069
:10504000075000008F50000007500000075000007C
:10505000075000008F5000008F5000008F5000005C
:105060008F5000008F5000008F500000075000004C
:105070008F5000000750000007500000A4F14002CC
:1050800093B201229A40184B1340002BBBD1284603
:10509000BDE83840FEF724BEA4F11003082BF6D873
:1050A000B1E748F281039C4208D848F27F039C4252
:1050B000A9D8902CA7D0FF2CE9D1A4E748F28E0301
:1050C0009C42F9E7FF2CAAD02846FEF709FEFF2CE8
:1050D00001D0230404D52846BDE83840FFF750B876
:1050E00038BD00BF9E71010003100F1038B5044693
:1050F0000D46FEF703FD29462046FF22BDE8384055
:10510000FFF762BFF7B506460D460024E1B2284618
:105110000191FEF7A7FC28B30279019902F03F0E36
:105120004FF0000C72465FFA8CF39E4517D98788C2
:1051300007F4C077B7F5C07F04BF0133DBB2CAB153
:105140009E4517D9076857F823309E4203D00CF1CB
:10515000010C002EE7D1FF222846FFF735FF01346E
:10516000402CD3D100212846FEF708FC044618B98C
:1051700003B0F0BD0023E8E721463046FFF7C2FF49
:105180002146F0E7F8B50646002009F05FFB04462B
:1051900000B9F8BD04F1380738460AF099F9054618
:1051A00008B92046F1E729463046FFF7ABFF29460C
:1051B00038460AF093F9F2E738B504460D4681798E
:1051C0000068FEF74FFC02F076FBA18801F00F03A8
:1051D000082B17D855B9B4F9082002F006FAA288AE
:1051E000A1792068BDE83840FFF7EEBEFF2DB4F985
:1051F0000C20F2D0B4F90830D21A554303EB252520
:105200002AB2EAE70B2B0ED8002D03DC227A02F03B
:1052100030FAE4E7FE2D227BF9DC237A15F0800FCB
:1052200008BF1A46F3E70D2B0FD8002D03DC227AB6
:1052300002F063FAD3E7FE2D227BF9DC237AD21A3F
:10524000554303EB2525EAB2F2E77F2DD4BFA268D0
:10525000E26802F098FAC2E710B504460AF008F8CE
:10526000034620B9034822460AF006F8FEE7E06943
:1052700010BD00BF9E71010010B5044609F0F8FF93
:10528000034620B90348224609F0F6FFFEE7606AAC
:1052900010BD00BF9E71010010B5044609F0E8FF83
:1052A00010B92046FEF7EEF9A06B10BDF7B5044625
:1052B00000221521FEF7AEFA2046FFF7EDFF074664
:1052C00010B12046FEF780F8251D28460AF000F9A7
:1052D000034668BB01460190204609F091FCFF227D
:1052E000019B11462046FEF7CFFB254B1E6801238C
:1052F00016BB304609F04AFB054618BB024601467C
:10530000E369204698472046FEF7ECFAA8BB204602
:10531000FEF704FB214638300AF017F9606A08B13D
:105320000AF088FA204603B0BDE8F0400AF082BADD
:105330001846FFF7BBFFC8E73268944208BF3371D5
:10534000B668D5E76B6BA34202D0AB6BA34203D127
:1053500021462846FEF788F8EB6BA342AB6D08BFE9
:10536000EE63BB4207D1FEF7D1F8844203D1214658
:105370002846FEF779F82846BCE721460430CBE7FB
:10538000D8280020F8B5044609F072FF034620B97A
:105390001348224609F070FFFEE72046FEF7A0FC06
:1053A0002046FEF79FFA0646B0B92046FEF7B6FA49
:1053B000054678B1476C3B1B5F425F412046FFF7D3
:1053C00075FF26B1F36900220121304698470FB1DD
:1053D00000236B640020F8BD00273D46EEE700BFC8
:1053E0009E71010010B5044609F042FF10B9204635
:1053F000FEF748F9A06B20B1FEF725F8231A5842B2
:10540000584110BD07B5028A90F83030D21AADF875
:105410000020828A1344ADF80430428A90F831307B
:10542000D21AADF80220C28A684613440022ADF8B1
:10543000063009F0F9FC03B05DF804FB10B5002359
:1054400050F82340DAB21CB10133072BF8D11A46C9
:1054500040F82210012010BDF8B51446012205467F
:105460000E46FFF74FF948F20C02208031462846DD
:10547000FFF710FC0228074609D80023A372A37483
:1054800084F8263084F8313084F84030F8BDA37AAF
:105490006BB32C2231462846FFF7FCFB0228A07292
:1054A00025D9292231462846FFF7F8F82322A07093
:1054B00031462846FFF726F9C0B2207188B12A226A
:1054C00031462846FFF7EAF82122E07031462846A7
:1054D000FFF718F92222E08031462846FFF712F93B
:1054E0002081202231462846FFF70CF9E072302255
:1054F00031462846FFF706F9E081E0B1A37CD3B13D
:105500003C2231462846FFF7C5FB0228A0740CD97F
:10551000312231462846FFF7F5F8C0B22082392201
:1055200031462846FFF7BAF8207332223146284622
:10553000FFF7E8F8E074402231462846FFF7E2F82A
:10554000E082D8B1A37ECBB14C2231462846FFF78A
:10555000A1FB0228A0760BD9412231462846FFF74D
:10556000D1F84922208331462846FFF797F8607525
:10557000422231462846FFF7C5F8E0766E223146D2
:105580002846FFF7F1FBA062D8B394F83130C3B3DB
:105590006C2231462846FFF77DFB022884F8310053
:1055A0002FD96D2231462846FFF774FB612284F81B
:1055B000320031462846FFF7A5F894F8333000381A
:1055C00018BF012060F3000384F83330A06A03F0B1
:1055D00087FD022840F0BD80692231462846FFF74A
:1055E0005DF848F28E0284F8300031462846FFF715
:1055F000BBFBE062602231462846FFF783F884F85F
:105600003400502231462846FFF77CF8E08358B337
:1056100094F82630022B27D95C2231462846FFF722
:1056200039FB022884F826001ED95122314628462B
:10563000FFF768F85222208431462846FFF762F8C7
:105640005322608431462846FFF75CF85922A08433
:1056500031462846FFF722F8542220773146284663
:10566000FFF750F884F827007F2231462846FFF7DD
:105670007BFBA063002843D094F84030022B3FD935
:105680007C2231462846FFF705FB022884F84000BB
:1056900036D9732231462846FFF734F87422A4F82D
:1056A000420031462846FFF72DF87922A4F844003D
:1056B00031462846FEF7F2FF7E2284F8410031464B
:1056C0002846FFF751FB7022E06331462846FFF77A
:1056D00019F87122A4F8460031462846FFF712F85F
:1056E0007522A4F8480031462846FFF70BF87222CD
:1056F00084F84A0031462846FFF704F884F84B0046
:10570000FC2F3FF6C3AEA37AB8B213FB00F3C3F38A
:105710000723A372A37C13FB00F3C3F30723A37433
:1057200094F8263013FB00F3C3F3072384F82630E4
:1057300094F8313013FB00F3C3F3072384F83130BE
:1057400094F8403013FB00F0C0F3072084F84000C9
:105750009CE694F83230022B7FF64CAF692231463A
:105760002846FEF79BFF84F8300043E72DE9F04719
:10577000022A98B004460F4615465DD10021FFF776
:10578000C1F88046002855D1014601222046FEF787
:10579000B9FF0422814641462046FEF7B3FF0522A9
:1057A000064641462046FEF7ADFF04F11001824651
:1057B00005A8FDF771FFBDF81800BDF81420B3B2BD
:1057C000D21A0344ADF81830BDF81630ADF81420E5
:1057D0001FFA8AF01B1AADF81630BDF81A301844BB
:1057E000ADF81A004A4605A9384609F0D2FBE8B1DF
:1057F0002C2241462046FFF74DFAFC2816D9414697
:1058000020222046FEF77EFF10F0FF010ED132224B
:105810002046FEF777FF10F0FF0107D148F20C0297
:105820002046FFF737FAFC2888BF0125284618B024
:10583000BDE8F0870325F9E7002A7BD105A805F02C
:1058400039FF332229462046FEF75CFF28B19DF838
:10585000283043F001038DF8283005AA00212046A6
:10586000FFF7FAFD042200212046FEF74BFF052238
:10587000064600212046FEF745FF04F11008814648
:10588000414601A8FDF708FFBDF80800BDF8042057
:10589000B3B2D21A0344ADF80830BDF80630ADF803
:1058A00004201FFA89F01B1AADF80630BDF80A3043
:1058B0001844ADF80A00394601A805AA05F018FFFA
:1058C00000212046FFF71EF80028AFD01C200AF068
:1058D0005BF90122064600212046FEF713FF9DF8E2
:1058E0002830DB07024622D59DF82630012B1ED931
:1058F000BDF92230002B1ADD238A0133ADF80C30BC
:10590000638A0133ADF80E30A38A013BADF8103045
:10591000E38A013BADF8123003A90023304605F0BD
:1059200053FB04F51871304605F05CFA7EE700235E
:105930004146F3E7012A01D0002577E70021FEF771
:10594000E1FF28B104F5187005F098FA09F0B2FFEC
:10595000332200212046FEF7D5FE0028ECD000259A
:1059600005A805F0A7FE05AA294620468DF81E5079
:105970008DF845508DF83A508DF85450FFF76CFD76
:10598000294604222046FEF7BDFE05228046294610
:105990002046FEF7B7FE04F11001064603A8FDF706
:1059A0007BFEBDF80C30BDF80E201FFA88F01B1AE4
:1059B000ADF80C30BDF810301844ADF81000B3B29B
:1059C000BDF81200D21AADF80E20034405AA3946DC
:1059D00003A8ADF8123005F08BFE27E770B514462A
:1059E00048F28C0205460E46FFF754F90228207251
:1059F00050D948F20C0231462846FFF74BF9FC28F3
:105A00009FBF237A13FB00F0C0F307202072237A94
:105A1000022B3FD948F2890231462846FEF73EFE66
:105A200048F28002207031462846FEF76BFE48F2AD
:105A30008102A08131462846FEF764FE48F28202C8
:105A4000608131462846FEF75DFE48F28302A0776A
:105A500031462846FEF756FE48F28E02E077314680
:105A60002846FFF781F9226960604FF6FF739A427A
:105A700010D062699A420DD048F28A023146284617
:105A8000FEF70CFE48F28B02607031462846FEF7A6
:105A900005FEA07070BD70B5144648F2AC02054614
:105AA0000E46FFF7F7F8022820703FD948F20C02A3
:105AB00031462846FFF7EEF8FC289FBF237813FBFA
:105AC00000F0C0F3072020702378022B2ED900238A
:105AD00063804FF480732381AB8A2A8A01339B1A37
