:10000000C8CF00202DA7010047AC000083AF00003F
:100010008BAF000093AF000087D20000000000000B
:10002000000000000000000000000000F3DB000002
:100030006FFF0000000000009F1701009B200100DF
:1000400007210100F322010055740100177401001B
:100050001D740100374D0100034E0100A74E010041
:100060004F4F01007F51010023530100C353010092
:10007000F35301002F5501006B5501008F5501000E
:10008000735601005B930100BB5801000759010042
:100090009F7B0100B77C01005FA00100A9A60100C1
:1000A000EFA60100FBA6010097A70100A1A7010090
:1000B000A3A70100A5A701000000000000000000A8
:1000C000A7A70100A9A70100ABA70100ADA70100E8
:1000D000AFA70100B1A70100B3A701000000000015
:1000E0000000000000000000000000000000000010
:1000F0000000000000000000000000000000000000
:1001000000000000000000000000000000000000EF
:1001100000000000000000000000000000000000DF
:1001200000000000000000000000000000000000CF
:1001300000000000000000000000000000000000BF
:1001400000000000000000000000000000000000AF
:10015000000000000000000000000000000000009F
:10016000000000000000000000000000000000008F
:10017000000000000000000000000000000000007F
:10018000000000000000000000000000000000006F
:10019000000000000000000000000000000000005F
:1001A000000000000000000000000000000000004F
:1001B000000000000000000000000000000000003F
:1001C000000000000000000000000000000000002F
:1001D000000000000000000000000000000000001F
:1001E000000000000000000000000000000000000F
:1001F00000000000000000000000000000000000FF
:100200000EA0D90D90C80C80B70A60110B80D91FC1
:100210000991F0881F0880F088000000000D203C44
:1002200000000F0069002FFFFFFFF7015C11A6100F
:10023000006900C300008800D2009FFFFFFFF0129A
:10024000C523E22000D203C00000F004B00000008B
:10025000700000000E00000000E0000019EFEA301E
:100260000CD6E6A702F40E00001F80E000006FEF3E
:1002700050000016FFE500000E0AF00100E05F13D9
:10028000F85E6EB005CFFE9100000E000000007019
:10029000000008DD3000A7004B02D004C00077004A
:1002A000D01D20004B03D0A7000007DC34C4CC30A5
:1002B00000001D2D22D00000A63B00B30005C03A6F
:1002C00000A3001D200D00D000A60004CC40004D6E
:1002D000FC300000F718C00001F205D00000BB6E32
:1002E0004000005FF3000007E6DB03802F301DBAFB
:1002F000A05F0001DF401FB448FEC003BFFC40B256
:1003000000000000001F01F01F00F0000003F10BCF
:10031000900F404F007D009B00AA00AA009B007D2B
:10032000004F000F400B9003F15E000E6008C00408
:10033000F001F300F500E600E600F501F304F00833
:10034000C00E605E0000930088A6C209FE404DDD2D
:10035000B1429350005200000450000008A0000079
:1003600008A0001FFFFFF30339B3300008A000000E
:1003700008A0000103F61E60E12C00000003FFF955
:100380000333100003F52E4000000E400004E0008F
:10039000009A00000E400004F000009A00000E4099
:1003A0000003F000009A00000E500003F000009AD5
:1003B00000000E500003F00000004CFE70004FB62D
:1003C0008F900DB0005F32F40000E74F20000CA4C6
:1003D000F20000CA2F40000E70DB0005F204FB683B
:1003E000F90004CFE700EFFB44CB00AB00AB00AB60
:1003F00000AB00AB00AB00AB00AB07DFEA108E85B3
:100400007EC0010006F1000006F000000D90000023
:10041000CC00001CC00001DB00001DE544427FFF52
:10042000FFF97FFFFFF024445F900000BC0000094B
:10043000E100003FD81000046DD0000002F410006D
:1004400002F4BD757DD019DFEA1000000DA0000098
:1004500000AC00000007E10000004F40100002F671
:1004600000F5001DA000F5007FFFFFFFF3133333FD
:10047000F730000000F500000000F50009FFFFF074
:100480000AB444400C8000000E7000000FFFFC40D6
:1004900003345CF2000000F7100000F78E856CF169
:1004A00008DFFB30002AEFD5003FD657400CC000D4
:1004B0000002F40000004F5BFFA104FE845DD03F0A
:1004C00080003F30E80003F206F845DC0005DFE974
:1004D000109FFFFFFD9D4444E99C0004F200000BC7
:1004E000B000002F400000AD000001F6000008E061
:1004F00000000E8000006F1000019EFE9100BE63A0
:100500006EC00F60006F00CC202BC002EFFFE20036
:10051000DC424CD05F20001F55F20002F50ED535AD
:10052000DE001AEFEA1003BFEA202FA44BE18E0091
:1005300000E99D0000DD4F7129FF07FFFC9E0002CE
:1005400010AC000002F607658FB00AEFD7002E53FB
:10055000F50000000000003F52E42E53F5000000BB
:100560000000002E52F60D21D001000000003100E5
:10057000006CF2018ED6000FC300000AFB400000A1
:1005800017EE70000005C3000000001FFFFFF3031B
:1005900033333000000000000000001FFFFFF303B2
:1005A000333330040000000ED71000005CF9200047
:1005B000002AF20003AFB106DE82001C60000000DA
:1005C00000000007DFEA109E746EC0010006F00014
:1005D0000009C000008E200006F200000870000034
:1005E000000000000B8000000C900000006CEFDAAF
:1005F0004000003DA41016D90001E509EE98CA900C
:100600000A80BD43AFC0D30F13F2000CC0693C0693
:10061000D00007C03B4B06D00007C02C3C03F200C3
:100620000CC04A0F10BD439EE3C50A8009EE91CF6E
:100630009001E50000000000003DA410280000002B
:10064000007CEFD9100000000CF1000000003FD743
:1006500000000000B96E00000002F20E5000000918
:10066000A007D000001F3000F400007FFFFFFB0058
:1006700000E733334F2005F000000C900C90000091
:1006800006F18FFFFEC408E3334BF28E00001F58C3
:10069000E00018F18FFFFFF808E33337F68E000013
:1006A00009C8E000009D8E33347F78FFFFFD7000A5
:1006B00007CFFB4000CF966AF50AE20000301F60CA
:1006C0000000004F200000004F200000001F6000CD
:1006D00000000AE200003001CF966AF50007DFFB58
:1006E000408FFFFEA4008E4446CF708E000007F3BB
:1006F0008E000000DA8E0000009D8E0000009D8EAE
:10070000000000DA8E000007F38E4446BF708FFFB2
:10071000FEA4008FFFFFF68E4444418E0000008E41
:100720000000008FFFFFC08E3333208E0000008E4C
:100730000000008E4444428FFFFFF98FFFFFF68ECA
:100740004444418E0000008E0000008E0000008FA7
:10075000FFFFC08E3333208E0000008E0000008E1D
:100760000000000007CFFC5000CF966AF60AE200B6
:1007700000201F600000004F200000004F200000FC
:10078000B91F600000B90AE30000B900CF966AF80B
:100790000007DFFC608E000008E8E000008E8E009D
:1007A0000008E8E000008E8FFFFFFFE8E333339E90
:1007B0008E000008E8E000008E8E000008E8E000EF
:1007C000008E8E8E8E8E8E8E8E8E8E8E02FFFFC04F
:1007D0000444BC000009C000009C000009C00000E7
:1007E0009C000009C02000BA0EB58F603CFE808ED0
:1007F00000004F508E0004F6008E003F70008E0304
:10080000F800008E2EC000008EECF600008FB07F46
:1008100030008E000AE1008E0000CC008E00001E29
:10082000A08E0000008E0000008E0000008E0000F0
:10083000008E0000008E0000008E0000008E000080
:10084000008E4444408FFFFFF28E00000008E8F75E
:10085000000002FE8FF10000BFE8DCA0004F9E8D7B
:100860002F300D87E8D09C06E07E8D01E7E507E894
:10087000D006FC007E8D000A2007E8D00000007E34
:100880008E100008E8FC00008E8FF90008E8E6F6FC
:10089000008E8E09F308E8E00CE18E8E001EB8E8A9
:1008A000E0003FEE8E00006FE8E00000AE0007CFF2
:1008B000EB500000CF966BF9000AE200005F601F6A
:1008C0006000000AD04F20000006F04F2000000614
:1008D000F01F6000000AD00AE200005F6000CF96BF
:1008E0006BFA000007DFEB50008FFFFD7008E44556
:1008F0008FB08E00005F38E00001F58E00003F48A9
:10090000E0014DD08FFFFFB208E33310008E0000EE
:100910000008E00000000007CFEB500000CF966B0E
:10092000F9000AE200005F601F6000000AD04F205B
:10093000000006F04F20000005F01F6000000AD004
:100940000AE200005F6001DF855AFA000008DFFC60
:100950005000000001EC21940000001BFFC10000CA
:10096000000012008FFFFD7008E4458FB08E00007C
:100970005F38E00001F58E00003F38E0014DD08F78
:10098000FFFFC208E333DA008E0002F608E000053C
:10099000F3019EFDA200CE646B702F40000001F8B1
:1009A00000000006FD950000016AEE500000009F67
:1009B00000200005F13FA547EB004BEFE910FFFFDA
:1009C000FFFF2444BD44400009C00000009C00001B
:1009D0000009C00000009C00000009C00000009C4D
:1009E00000000009C00000009C00009C00000BA952
:1009F000C00000BA9C00000BA9C00000BA9C000017
:100A00000BA9C00000BA8E00000D94F40003F50C91
:100A1000F868FD0009EFE9100CB000000AC05F2083
:100A20000001F500E900008E0008F0000E70001FC4
:100A30006005F10000AD00C9000003F43F30000084
:100A40000CBAC00000005FF500000000EE00006F6F
:100A500010000DB00002F21F60003FF10008D00B43
:100A6000B0008BE6000D7006F000E69B002F200121
:100A7000F503F14F108D0000CA09B00E60D80000D8
:100A80006F0E6009B2F300001F9F1004F9D0000040
:100A90000CFB0000EF80000007F600009F30003FD5
:100AA00050000DA008F2009D0000CC04F300002FC0
:100AB0009E70000006FC00000009FE1000004F4D73
:100AC000B00001E802F7000BD0007F207F20000B70
:100AD000D00CB000009C002F50002F30009E000C66
:100AE000900000E805F1000005F3E60000000CFDB1
:100AF000000000003F4000000002F3000000002F53
:100B00003000000002F300004FFFFFFF9144444A11
:100B1000F3000003F6000001EA000000CC00000032
:100B20009E1000006F4000003F7000001ED444443F
:100B300036FFFFFFFC8FF68D318D008D008D008D0F
:100B4000008D008D008D008D008D008D008D318F0A
:100B5000F65D000000F200000B8000006D00000157
:100B6000F200000B8000006D000001F200000B702D
:100B700000006D000001F200000B7000006D00002D
:100B800001F2BFF325F302F302F302F302F302F3DF
:100B900002F302F302F302F302F325F3BFF300AD15
:100BA00000001EC4000885A000E20E105B00970B39
:100BB0005002E0EEEEEEE00BC00009B004CFEA1008
:100BC0000B745DB0000004F004CEEEF21F8214F24C
:100BD0004F1004F21F703DF204DFD7F2BA0000009C
:100BE000BA000000BA000000BA8EFC30BFD54BF34B
:100BF000BE1000CABA00007EBA00007EBE1000CA55
:100C0000BFD55BF3B98EFC30007DFD6009F748F479
:100C10002F5000205F0000005F0000002F500020D8
:100C200009F748F4007DFD600000001F400000014E
:100C3000F40000001F4008EFC4F40AF748FF42F533
:100C40000007F45F00002F45F00001F42F50006F03
:100C500040AE637EF4008EFC4F40008EFC400AD50F
:100C600038F42F20008C5FEEEEFF5F2111112F7002
:100C7000001009F846E4007DFE80009EE305F44183
:100C800008C000CFFFF029D32008D00008D000080A
:100C9000D00008D00008D00008D000007EFC4E60D4
:100CA000AF747FF62F50005F65F00000F65F000024
:100CB0000F62F60006F609F747FF5007EFC4F5008C
:100CC00000003F20CB646EB003AEFD8000BA000090
:100CD00000BA000000BA000000BA8EFB20BFC56D4C
:100CE000D0BE0003F2BA0000F4BA0000F5BA00006A
:100CF000F5BA0000F5BA0000F5BAA800BABABABA57
:100D0000BABABABA000AB0009900000000AB000AF3
:100D1000B000AB000AB000AB000AB000AB000AB0F4
:100D200000AA064E71DFA0BA000000BA000000BAA7
:100D3000000000BA001CC0BA01CC00BA1CD100BB34
:100D4000CF6000BFDBE100BD11DC00BA003F70BA2C
:100D50000007F3BABABABABABABABABABABAB99E44
:100D6000FA15DFD40BFB45EDE64AF2BE0006F600AD
:100D70000E7BA0004F2000C9BA0003F1000C9BA01D
:100D8000003F1000C9BA0003F1000C9BA0003F1007
:100D900000C9B99EFB20BFB45DD0BE0003F2BA000B
:100DA00000F4BA0000F5BA0000F5BA0000F5BA0088
:100DB00000F5007DFD60009F748F702F50007F054F
:100DC000F00001F35F00002F32F50007F009F7484B
:100DD000F70007DFD600B98EFC30BFC43AF3BE106F
:100DE00000CABA00007EBA00007EBE1000CABFD59D
:100DF0005BF3BA7EFC30BA000000BA000000BA0013
:100E00000000008EFC3F40AF748EF42F50007F45F1
:100E1000F00001F45F00002F42F50007F40AF748E4
:100E2000FF4008EFC4F40000001F40000001F40080
:100E300000001F40B98E4BFD71BE100BB000BA0010
:100E40000BA000BA000BA00005DFEA13F735A06F76
:100E5000000001EE9610016AEF300000D96C646F5B
:100E600062AEFD7008D00008D000CFFFF029D3207B
:100E700008D00008D00008D00008D00005F55100C7
:100E80009FE3C80002F3C80002F3C80002F3C800E1
:100E900002F3C90003F3AB0007F35F837EF306DFC1
:100EA000C5F30D90000AA06E0001F300F5007D006F
:100EB00009C00E60003F24F00000C8B9000006FF22
:100EC0003000000FC000C80006F1000D56D000CF62
:100ED0006003F01F302F9C009A00B807B2F10E405B
:100EE00005E0D60C74E0000F6F007C990000AFA005
:100EF00001FF400005F4000BE0004F3007E109D08E
:100F00002F4000D9D900003FD000004FE10001E799
:100F1000BB000BB01E707E1005F30D90000AA06F91
:100F20000001F300F6007D0009C00D60002F34F0D1
:100F30000000C9A9000005FF2000000EC00000004D
:100F4000E5000094AD00001BFC2000005FFFFFA146
:100F50003337F40001E70000CB00008E10004F4053
:100F6000001EA33326FFFFFC006EA00F9201F400C9
:100F70001F4001F4003F303FC0006F3001F4001FFC
:100F80004001F4001F4000FA2005EA8B8B8B8B8B0D
:100F90008B8B8B8B8B8B8B8B8BBE5002AE0005F0BB
:100FA000005F0005F0004F1000DF104F5005F0000B
:100FB0005F0005F0005F002AE00BE40007EC40B49E
:100FC0001E25DFC00100000004CC302B01C05700FB
:100FD000932B01C005CC3006A10FF60BE2000000F8
:100FE000000000000000000000027BFB0000000485
:100FF0009DFFFFD00003AFFFFFFFFD0000AFFFFF2D
:10100000FFDFD0000AFFFFB610ED0000AF94000034
:101010000ED0000AF1000000ED0000AF1000000E3D
:10102000D0000AF1000045FD0000AF1001EFFFD035
:10103000179DF1005FFFFC0EFFFF1000AFFD31FFB9
:10104000FFE00000010003BDA300000000005018F5
:101050008888888405FABFDDDDDDFDAFE47F100000
:1010600000CA4EE04F100000C80EFEEF100000CF87
:10107000EFE03FEEEEEEF80EF68F766666EB6FF879
:10108000AF100000CC8FE03F100000C80EFCDF6501
:101090005555EECFC25FFFFFFFF92C5775057777E7
:1010A0007775FFFF1FFFFFFFFFFFFF2FFFFFFFFF12
:1010B000EFFF0EFFFFFFFE01100011111110EFFEF8
:1010C0000EFFFFFFFEFFFF2FFFFFFFFFFFFF1FFFD2
:1010D000FFFFFF6887078888888668870788888871
:1010E00086FFFF1FFFFFFFFFFFFF2FFFFFFFFFDF59
:1010F000FD0DFFFFFFFD000000000001500000009B
:1011000000001DF80000000001DFFD000000001DD0
:10111000FFE22D600001DFFE20DFF7001DFFE2008F
:101120008FFF71DFFE200008FFFEFFE20000008F4E
:10113000FFFE2000000008FFE200000000007D200C
:1011400000000000000000007F60000BE2EFF600EE
:10115000BFF84FFF6BFFD104FFFFFD10005FFFE101
:101160000000BFFFF6000BFFDFFF60BFFD14FFF5BF
:10117000CFD1004FF61710000360000000110000EF
:1011800000000000FF000000006F21FF12F70006C2
:10119000FF61FF16FF601FF901FF109FF16FE00173
:1011A000FF100EF6AF8001FF1008FACF6001FF10AC
:1011B00006FCAF8000AA0008FB7FD00000000DF7FE
:1011C0001FF80000008FF107FF91002AFF70009FB9
:1011D000FFEEFFF9000005CFFFFD500000000244C4
:1011E0002000000000000000000000000AFFA00036
:1011F0000000000CFFC0000003D6DFFFFD6D300EC5
:10120000FFFFFFFFFFE05FFFFFAAFFFFF51AFFF4FC
:10121000004FFFA103FFD0000DFF3004FFF0000FCF
:10122000FF404FFFFB22BFFFF42FFFFFFFFFFFF246
:1012300009FEFFFFFFEF9000505EFFE50500000094
:101240000CFFC00000000004774000000000000315
:10125000100341000000009FF50DF50000001BFD8C
:10126000FF8DF5000002DFB12DFFF500004FF83EC5
:10127000C2BFF50007FF55FFFE39FE409FE38FFF19
:10128000FFF56FF6AC2AFFFFFFFF73E6005FFFFF7D
:10129000FFFFF100006FFFD77FFFF200006FFF90AC
:1012A0000DFFF200006FFF900DFFF200004FFF7086
:1012B0000BFFE1000000003300000000000BFFB056
:1012C000000000000CFFC0000000000CFFC0000088
:1012D00000000CFFC0000000000CFFC00000008FE9
:1012E000FFFFFFF800002EFFFFFFE2000002EFFF0C
:1012F000FE200000002DFFE20000799982DE28998F
:1013000097FFFFFB22BFFFFFFFFFFFFFFFFFFFFF76
:10131000FFFFFFFAB3CFACCCCCCCCCCCCA0006BB21
:10132000BBBBBA3000004FFFFFFFFFE10000EF3012
:10133000000006FB0009F800000000CF504FD0006D
:101340000000002FE1DF84420000344BF9FFFFFD75
:101350000001FFFFFBFFFFFF988BFFFFFCFFFFFF7C
:10136000FFFFFFFFFCFFFFFFFFFFFFFFFB9FFFFFF4
:10137000FFFFFFFFF60000000000003300018DFFBB
:10138000C600EF004EFFFFFFE4DF04FFB3004CFF99
:10139000FF0EF90000008FFF6FC00001FFFFFF8EFE
:1013A000500001DEEEED00000000000000222222CD
:1013B00000000021FFFFFF100008F8FFFBBC100039
:1013C0001EF4FFFC100001DFC0FEEFE8448EFE10AB
:1013D000FE1AFFFFFFC100FD0028BB9400000000C3
:1013E00002700002EF0002EFFDFFFFFFFFFFFFFFB3
:1013F000FFFFFFFFFFFFFFFFFFFF3447FFF0000588
:10140000FF000005C00000000000027000000002A4
:10141000EF00000002EFF0000DFFFFFF0220FFFFD2
:10142000FFF08E1FFFFFFF00E7FFFFFFF03F5FFFB2
:10143000FFFF08903447FFF000000005FF000000A8
:101440000005C000000000000000000000000007D0
:101450007000000002700005FA0000002EF000810C
:101460004F600002EFF001DD07F0DFFFFFF0321EFA
:1014700080F6FFFFFFF08E27E0B9FFFFFFF00E734D
:10148000F19BFFFFFFF03F54F09AFFFFFFF0890A46
:10149000C0D83447FFF0007F43F300005FF002F64E
:1014A0000CB0000005C00000BF10000000000009E3
:1014B000E300000000000002100037888888888858
:1014C00073EFFFFFFFFFFFFEFE32DFFFFFFFFFF9BD
:1014D000007FFFFDFFFFFD10CFFFA07FFFFFFFFF9D
:1014E000FA0007FFFFF35FA00000CFFF300300000A
:1014F00000CFFC0000000000CFFFCCCCCCCCCCFF58
:10150000AFFFFFFFFFFFF904300000311FE00006CE
:10151000F91FE0007FFA1FE009FFFA1FE0AFFFFAB2
:101520001FEBFFFFFA1FFFFFFFFA1FFFFFFFFA1F6E
:10153000E6FFFFFA1FE05FFFFA1FE004FFFA1FE07B
:10154000003EFA0FD00002D70000000000020000A9
:101550000000000CFB2000000000FFFF90000000D6
:101560000FFFFFE6000000FFFFFFFC30000FFFFF52
:10157000FFFF9100FFFFFFFFFFE60FFFFFFFFFFFF1
:10158000F2FFFFFFFFFFFD0FFFFFFFFFF800FFFF70
:10159000FFFFB2000FFFFFFD400000FFFFF700005C
:1015A000000FFFA1000000006A40000000000014CE
:1015B00044200144420DFFFF10DFFFF1FFFFF30F56
:1015C000FFFF3FFFFF40FFFFF4FFFFF40FFFFF4F60
:1015D000FFFF40FFFFF4FFFFF40FFFFF4FFFFF404F
:1015E000FFFFF4FFFFF40FFFFF4FFFFF40FFFFF48B
:1015F000FFFFF40FFFFF4FFFFF30FFFFF39FFFC020
:1016000009FFFC001444444444420DFFFFFFFFFF68
:10161000F1FFFFFFFFFFFF3FFFFFFFFFFFF4FFFFB3
:10162000FFFFFFFF4FFFFFFFFFFFF4FFFFFFFFFF85
:10163000FF4FFFFFFFFFFFF4FFFFFFFFFFFF4FFF25
:10164000FFFFFFFFF4FFFFFFFFFFFF4FFFFFFFFF65
:10165000FFF39FFFFFFFFFFC0002100000420FE2BC
:101660000003FB0FFE3004FB0FFFF404FB0FFFFF32
:1016700054FB0FFFFFFAFB0FFFFFFFFB0FFFFFFF06
:10168000FB0FFFFFD6FB0FFFFD14FB0FFFC104FB99
:101690000FFB0004FB0CA00003FA00000000000098
:1016A000000012000000000003FF60000000002E98
:1016B000FFF500000001EFFFFF4000001DFFFFFFEE
:1016C000F30000CFFFFFFFFE200AFFFFFFFFFFE058
:1016D0000EFFFFFFFFFFF203999999999950058832
:1016E00088888888700FFFFFFFFFFFF30FFFFFFF61
:1016F000FFFFF40BFFFFFFFFFFD100000000000021
:10170000003F9000003FFC00003FFD10003FFD1037
:10171000003FFD10001FFD100000CFF4000000CFBF
:10172000F4000000CFF4000000CFF4000000CFE090
:10173000000000A4000000000000CD1000001FFD0C
:101740001000003FFD1000003FFD1000003FFD10A5
:1017500000003FFD000008FF900008FF900008FF18
:10176000900008FF900002FF90000007800000003A
:10177000000004500000000002FF60000000003F75
:10178000F70000000003FF70000000003FF70000BA
:1017900006999AFFC99980FFFFFFFFFFFF3DFFFFFA
:1017A000FFFFFFF201113FF71110000003FF70006F
:1017B0000000003FF70000000003FF700000000081
:1017C0000CD30000006999999999980FFFFFFFFFCA
:1017D000FFF3DFFFFFFFFFFF20000000000000001D
:1017E000000156640000000003BFFEEFF910000086
:1017F0007FFA1003DFE40008FFA009B41EFF504F7A
:10180000FF200BFF26FFE1EFFF09CFFF63FFFABFC9
:10181000FF09FFFF54FFF61EFF51DFFB09FFB00376
:10182000EFE204305FFC10002CFF956AFF9000008F
:101830000049DFFD920000000000000000000000F1
:10184000CD20000000000000008FF500146640006D
:10185000000004EFACFFEFFF910000001CFFA100AF
:101860004DFE300000009FF5AB31EFF40007B105ED
:10187000FFFFE17FFE100FFE302DFFF54FFF900CB4
:10188000FFE000AFF65FFF6002FFF40006FFEFFB32
:1018900000004FFD10003EFFC0000002DFE85401D1
:1018A000BFE300000005AEFF6007FF60000000001E
:1018B0000000004EF60000000000000001A1000042
:1018C000000000000000000000003ED0000000000A
:1018D00000000CFF80000000000006FFFF20000059
:1018E000000000EFFFFB00000000008FFCCFF400C1
:1018F0000000002FFB00FFD00000000BFFC00FFF17
:1019000070000004FFFD01FFFF100000DFFFE02F6B
:10191000FFFA00007FFFFF9BFFFFF3001FFFFFB0F8
:101920000EFFFFC00AFFFFFE24FFFFFF60FFFFFF67
:10193000FFFFFFFFFA06CCCCCCCCCCCCCB300000E8
:10194000000000360000000000007F80DDDB0000AA
:101950008DEFF8FFFFB007FFFFFD556FF46FF8AF95
:10196000E2000574FF907E2000003FFA00000000B6
:1019700002EFB2504A00012EFD1DF48FB0FFFFD1DF
:101980000BFFFFFBFFFE2000CFFFFB122100000238
:101990009FC000000000005B00000007A0000000E6
:1019A0000008FFB000000008FFFFB0000008FF952E
:1019B000FFB00008FF9005FFB007FF900005FFB0E3
:1019C0009F90000005FD004000000003104C200027
:1019D0000000B60BFE200000CFF02EFE2000CFF45A
:1019E000002EFE20CFF400002EFECFF40000002ECB
:1019F000FFF4000000002EF40000000000130000BF
:101A00000000083000000000000000BFF308BBBB6E
:101A1000BB90000BFFFF39FFFFFFF1008FCFCFF02E
:101A200000000AF100382F948000000AF100002F16
:101A3000900000000AF100002F900000030AF1302E
:101A4000002F9000001FCBF8F8002FEBBBBB39FF35
:101A5000FFE2001FFFFFFFB09FFD2000000000001D
:101A60000008D10037888700000000EFFFFFA000CA
:101A70000000FFFFFFFDCCCCB6FFFFFFFFFFFFFF25
:101A8000FFFFFFFFFFFFFFFFFFFFFFFFFFFFFFFF66
:101A9000FFFFFFFFFFFFFFFFFFFFFFFFFFFFFFFF56
:101AA000FFFFFFFFFFFFFFFFFFFFAFFFFFFFFFFF96
:101AB000F900000000000000000001DD100000003F
:101AC000001DFFD100000001DFFFFD1000001DFF21
:101AD000FFFFD100009FFFFFFFF90000011CFFC1C5
:101AE000100000000CFFC0000000000CFFC0000050
:101AF00000000CFFC0000079993BFFB39997FFFFEE
:101B0000B2442BFFFFFFFFFEDDEFFFFFFFFFFFFFF4
:101B1000FAB3CFACCCCCCCCCCCCA000000000002D5
:101B200000000000000004FFC70000000000AFFF3D
:101B3000F0000000001FFFFD0000000006FFFFC0D6
:101B40000000000008FFF700000000000CFF30005C
:101B500000000004FFC00000000001EFF300004A95
:101B60003002DFF80005DFFE15EFFB0000EFFFFF9E
:101B7000FFFA00000BFFFFFFF70000007FFFFFA24E
:101B800000000002BA85000000000004860000008A
:101B90001006FFFA0002DFD1EF3CF101DFFA0EE0A0
:101BA000AF21DFFA009FEFF6DFFA00008DFFFFFBA9
:101BB00000000006FFFD00000048EFFFF600006F88
:101BC000FFFBFFF6000EF3CF23FFF600EE0AF20450
:101BD000FFF609FEFC0004FFF108DA1000026200C3
:101BE00000000000000000006FFFF987000008FF00
:101BF000FF98F708A68FFFF95990FFA8FFFFFCCCCC
:101C00000FFA8FFFFFFFF1FFA8FFFFFFFF1FFA8F03
:101C1000FFFFFFF1FFA8FFFFFFFF1FFA8FFFFFFF8E
:101C2000F1FFA8FFFFFFFF1FFA7FFFFFFFF0FFE3B9
:101C3000122222210FFFFFFFF90000ACCCCCCB50C9
:101C400000004999999995000EFFFFFFFFF600FDEE
:101C50002222224FF60FC0000001FFF3FC0000001B
:101C60001FFF6FC0000002FFF6FFFFFFFFFFFF6FC7
:101C7000FFFFDCFFFFF6FFFFB005FFFF6FFFF60081
:101C80000FFFF6FFFFC006FFFF6FFFFFEDFFFFF640
:101C90009FFFFFFFFFFD10000000000001FFFFF0AD
:101CA0000004FFFFD00006FFFF800008FFFF3000A8
:101CB0000AFFFFAAA60CFFFFFFF80EFFFFFFE10BD4
:101CC000DDDFFF6000004FFD0000007FF30000003B
:101CD000BFA0000000FF10000003F800000003C0D8
:101CE00000000000200000000455EFB5520000FF86
:101CF000FD1FFFB0000FFFFFFFFC0000FFFF53338D
:101D000020000FFF97FFFB5700FFF8AFFFC6F80F4B
:101D1000FF8AFFFC4AA1FFF8AFFFE3220FFF8AFF13
:101D2000FFFFF4FFF8AFFFFFFF4FFF8AFFFFFFF455
:101D30003552AFFFFFFF40000AFFFFFFF400007FB6
:101D4000FFFFFE20000001100000000000AF0000B7
:101D50000000018FFA30000002EFFFFF500000BFCB
:101D6000FFFFFF10001FFFFFFFF50003FFFFFFFF56
:101D700070005FFFFFFFF90008FFFFFFFFC000DFFB
:101D8000FFFFFFFF209FFFFFFFFFFD0EFFFFFFFF95
:101D9000FFF2022222222221000008FFC0000000E0
:101DA0000009A20000005BBBBBBBBBBBBBA3FFFF2A
:101DB000FFFFFFFFFFFBFC0C30E11D0D11FCFC0BD6
:101DC00030E01D0D10FCFFFEFFEFFEFEEFFCFFF10B
:101DD0005A0870A05FFCFFF37B2992C27FFCFFBF13
:101DE000CBBBBBBFCBFCFC0B2000000D00FCFFCF2E
:101DF000CCCCCCCFCCFB9FFFFFFFFFFFFFF600005A
:101E0000000000000200000000000005DFB000003C
:101E1000000007EFFFD000000018FFFFFF70000078
:101E200029FFFFFFFF00003BFFFFFFFFF8000AFF55
:101E3000FFFFFFFFF1000FFFFFFFFFFFA000049A6D
:101E4000AAAFFFFF20000000000EFFFB0000000013
:101E5000000EFFF400000000000EFFC000000000B4
:101E6000000EFF5000000000000DFD00000000000B
:101E70000004B300000035555502000FFFFFF2F4D7
:101E800000FFFFFF2FF40FFFFFF2FFF3FFFFFF3212
:101E9000221FFFFFFFFFF7FFFFFFFFFF8FFFFFFF87
:101EA000FFF8FFFFFFFFFF8FFFFFFFFFF8FFFFFFC0
:101EB000FFFF8FFFFFFFFFF8FFFFFFFFFF8FFFFF19
:101EC000FFFFF88AAAAAAAAA300000002455310010
:101ED00000000003AFFFFFFFC7000002BFFFFEDEF0
:101EE000FFFFF6005FFFB51000038EFFB0DFD300E9
:101EF000000000008FF5180005AEFEC81004600059
:101F000002DFFFFFFFF80000000CFF95347DFF406B
:101F1000000002A20000007700000000000296000E
:101F20000000000000000DFF500000000000000E47
:101F3000FF6000000000000005DA000000005BBB4D
:101F4000BBBBBBBBBBBA20FFFFFFFFFFFFFFFF9088
:101F5000FC1222222222220FF7FC5FFFFFFFFFFF6D
:101F60002CFAFC5FFFFFFFFFFF21FAFC5FFFFFFF82
:101F7000FFFF27FAFC2666666666661FFAFEBBBB95
:101F8000BBBBBBBBBFB1AFFFFFFFFFFFFFFF5000FD
:101F900000000000000000005BBBBBBBBBBBBBBACA
:101FA00020FFFFFFFFFFFFFFFF90FC1222222221F4
:101FB000000FF7FC5FFFFFFFF8000CFAFC5FFFFF6C
:101FC000FFF80001FAFC5FFFFFFFF80007FAFC26AC
:101FD00066666663000FFAFEBBBBBBBBBBBBBFB193
:101FE000AFFFFFFFFFFFFFFF5000000000000000F9
:101FF00000005BBBBBBBBBBBBBBA20FFFFFFFFFF4F
:10200000FFFFFF90FC1222221000000FF7FC5FFF81
:10201000FFD000000CFAFC5FFFFFD0000001FAFCCB
:102020005FFFFFD0000007FAFC2666665000000F35
:10203000FAFEBBBBBBBBBBBBBFB1AFFFFFFFFFFF2C
:10204000FFFF500000000000000000005BBBBBBBB6
:10205000BBBBBBBA20FFFFFFFFFFFFFFFF90FC12DF
:1020600022000000000FF7FC5FFF300000000CFAB8
:10207000FC5FFF3000000001FAFC5FFF3000000051
:1020800007FAFC2666100000000FFAFEBBBBBBBBC4
:10209000BBBBBFB1AFFFFFFFFFFFFFFF5000000062
:1020A0000000000000005BBBBBBBBBBBBBBA20FF9A
:1020B000FFFFFFFFFFFFFF90FC0000000000000F8C
:1020C000F7FC0000000000000CFAFC00000000001B
:1020D0000001FAFC00000000000007FAFC0000000C
:1020E0000000000FFAFEBBBBBBBBBBBBBFB1AFFF69
:1020F000FFFFFFFFFFFF5000000000000000000096
:102100000000000007B20000000000000ADFFA0033
:102110000000000000A93DF5000000044002E000BE
:1021200010000000AFF80B600000006C30FFFFFFF4
:10213000FFFFFFFFFFF4AFF9000C5000006D4005FA
:10214000500004C00000100000000000C43EE80081
:1021500000000000002EEFFA000000000000004F19
:10216000FA00000000000000000000000000011064
:1021700000000007EFFFB30000AFFD8FFF2004FF5A
:10218000FD09FFB00AFEFD12AFF00EF55D2C0EF357
:102190000FFF33129FF50FFFF307FFF60FFFE20665
:1021A000FFF60FFE24137FF50DF57D2C0DF30AFFCE
:1021B000FD11BFF003FFFE0BFFA0007FFEBFFE106E
:1021C0000003ACDC810000003443000005667FFFA3
:1021D000F96650FFFFFFFFFFFF35666666666650D3
:1021E0001CCCCCCCCCC402FFFFFFFFFF602FF3FB65
:1021F0007F6DF602FF2FB7F5DF602FF2FB7F5DF6F4
:1022000002FF2FB7F5DF602FF2FB7F5DF602FF2F95
:10221000B7F5DF602FF3FB7F6DF601FFFFFFFFFFD8
:102220005007BCCCCCCC9000000000000001200086
:102230000000000004FF500000000002FFFF5000FB
:1022400000000439FFFE00000004FF39FFA0000079
:1022500004FFFF39B0000004FFFFFF20000004FF6F
:10226000FFFFB0000004FFFFFFB0000004FFFFFF0E
:10227000B0000004FFFFFFB0000000BFFFFFB00090
:1022800000000DFFFFB000000000FFFFB0000000E5
:102290000009A860000000000000001788888888F6
:1022A00087400002EFFFFFFFFFFFF4003EFFFFCF7C
:1022B000FFCFFFF703EFFFF908F809FFF83EFFFF34
:1022C000FE20402EFFF8DFFFFFFFE101EFFFF89F48
:1022D000FFFFFF80008FFFF809FFFFF902C209FF2F
:1022E000F8009FFFFE4EFE4EFFF80009FFFFFFFFC4
:1022F000FFFFF700008FFFFFFFFFFFC1000000009E
:10230000000003EFFFFFE203FBFBCEBFA4FF1D03B2
:10231000A1FAFFF1D03A1FAFFFFFFFFFFAFFFFFF67
:10232000FFFFAFFFFFFFFFFAFFFFFFFFFFAFFFFF62
:10233000FFFFFAFFFFFFFFFFAFFFFFFFFFFAFFFF07
:10234000FFFFFFADFFFFFFFFF829AAAAAAA8000020
:1023500000000000000300000000000004F100087D
:1023600020000001FF100BF70000002FF10CFF947C
:10237000444445FF1BFFFFFFFFFFFFF18FFFFFFFFF
:10238000FFFFFD007FF70000000000006F6000000D
:10239000000000003000000000000000000000000D
:1023A000000000000000C003000000000000C003A7
:1023B000030A00000F008005050500051C00D00978
:1023C0000A0A00004E00B008090F00FE9200D00B70
:1023D0000C0A0000CE00A0090A0B00FF0501F00264
:1023E000030500050D01B004040E01FD2901C00420
:1023F000040E00FD4501A005060600055701200852
:102400000807000273013003030500FE7B0160052D
:102410000503000383013003030300008801F00477
:10242000070EFFFFB9015009090A0000E601300557
:10243000040A0000FA011008080A0000220200083D
:10244000080A00004A0260090A0A00007C0210081B
:10245000080A0000A402A008090A0000D1026008CE
:10246000080A0000F9020009090A00002603A00872
:10247000080A00004E033003030800005A0330032B
:10248000030B00FD6B032008080800018B032008E4
:1024900008060002A303200808080001C30300087F
:1024A000080A0000EB03800E0E0D00FD4604400AF2
:1024B0000C0AFF008204A00A090A0100AF04200AE6
:1024C0000A0A0000E104900B0A0A010013056009E2
:1024D000080A01003B05E008080A01006305D00A6C
:1024E0000A0A00009505600B090A0100C2055004A4
:1024F000020A0100CC053007070AFF00EF05100AA9
:102500000A0A010021065008080A01004906600D68
:102510000B0A01008006600B090A0100AD06C00B22
:102520000C0A0000E906200A090A01001607C00B80
:102530000C0D00FD6407300A090A01009107B0087C
:10254000090A0000BE073008090A0000EB07100B5B
:10255000090A01001808F0090B0AFF004F08C00F14
:10256000100A00009F0870090A0A0000D10810092B
:102570000B0AFF0008093009090A00003509B004F8
:10258000040E01FD5109F004070EFFFF8209B0049B
:10259000040E00FD9E09300807060102B30900077A
:1025A000070100FFB709600805020109BC096008BE
:1025B00008080000DC099009080B0100080A00085F
:1025C00008080000280A9009090B00005A0A900820
:1025D000080800007A0AF004060B00009B0AB00904
:1025E000090B00FDCD0A9009080B0100F90AE00370
:1025F000020B0100040B0004050EFEFD270BA008D2
:10260000080B0100530BE003020B01005E0BD00E20
:102610000D080100920B900908080100B20BE008B8
:1026200009080000D60B9009080B01FD020C900967
:10263000090B00FD340CC00505080100480C00071B
:1026400007080000640CD005060A0000820C80090F
:1026500008080100A20CD0070908FF00C60C900C66
:102660000D080000FA0CC007080800001A0DD0077A
:10267000090BFFFD4C0D500707080000680DF00422
:10268000050E00FD8B0D3004020E01FD990DF004C6
:10269000050E00FDBC0D200808030003C80DE00571
:1026A00006050006D70D600404030003DD0D000ECF
:1026B0000F0FFFFE4E0E000E0E0B00009B0E000EC5
:1026C0000E0D00FFF60E000E0E0B0000430FA009CA
:1026D0000A0B00007A0F000E0E0F00FEE30F000E33
:1026E0000E0F00FE4C10C00F100D00FFB410000EB6
:1026F0000E0F00FE1D11C00F100B00007511000E13
:102700000E0F00FEDE110007070C00FF0812800A02
:102710000B0C00FF4A12C00F100E00FEBA12000E82
:102720000E0B00000713400C0A0E01FE4D13400C67
:102730000D0F00FEAF13400C0D0D00FF0414400CF4
:102740000D0D00FF5914400C0A0E01FE9F14400CA1
:102750000E0DFFFFFA14C008090D00FF3515C00863
:10276000090D00FF7015400C0D0D00FFC515400C44
:102770000D040003DF15C00F100B00003716801189
:10278000120F00FEBE16C00F110FFFFE3E17000E07
:102790000E0D00FF9917400C0D080001CD17400CDD
:1027A0000D08000101188011120B00006418000EC2
:1027B0000E0B0000B118000E0E0F00FE1A19000ECD
:1027C0000F0FFFFE8B19400C0D0D00FFE019400CA0
:1027D0000D0F00FE421A400C0D0D00FF971AC008A5
:1027E0000A0FFFFEE21A400C0D0F00FE441B400CC6
:1027F0000D0F00FEA61BC00F100B0000FE1B000EED
:10280000100FFFFE761C800A0B0F00FEC91C801102
:10281000120D00FF3E1D8011120A0000981D80114C
:10282000120A0000F21D8011120A00004C1E8011D5
:10283000120A0000A61E8011120A0000001F80115B
:10284000120C00FF6C1F400C0C0F00FEC61F400C4A
:102850000D0F00FE2820000E0F0FFFFE99208011A3
:10286000120B0000FC20800A0B0F00FE4F21100EFF
:102870000F0A00000000721F51EF58EF5BEF5CEF92
:102880005DEF61EF63EF65EF69EF6CEF71EF76EF8E
:1028900077EF78EF8EEF98EF9BEF9CEF9DEFA1EF36
:1028A000A2EFA3EFA4EFB7EFB8EFBEEFC0EFC1EF19
:1028B000C4EFC7EFC8EFC9EFCBEFE3EFE5EF14F0DC
:1028C00015F017F037F03AF043F06CF074F0ABF01D
:1028D0003BF190F191F192F193F194F1D7F1E3F1A1
:1028E0003DF254F2AAF412F7F2F7000020000000C3
:1028F0005F00010000000000000000000000020076
:10290000B0000000F3F76000742800000000000031
:102910003B00030000000102000304050206070853
:10292000090A090A0B0C000D0E0F101112130C14DA
:10293000140000001516171819161A1B1C1D1D1E51
:102940001F201D1D1621222303241E25252627288E
:10295000292A2B002C002D2E2F303132332D3434E8
:1029600035302D2D2E2E36373839333A3A3B3A3C16
:10297000290000093D0900000000000000000000DF
:102980000000000000000000000000000000000047
:102990000000000000000000000000000000000037
:1029A0000000000000000000000000000000000027
:1029B000000001020003040502060708090A090ACB
:1029C0000B0C0D0E0F10110C121314151500000036
:1029D00016171819171919191719191A1919191970
:1029E00017191719031B1C1D1D1E1F202122230050
:1029F00024002526272727002726282926262A2AB5
:102A0000272A272A2B2C2D2E2E2F2E30000023098B
:102A1000310900000000000000000000000000007C
:102A200000000000000000000000000000000000A6
:102A30000000000000000000000000000000000096
:102A40000000000000000000000000000001000085
:102A50000000000000010000020000000002000071
:102A60000000000000000000000000000000010065
:102A700000000000000000000000000000010A004B
:102A800006FB00000000F4F3020B0504F7020B0143
:102A900009020700000000000000000000000D0215
:102AA000FE0000000000000000000000000400F92B
:102AB0000000000000FC04040000FE00FE0200FE16
:102AC00000FEFFFC00000000FE0000FDFD0000FE17
:102AD00000FC000000000000000000FEFE00FD0001
:102AE000FA00E50000FC0004070000FC02020704F5
:102AF000FC040000F30000000000000000000000E3
:102B0000F80000000000000000000000000000FAD3
:102B1000FDF500F7FE00000000000900F9FEFF01CE
:102B200000FC0000FEEF00000000000000000000BC
:102B300000EEFE09000000000000000000000000A0
:102B4000F700000000000000000000070002000085
:102B5000FC00000000000000000000000000000079
:102B60000000090201000000000000000000000059
:102B70000000000000000000000000000000000055
:102B8000000000000000000000000000F80000004D
:102B90000000000000000000000000000000000035
:102BA00000000002040207FE000004FEF9E1020634
:102BB0000400FD00080007000700EB00FD07000708
:102BC000FE0402000001FE0000FC120012000700DB
:102BD00009030407000000F80000000001FE0002E5
:102BE000FCFDFC0200FE000000F7000000000000F9
:102BF0000000000000F100000000000000000000E4
:102C0000000000000001F400F200000000FE0016C9
:102C1000FDFD0202FE00FD020000F40000000000C5
:102C2000000000000000EA000200000000000000B8
:102C30000000000000F2000D0000F8000700F1EABB
:102C4000F1FC070000F10003FB00FD0000000000A4
:102C5000000000000000000607E500000000000082
:102C60000000000000000B00020000000000020253
:102C7000FDFC00FFFFFE0000FE000000FC00FE0067
:102C8000FBFC00FAF9F9FC00FC00FC00000000FE6F
:102C90000000020002FE000100000002FE00000031
:102CA000FE0202FF000000FC00FF00000000000127
:102CB0000003FE00FD00FC0000FE00070000FE0017
:102CC00000000000FF01FEFE0000FE00FE0000000C
:102CD000000000000000FFFF00FEFD0000000000FB
:102CE000010000FE00FEFEFE0000000000000000EB
:102CF00000FF00000000FEFD00FD00F9FEF90400E9
:102D000000FC02040600FAFFFD00FFF502FE02F4DB
:102D100002000001F400F4FEEDFE00F500040600E0
:102D200003000000000000FCFD00F9000000FE00B0
:102D30000000FE0000000000FFFF00FFFD0000009B
:102D400000000000FEFE00FEFDFE0000FE00000090
:102D50000000000000000000FEFE00FD00FE00FC80
:102D6000020000FD010202000000000000FE000061
:102D7000000000020000FE00FEFEFD00000000005A
:102D800000000200FE00000000FEFD00FC0007FE47
:102D900001F9000006F5F4F7FC0200FEF1FC00FC6E
:102DA00000FC03FCF200FA000001FF02FE0002003A
:102DB000F9F700F5FBFBFBF9FDFA00FCFA01000155
:102DC00000FE000000020002000000000000000001
:102DD000000000FE00FF00FFFE00FCFBFBFF00F90F
:102DE000000000000000FE0000000001FF000000E5
:102DF0000200000000000000000B000000000000C6
:102E000002000000FE0000000000000000000000C2
:102E1000FC000200000000000000000000000000B4
:102E2000FE000000FC00000000F5F9000000FDF5C8
:102E30000000FE0200FA0000000000000000000098
:102E4000FC0000FC0000000000000000000000008A
:102E50000200FC00000000030002FCFC00FEFEFD7E
:102E6000000000000000F900FE00FDFE00FBFAF982
:102E7000FE00FC00F900000000120000010000FD4F
:102E8000000200F60000000000EBFC0707FEF70060
:102E900002FD00F5FFFD02F0FE030003F8FDF8F966
:102EA000F70000F3000D0000FF000000FFFFFEFA36
:102EB000F900EB000000000000000000010000002D
:102EC00000000000000000000000000000FE00FF05
:102ED000FEFD0000FC00FE000000000000000000FD
:102EE000000000000000FF00FC000004FF0300FBE6
:102EF00002FEFFFAFE00FDFEFE00FDFC0000FEFFEC
:102F0000FEFCFD0000FE0002FE00FB000000FC00D5
:102F1000FC00FCFC020000000000000000FC0200BD
:102F2000FD00FEFDF9FEFEFEFFFEFDFF00000000BD
:102F300000FEFEFE0000000003FE00FE000000FE9A
:102F4000FDFEFEFDFE000209FF00FA00FE0400FE89
:102F5000F7FD030000F5FC02FC0200FEFEF900FD97
:102F6000010000FC0000000202FCFC00FCFEFDFE73
:102F7000FE00FC01FCFC0700000000000000000057
:102F8000020000000000000000000000000000003F
:102F90000000000000000000FC0000000000000035
:102FA0000000000000000000000000000000000021
:102FB0000000000000000000000000000000000011
:102FC00000000000FE000000000000000000000003
:102FD00000000000000000000000000000000000F1
:102FE0000000FEFE000000000000000000000000E5
:102FF000FD0000FD0000FEFE00000000FE000000DD
:1030000000FF0000000000FE00000000FD00FC00CA
:103010000000F90002FB0400FEF50000FBFE00F7D3
:10302000FAFA0000F6FEF7F7F500FA00020FFD00CD
:10303000FBFEFFFEFCFAFCF8F7FBFE0000FE0001C1
:103040000000F0FE0705FBF80001F900F5FEFE04A4
:10305000EBFD010000F1FDF4FEF00000F0000D01B9
:1030600000FE00000000FFFEF7FE00F1000000007F
:10307000F900FE00FFFAF50000FFFDF9FE00FE007A
:10308000000000F6FEF9F9FEFCFAFEFC00FCFEF979
:10309000FD00FDFCFEFC000100FEF9000400FC0048
:1030A000000000030002FC0900FEFEFD000000001D
:1030B0000000F900FE00FDFE00FBFAF9FE00FC0234
:1030C0000900000000120000010000FD00020000E5
:1030D000000000000000000000000000FEFC0000F6
:1030E000000000FF000000FEFE0000FCFE0000FCEF
:1030F0000004FF00000000000001000000000304C5
:1031000002FE00F9FC0007F9F9FCFC090402EDFEDF
:1031100004FE00FE02FEF800FE02FDFEF9FE0000C5
:10312000070400FA00F4FD06FDF701FDF9F9FE09B8
:103130000200FD00FA000207FBF8F7FA070001F0B1
:10314000FE02FCFEFB00FBF8FDFDFE0000FBFBFEAB
:10315000000705FEF400F4FD00F8F3FFF9FCF9FAAE
:10316000060000FD00FCFE00FEFC0004F902000069
:10317000F400FEFBFCFEF9FAF9FB00F9FEFBFCF99A
:10318000FE0000010BFC00F9FE00FEFCFBFAFAF762
:10319000FDFC0400FD00F5FD0104F9F8FCF907FE53
:1031A00001EBFC04FBFCF800F9F7FDFEFEFEFBF969
:1031B000FF00000706FEF100F3FB05F7F1FCF8F74E
:1031C000F5F90400000000FD000002FD0402FC040B
:1031D0000000F9FF00FF000101FE000000000000F8
:1031E000FE0000000002070000FD00000000FEFEDF
:1031F000FD0000000102000000000200FE000900C6
:10320000040101FD000400000002000000000000B5
:1032100000000000000700060000000000000000A1
:10322000000000000000F300FE0400070000160389
:10323000FCFC0202FE01F500000BF30000000000A0
:10324000000000000000F1091F0000000000000065
:103250000000000000F3000000000000000000007B
:10326000000000000000000000000000000000005E
:10327000FC0000FCFE000000000000000000000058
:103280000000000000000000FE00FA000001000045
:10329000021DFCFE0706FA0200000202FD0000000B
:1032A0000000000000000000E30600000000000035
:1032B0000000000000000000000000FA000000FA1A
:1032C00000000000FBFF000000FB00FD00F5000017
:1032D000000000000000000000F1000000000100FC
:1032E0000000000000FE0000FC00FD00FA000000ED
:1032F000FC02FD0000FAFEFB0000FA00FE00F500F3
:10330000FE0000EEFCF7FEF80000F100FAFF0000FE
:10331000000000000000FDFCFEFC00000000FB00BF
:10332000FB03FE0400FEFBFEFCFC00FDFFFE02FAB8
:10333000FF000000ECFEFD00FB00FEF5FE0000FEBD
:10334000FE000000000200FEFCFE04000000000081
:10335000000000000000000000000000000000006D
:10336000000000000000000000000000000000005D
:1033700000000000000003000000000000FB00FE51
:10338000000000FC02000000FAFEFC0000FA00FE53
:1033900000F500000000EA00FCF8F50000F100FE76
:1033A000FD0000000000000000FEFDFFFD01000028
:1033B00004FD00070BFEFEF9030B0405FA030903E5
:1033C00006050600000000000000000000000E0BD3
:1033D000FCFE00FE120A12000000020000080000BD
:1033E000FC000000000000000000FE0000000000E3
:1033F0000000000300000000EDFDFEF7F50000F105
:1034000000000000000000000000000000000000BC
:1034100000FC000000000000000000FE00000000B2
:10342000000000000300000000EDFDFEF7F50000C5
:10343000F700000000000000000000000000000095
:1034400000000000FE000000FB0200FE020402F982
:103450000000FE02000200000000FA00FEFEFC0078
:10346000FEF7000EFE00FBFE00FEFC00FEFAFCFD77
:10347000000000FC000000000000000000FE000052
:103480000000000000000300000000EDFDFEF7F565
:103490000000F10000000000000B00000000000030
:1034A00000000000FC00F9FDFE07FEFEF701FF0131
:1034B000FEFA000500020102FBF7FD00F7FCFAF737
:1034C000F700FCFCFDFDFEFEFDFE00FEFF03000319
:1034D000FE0007000000000000000000000000FEE9
:1034E000FEFE0000FA00FF00FC00000000000000EB
:1034F00000000000F30000000000000000000000D9
:10350000FEFE00FD00000000FE0000FCFE0200FCCC
:10351000FCFE00FAFEFBFEFD00FC000000000000C7
:103520000000000000F100070000FC00000000FDAA
:1035300000FE0000FF0000FE00FB000009FDF9F99D
:1035400002020200FA020302070207FEFA0000F775
:103550000000F9FA0000FC00FDFC00FD00FD00FE8B
:103560000300FEF9FE080000FE00FC000003FB0063
:1035700002FE020000F900FEFF00FE02FE00000055
:10358000F7FDFB00F90000F50008FE00FC0001005B
:10359000FE00FEF900FE0200000000FE000002FD39
:1035A000010000FDFE00FD00000000000000000022
:1035B0000000000000000000F200050000FE000016
:1035C00000000000FEFE00000004000500000000F6
:1035D00000F2F3010A0704F70209000800040000E2
:1035E0000000000000000000000C000000000000CF
:1035F0000000000000000000000000004C2A000055
:1036000014290000B02900003D310000D2B282B080
:10361000802AACBF019001919DF804008DF8000054
:10362000009802B070471143084381B00006C00FF4
:103630008DF80000009801B0704780B5C2B2010457
:103640000002090E000E11E000F0F001C0F30313B8
:10365000194380B500F00F02030942EA0012000A84
:1036600003F0F00300F00F00D2B21843FFF7DBFFC6
:10367000009002BD090241F0010103F024BB0902E0
:1036800041F0020103F01FBB090241F0030103F006
:103690001ABB090241F0040103F015BB090241F015
:1036A000100103F010BB090241F0110103F00BBB44
:1036B000090241F0120103F006BB090241F01301B7
:1036C00003F001BB090241F0140103F0FCBA090246
:1036D00041F0150103F0F7BA090241F0160103F0B9
:1036E000F2BA090241F0290103F016BB090241F0C8
:1036F0002C0103F034BB090241F0300103F0E3BABE
:10370000090241F0310103F0DEBA090241F039014A
:1037100003F002BB090241F03C0103F020BB0902A7
:1037200041F0400103F0CFBA090241F0410103F03A
:10373000CABA090241F0490103F0EEBA090241F0A8
:103740004C0103F00CBB090241F0500103F0BBBA7D
:10375000090241F0590103F0DFBA090241F06C019E
:1037600003F0FDBA090241F0790103F0D5BA09026C
:1037700041F07E0103F03BBB48F2810343EA0121A3
:1037800003F0A1BA48F2890310E0090241F0900168
:1037900003F099BA090241F0940103F094BA0902C6
:1037A00041F0990103F0B8BA48F2A90343EA0121B4
:1037B00003F0B2BA090241F0B00103F084BA090281
:1037C00041F0B10103F07FBA090241F0B60103F004
:1037D0007ABA090241F0B70103F075BA090241F063
:1037E000C00103F070BA090241F0C30103F06BBAE3
:1037F000090241F0C90103F08FBA090241F0CA0180
:1038000003F08ABA2DE9F84FDFF8884BDFF8886BB0
:10381000A06ADFF8885B03F036FA01F09CFDFFF741
:1038200065FF01F083FD4CBFDFF8B40DDFF8B40D88
:10383000FFF703FF01F0A9FCFFF753FF01F076FD4E
:103840004CBF28463046FFF7F8FE01F09EFCFFF71C
:1038500099FF01F06BFD4CBF28463046FFF7EDFEA7
:1038600001F093FCFFF77EFF01F060FD4CBF28469E
:103870003046FFF7E2FE0246A06A48F28A0103F0F2
:103880004BFA227BA06A48F28B0103F045FA626989
:10389000A06A0021FFF76BFFA06A001D03F0F3F997
:1038A00001F041FD01F01CF904DB01F03CFD01F0E9
:1038B00011F900E0012200F0BEFCFFF7DBFE01F091
:1038C0004AFD001DFFF712FF94F82000DFF8186D85
:1038D0006FF07F4981074CBF48463046FFF7ADFE89
:1038E00000F0B3FCFFF7FDFE94F82000DFF8FCAC1D
:1038F00081074CBF5046DFF8F80CFFF79EFE00F042
:10390000A4FCFFF702FF01F026FE04D401F01BFD2A
:10391000001DFFF7FAFE01F01AFD001DFFF7F5FE8E
:1039200001F001FD400001F0CBFE05DB01F0FBFCE6
:10393000400001F0CDFE00E0012200F07CFCFFF72A
:10394000DAFEA06A01223321001D03F0BCF901F068
:10395000EDFC4CBF28464846FFF76FFE00F075FCB3
:10396000FFF710FFA06A62690021001DFFF7FFFE4C
:1039700001F0DCFC4CBF28464846FFF75EFE00F035
:1039800064FCFFF7EFFE01F0D1FC4CBF284648462F
:10399000FFF753FE00F059FCFFF706FF01F0C6FCED
:1039A0004CBF28464846FFF748FE00F04EFCFFF7A4
:1039B000F6FE02F0B6F9001DFFF7E7FE02F09DF9F2
:1039C00002284FF01E080BDA01F0ADFCC0EB00102E
:1039D00001F076FE12DB01F0A6FCC0EB00100AE05D
:1039E00001F0A1FC10FB08F001F06AFE06DB01F01B
:1039F0009AFC10FB08F000F0E3FB00E0012701F067
:103A000092FC400001F05CFE04DB01F08CFC00F055
:103A1000D1FB00E0012000F022FCFFF749FE02F09C
:103A20006CF902280BDA01F07EFCC0EB001001F00B
:103A300047FE12DB01F077FCC0EB00100AE001F05A
:103A400072FC10FB08F001F03BFE06DB01F06BFCA2
:103A500010FB08F000F0B4FB00E0012701F063FC6C
:103A6000400001F02DFE04DB01F05DFC00F0A2FB44
:103A700000E0012000F0F3FBFFF71FFE02F03DF92C
:103A800002280BDA01F04FFCC0EB001001F018FE29
:103A900012DB01F048FCC0EB00100AE001F043FC2F
:103AA00010FB08F001F00CFE06DB01F03CFC10FB03
:103AB00008F000F085FB00E0012701F034FC400035
:103AC00001F0FEFD04DB01F02EFC00F073FB00E0D2
:103AD000012000F0C4FBFFF7E1FD02F00EF902281F
:103AE0000BDA01F020FCC0EB001001F0E9FD12DB65
:103AF00001F019FCC0EB00100AE001F014FC10FB0F
:103B000008F001F0DDFD06DB01F00DFC10FB08F014
:103B100000F056FB00E0012701F005FC400001F039
:103B2000CFFD04DB01F0FFFB00F044FB00E00120CF
:103B300000F095FBFFF7B7FD02F0DFF802280BDA83
:103B400001F0F1FBC0EB001001F0BAFD12DB01F057
:103B5000EAFBC0EB00100AE001F0E5FB10FB08F007
:103B600001F0AEFD06DB01F0DEFB10FB08F001F01A
:103B7000AFFD00E0012200F05EFBFFF7A3FD01F0C6
:103B8000EEFC001DFFF716FEA06A39220021001D81
:103B9000FFF71FFEA06ADFF85C7ADFF85C8ADFF8C7
:103BA0005CBA0C3003F06FF8A06A011D0C3002F013
:103BB00006FF01F0BBFB4CBFDFF8440ADFF8440A04
:103BC000FFF73BFD00F03CFBFFF78BFD01F0AEFB88
:103BD0004CBFDFF8340ADFF8340AFFF72EFD00F09F
:103BE0002FFBFFF792FD01F0A1FB4CBF404638468A
:103BF000FFF723FD00F024FBFFF7C4FD01F096FB67
:103C00004CBF40463846FFF718FD00F019FBFFF7A0
:103C1000A9FD01F08BFB4CBF40463846FFF70DFD78
:103C200000F00EFBFFF7C0FD01F080FB4CBF4046EB
:103C30003846FFF702FD00F003FBFFF7B0FDA06A76
:103C4000083003F020F801F071FB4CBFDFF8C00929
:103C5000DFF8C009FFF7F1FC00F0D3FAFFF741FDF0
:103C600001F09CFA0830FFF73CFD00F09FFA00F0ED
:103C7000C3FAFFF736FD01F059FB4CBF484630460A
:103C8000FFF7DBFC00F0B3FAFFF72BFDA06A002280
:103C900001210830FFF72FFD00F088FA0246A06AE4
:103CA00012210830FFF731FD01F040FB40F6CC4710
:103CB00003D53846FFF7C8FC02E05846FFF7BDFCC5
:103CC00000F09FFAFFF721FD01F030FB4CBF2846C2
:103CD0005846FFF7B2FC00F07DFAFFF716FD01F041
:103CE00025FB4CBF28465846FFF7A7FC00F084FA96
:103CF000FFF70BFD01F01AFB4CBF50465846FFF78B
:103D00009CFC00F074FAFFF700FD01F00FFB4CBFC4
:103D100028464846FFF791FC00F073FAFFF732FDA2
:103D200000F05DFA00F056FAFFF72CFD00F057FAAC
:103D300000F062FAFFF726FD94F8200040F6991A89
:103D400040F6AA2B81074CBF58465046FFF77CFC33
:103D500000F04DFAFFF716FD01F0E8FA4CBF2846D7
:103D60004846FFF76AFC00F04CFAFFF71DFD00F033
:103D700036FA00F02FFAFFF717FD00F030FA00F0E6
:103D80003BFAFFF711FD01F0D1FA4CBF58465046FF
:103D9000FFF75AFC00F02BFAFFF706FDA06A292274
:103DA00000210830FFF710FDA06A103002F06BFF11
:103DB00000F034FD1030FFF75DFC01F0CCFA10305C
:103DC000FFF794FC01F0B2FA4CBF48463046FFF7CB
:103DD00034FC00F01BFAFFF784FC01F0A7FA04D5CD
:103DE00000F0FDF90146332203E000F080FE4C2292
:103DF0000146207BFFF70AFC00F0E7F9FFF771FCB2
:103E000001F0CCF91030FFF76CFC207B4C2103F063
:103E100079FA00F0E7F9FFF764FC01F087FA4CBF8C
:103E200048463046FFF709FC00F0FBF9FFF759FC64
:103E300094F8200040F6880581074CBF3846284694
:103E4000FFF702FC0246A06A21211030FFF749FC6F
:103E500000F0CDFE1030FFF758FCA06A227B102145
:103E60001030FFF752FC01F061FA03D52846FFF746
:103E7000EBFB03E0DFF89407FFF7DFFB00F0D1F97D
:103E8000FFF743FC01F04FFA400001F019FC05DB9D
:103E900001F049FA400001F01BFC00E0012200F0B3
:103EA000E4F9FFF728FCA06A002201211030FFF797
:103EB00031FC94F82000DFF8285D81074CBF4046B4
:103EC0004846FFF7BAFB00F0A1F9FFF75BFC01F0F1
:103ED0002DFA4CBF40464846FFF7AFFB00F075F99E
:103EE000FFF750FC00F07BF901F00FFF1030FFF7F7
:103EF00049FC00F074F900F075F9FFF743FC01F09C
:103F000008FF00F08EF9FFF73DFC01F00FFA4CBFFF
:103F100040464846FFF791FB00F078F9FFF744FC74
:103F200001F004FA4CBF40464846FFF786FB00F01C
:103F300072F900F054F900F06EF900F050F900F059
:103F400051F9FFF731FC01F0E4FE00F06AF9FFF7E8
:103F50002BFC01F0EBF94CBF40464846FFF76DFBE8
:103F600000F054F9FFF7FEFB01F0E0F94CBF4046CA
:103F70004846FFF762FB00F028F9FFF7F3FB00F07B
:103F80002EF901F0C2FE1030FFF7ECFB00F027F92C
:103F900000F028F9FFF7E6FB01F0BBFE00F041F965
:103FA000FFF7E0FB01F0BFF9282501F087FB04DBF8
:103FB00001F0B9F901F08AFB00E0012200F055F9A7
:103FC000FFF776FB01F0AFF901F078FB04DB01F0BD
:103FD000AAF901F07BFB00E0012200F046F9FFF7AF
:103FE0006CFB01F0A0F9C0EB001001F069FB06DBEF
:103FF00001F099F9C0EB001001F06AFB00E001222A
:1040000000F033F9FFF74AFB01F08DF9C0EB001027
:1040100001F056FB06DB01F086F9C0EB001001F061
:1040200057FB00E0012200F020F9FFF73CFB01F014
:104030007AF9142610FB06F001F042FB06DB01F0D2
:1040400072F910FB06F001F043FB00E0012200F0E2
:104050000CF9FFF737FB01F07EFA48BF00220CD4C1
:1040600001F061F9400001F02BFB05DB01F05BF989
:10407000400001F02DFB00E0012200F0F6F8FFF710
:104080004EFB00F0D3F8FFF759FBA06A7F22022114
:104090001030FFF753FB00F0AAFD1030FFF749FB8B
:1040A00001F055F91030FFF744FB00F0BFF8FFF7BF
:1040B00081FBA06A3C22B521103002F004FEA06A08
:1040C000292200211030FFF77FFBA06A4C2200213B
:1040D0001030FFF77EFB00F0A9F8FFF770FBA06A35
:1040E000002210211030FFF76AFBA06A143002F0A2
:1040F000CAFD01F002FE02280BDA01F014F910FBF0
:1041000006F001F0DDFA10DB01F00DF910FB06F00E
:1041100008E001F008F901F0D1FA06DB01F003F93B
:1041200010FB05F001F0D4FA00E0012200F00EFED1
:104130001430FFF7C7FAA06A183002F0A4FD01F0AE
:10414000DCFD022809DA01F0EEF801F0B6FA14DB22
:1041500001F0E9F810FB05F00AE001F0E4F810FBCB
:1041600006F001F0ADFA08DB01F0DDF810FB06F017
:104170005030A02190FBF1F500E0012500F06AF835
:10418000FFF796FA00F066F8FFF797FA00F062F88A
:10419000FFF784FA00F05EF8FFF785FA2AB2A06A0A
:1041A000BDE8F84F00211830FFF78CBA207B33218F
:1041B00003F0A8B840005030A02190FBF1F0704708
:1041C0005030A02190FBF1F770470246A06A102101
:1041D000103070470246A06A0121083070474846F7
:1041E000FFF72BBA0246A06A112110307047024631
:1041F000A06A2021083070470246A06A11210830C9
:1042000070470246A06A1021083070470246A06A33
:104210000021103070470246A06A10211030FFF7CD
:10422000C3BA0246A06A202110307047A06A00225B
:10423000002110307047A06A12B20021001D7047A3
:104240000246A06A00210C3070470246A06A002195
:10425000001D7047A06A2AB2002118307047C719A4
:10426000A06A3AB20021001D7047A06A12B2002174
:104270001030704738B500F09FFF01F1280002F0C0
:1042800002FD00F03CFC2830FFF7F4F901F063F880
:104290002830FFF72BFA01F049F84CBFD848D9482D
:1042A000FFF7CBF900F071FF2830FFF71AFA01F0A1
:1042B0003DF803D5D048FFF7C0F901E038A00078F9
:1042C00000F063FF2830FFF74DFA00F090FC283033
:1042D000FFF72FFA01F03BF82830FFF72AFA01F038
:1042E0003EF92830FFF72AFAA06A7F2202212830FF
:1042F000FFF724FA01F02FF948BF00220CD401F097
:1043000012F8400001F0DCF905DB01F00CF8400088
:1043100001F0DEF900E0012200F018FD2830FFF77F
:10432000FEF901F01CF92830FFF744FAA06A4C228C
:1043300000212830FFF74DFAA06A2C3002F0A3FCD0
:1043400001F009F82C30FFF7D1F9A06A2A460021C4
:104350002C30FFF78FF900F04AFC2C30FFF7C1F941
:1043600001F02EFA0246A06A20212C30FFF7B9F99D
:1043700000F0DCFF04D5DFF8D009FFF75EF901E0BB
:1043800008A000780246A06ABDE8384000212C3021
:10439000FFF7E8B940AE0020ECE9E700423E3B0001
:1043A00001000000010010B500F006FF01F17000EF
:1043B00002F069FC00F0CFFF7030FFF797F900F0D2
:1043C00016FC7030FFF78DF9A06A022200217030D0
:1043D000FFF791F9A06A7F2200217030FFF79AF968
:1043E000207B4C2102F08AFF00F0CFFE7030FFF7F7
:1043F0008CF900F013FA7030FFF73CF900F093FFEE
:10440000C0EB001001F05CF906DB00F08CFFC0EBA4
:10441000001001F05DF900E0012200F097FC70301F
:10442000FFF791F900F0E3FB7030FFF791F900F02E
:104430007AFF00EB800001F043F906DB00F073FF28
:1044400000EB800001F044F900E00122A06ABDE821
:10445000104012B25321703002F035BC38B500F074
:10446000ABFE01F1940002F00EFC00F074FF9430FA
:10447000FFF73CF900F05AFF4EBF227B0FF2981075
:104480000278A06A00219430FFF72BF900F04EFF6C
:1044900003D55948FFF7D1F802E000BF5FA00078CC
:1044A00000F073FE9430FFF75DF900F0B7F9943037
:1044B000FFF7E0F800F037FFC0EBC00001F000F9B3
:1044C00006DB00F030FFC0EBC00001F001F900E0B6
:1044D000012200F0A4F8FFF7EBF800F024FFC0EB96
:1044E000C00001F0EDF806DB00F01DFFC0EBC000DE
:1044F00001F0EEF800E0012200F091F8FFF7DDF89E
:1045000000F011FFC0EBC00001F0DAF806DB00F0AC
:104510000AFFC0EBC00001F0DBF800E0012200F070
:104520007EF8FFF7BBF800F0FEFEC0EBC00001F024
:10453000C7F806DB00F0F7FEC0EBC00001F0C8F8DA
:1045400000E0012200F06BF8FFF7ADF8A06A9830A8
:1045500002F099FB00F0E7FE01F0AFF804DB00F099
:10456000E2FE01F0B3F800E00122A06A12B21721C6
:10457000983002F0A8FB00F0D6FE01F09FF804DBB3
:1045800000F0D1FE01F0A2F800E00122A06A12B210
:104590001821983002F097FB00F0C5FE01F08EF86C
:1045A00004DB00F0C0FE01F091F800E0012200F011
:1045B000CDFB9830FFF78BF800F0B5FE01F07EF8E8
:1045C00004DB00F0B0FE01F081F800E00122A06AF7
:1045D000BDE8384012B200219830FFF77DB80000E6
:1045E000F3EFEA005A4B440073625800E3DDD60053
:1045F000978A8000ADA8A5004F4031006E655F002E
:10460000D9D7D4004D494500EDE7DF0040404000D8
:10461000EEEEEE00574F4900010000000100A06AD5
:1046200012B200219430704738B500F0C5FD01F199
:10463000A00002F028FB00F08EFEA030FFF756F835
:1046400028A100F077FEA030FFF74BF800F0E6F865
:10465000A030FFF70FF800F066FE800001F03EFB8F
:1046600005DB00F060FE800001F041FB00E02A461F
:1046700000F039F8FFF712F800F055FE800001F065
:104680001FF805DB00F04FFE800001F030FB00E07A
:104690002A4600F028F8FFF706F800F044FE8000F4
:1046A00001F00EF805DB00F03EFE800001F01FFB7C
:1046B00000E02A4600F017F8FEF7FAFF00F033FE9C
:1046C000800000F0FDFF04DB00F02DFE800001F013
:1046D000FFFA2AB2A06ABDE838400021A030FEF7F8
:1046E000ECBF00000100A06A12B20021A0307047A8
:1046F00038B500F061FD01F1740002F0C4FA00F079
:104700008DF87430FEF7B6FF00F00DFE142500F0B2
:10471000D5FF04DB00F007FE00F0D8FF00E0012227
:1047200000F077F8FEF7C4FF00F0FDFD00F0C6FFD3
:1047300004DB00F0F8FD00F0C9FF00E0012200F00A
:1047400068F8FEF7BAFF00F0EEFD00F0B7FF04DBFB
:1047500000F0E9FD00F0BAFF00E0012200F059F896
:10476000FEF79CFF00F0DFFD1E2500F0A7FF04DB35
:1047700000F0D9FD00F0AAFF00E0012200F049F8A6
:10478000FEF7A0FF00F0CFFD192500F097FF04DB36
:1047900000F0C9FD00F09AFF00E0012200F039F8B6
:1047A000FFF71CF800F023FA7430FEF7F8FF00F072
:1047B0001EFA7430FFF71CF801F002F800F0E5FC77
:1047C0007430FFF71AF800F0AEFD00F076FF04DB5E
:1047D00000F0A9FD00F07AFF00E0012200F019F8D6
:1047E000FEF7D3FF00F09FFDC0EBC00000F068FFB4
:1047F00006DB00F098FDC0EBC00000F069FF00E0B0
:104800000122A06ABDE8384012B200217430FEF7E0
:10481000EABFA06A12B2002174307047A06A47F65E
:10482000FF7200217047000070B500F0C5FC01F177
:10483000600002F028FA40F6880600F048F900F01F
:10484000A4FC6030FEF7ABFF00F041F900F09DFCE6
:104850006030FEF7CDFF00F0CAF96030FEF7CDFF03
:1048600000F061FD00EB800000F02AFF06DB00F0A5
:104870005AFD00EB800000F02BFF00E0012200F069
:1048800044F9FEF782FF00F04EFD800000F018FFB3
:1048900005DB00F048FD800000F01AFF00E0012277
:1048A00000F033F9FEF79FFF00F03DFD00F018F92E
:1048B00004DB00F038FD00F00DF900E00122A06AF1
:1048C00012B2C221603002F0FEF900F02CFD142576
:1048D00000F0F4FE04DB00F026FD00F0F7FE00E03F
:1048E000012200F012F9FEF7E3FE00F01CFD00F0DB
:1048F000E5FE04DB00F017FD00F0E8FE00E0012219
:1049000000F003F9FEF7D9FE00F00DFD00F0D6FE31
:1049100004DB00F008FD00F0D9FE00E0012200F009
:10492000F4F8FEF7BBFE00F0FEFC00F0C7FE04DB6F
:1049300000F0F9FC00F0CAFE00E0012200F0E5F80A
:10494000FEF7C0FE00F0EFFCC0EB001000F0B8FE78
:1049500006DB00F0E8FCC0EB001000F0B9FE00E060
:10496000012200F0D2F8FEF739FF00F0C8F86030FD
:10497000FEF780FEA06A643002F085F900F0A7F827
:1049800000F003FC6430FEF70AFF00F0A0F800F02E
:10499000FCFB6430FEF72CFF00F029F96430FEF7D1
:1049A0002CFF00F0C0FC00F09BF804DB00F0BBFC27
:1049B00000F090F800E0012200F09CF8FEF7E5FE20
:1049C00000F0B1FC00F08CF804DB00F0ACFC00F06F
:1049D00081F800E0012200F08DF8FEF704FF00F0FE
:1049E000A2FC192610FB06F000F06AFE06DB00F0C0
:1049F0009AFC10FB06F000F06BFE00E0012200F0D4
:104A000079F8FEF7EBFEA06ADFF8A86C683002F0D8
:104A10003AF900F08BFC02D500F069F802E000BF23
:104A200029A0007800F0B1FB6830FEF7B8FE00F076
:104A30007AFC00F055F804DB00F075FC00F04AF851
:104A400000E0012200F082F96830FEF79EFE00F0DF
:104A500082FC6830FEF74AFE00F068FC02D500F0E8
:104A600046F801E019A0007800F08FFB6830FEF7EF
:104A700038FEA06A2A4600216830FEF7FBFD00F0F0
:104A800052FC1E2500F01AFE04DB00F04CFC00F086
:104A90001DFE00E0012200F059F96830FEF7F4FD38
:104AA00000F041FC00F009FE04DB00F03CFC00F0EB
:104AB0000DFE00E00122A06ABDE8704012B20021A4
:104AC0006830FEF7FFBD0000010000000100304625
:104AD000FEF7BABDC0005030A02190FBF1F2704744
:104AE000C0005030A02190FBF1F002287047304602
:104AF000FEF7A3BDA06A12B2002164307047A06A1D
:104B000047F6FF752A4600217047A06A12B20021BD
:104B10006030704738B500F04FFB01F11C0002F027
:104B2000B2F800F064F81C30FEF739FE00F0FBFB31
:104B3000192500F0C3FD04DB00F0F5FB00F0C6FD15
:104B400000E0012200F002F91C30FEF71EFE01F029
:104B5000E8F81C30FEF71EFEA06A203002F093F841
:104B600000F0E4FB4CBFDFF8140DDFF8140DFEF786
:104B700064FD00F00AFB2030FEF711FE00F0D3FBCD
:104B800000F09CFD04DB00F0CEFB00F09FFD00E098
:104B9000012200F0DBF82030FEF7F7FD01F0C1F84C
:104BA0002030FEF7F7FDA06A243002F06CF8FFF722
:104BB00035FE2430FEF75EFD00F014F8FEF76EFDC2
:104BC00000F010F8FEF76FFD00F00CF8FEF770FD36
:104BD000A06ABDE83840002200212430FEF76DBDF8
:104BE00088888800A06A0022002124307047A06ACB
:104BF000227B0021704738B500F0DEFA01F1440055
:104C000002F041F894F82010880704D540F6AA2055
:104C1000FEF71AFD03E0DFF86C0CFEF70EFD00F066
:104C2000B4FA4430FEF7AEFDA06A483002F02BF82B
:104C300000F079FB00F044FD04DB00F074FB00F0B1
:104C400047FD00E0012200F081F84830FEF79DFDAD
:104C500000F069FB00F031FD04DB00F064FB00F0C4
:104C600035FD00E00122A06A12B29221483002F024
:104C70002AF800F058FB00F021FD04DB00F053FBA4
:104C800000F024FD00E00122A06A12B29321483016
:104C900002F019F800F04AFB4CBFDFF8EC0BDFF82C
:104CA000EC0BFEF7CAFC00F070FA4830FEF777FD17
:104CB000A06A4C3001F0E7FF00F035FB00EB40004C
:104CC00000F0FEFC06DB00F02EFB00EB400000F0E5
:104CD000FFFC00E0012200F03DF8FEF756FD00F079
:104CE00022FB800000F0ECFC05DB00F01CFB8000E8
:104CF00000F0EEFC00E0012200F02CF8FEF7C4FC0E
:104D000000F011FB400000F0DBFC05DB00F00BFBCA
:104D1000400000F0DDFC00E0012200F01BF8FEF78F
:104D2000D1FC00F000FB00F0CBFC04DB00F0FBFA50
:104D300000F0CEFC00E00122A06ABDE8384012B2CB
:104D400000214C30FEF796BC4F404100A06A12B2E1
:104D500000217047A06A12B200214C307047000059
:104D600070B500F029FA01F1340001F08CFF00F079
:104D7000F6FB3430FEF792FC00F0BFFF1E25022840
:104D80000BDA00F0D0FAC0EB001000F099FC10DB59
:104D900000F0C9FAC0EB001008E000F0C4FA00F01F
:104DA0008DFC06DB00F0BFFA10FB05F000F090FC74
:104DB00000E0012200F0FBF9FEF77AFC00F09DFF15
:104DC00002280BDA00F0AFFAC0EB001000F078FC1C
:104DD00010DB00F0A8FAC0EB001008E000F0A3FA26
:104DE00000F06CFC06DB00F09EFA10FB05F000F012
:104DF0006FFC00E0012200F0DAF9FEF75EFC00F043
:104E0000AEFB3430FEF74FFC00F077FF02280BDAE0
:104E100000F089FAC0EB001000F052FC10DB00F04B
:104E200082FAC0EB001008E000F07DFA00F046FCCA
:104E300006DB00F078FA10FB05F000F049FC00E01A
:104E4000012200F0B4F9FEF742FC00F056FF022800
:104E50000BDA00F068FAC0EB001000F031FC10DB58
:104E600000F061FAC0EB001008E000F05CFA00F01E
:104E700025FC06DB00F057FA10FB05F000F028FCDB
:104E800000E0012200F093F9FEF726FC00F04EFA54
:104E900004D5DFF8FC09FEF7D0FB02E00FF2D820C2
:104EA0000078DFF8F06900F09FFF3430FEF76AFC0D
:104EB000A06A383001F0E7FE00F038FA02D5FFF7BB
:104EC00016FE03E040F6EE60FEF7BEFB00F05DF973
:104ED0003830FEF757FC00F010FF02280BDA00F024
:104EE00022FAC0EB001000F0EBFB10DB00F01BFA25
:104EF000C0EB001008E000F016FA00F0DFFB06DB64
:104F000000F011FA10FB05F000F0E2FB00E00122D6
:104F100000F03FF9FEF7CCFB00F0EFFE02280BDAC1
:104F200000F001FAC0EB001000F0CAFB10DB00F04B
:104F3000FAF9C0EB001008E000F0F5F900F0BEFB54
:104F400006DB00F0F0F910FB05F000F0C1FB00E01B
:104F5000012200F01EF9FEF7B0FB00F0CEFE0228A1
:104F60000BDA00F0E0F9C0EB001000F0A9FB10DB59
:104F700000F0D9F9C0EB001008E000F0D4F900F01F
:104F80009DFB06DB00F0CFF910FB05F000F0A0FB65
:104F900000E0012200F0FDF8FEF785FBA06A30304A
:104FA00001F071FE00F0BFF9800000F089FB05DB25
:104FB00000F0B9F9800000F08BFB00E0012200F066
:104FC000F1F8FEF757FB00F0B1F902D5FFF78FFDBE
:104FD00002E000BF69A0007800F097FE3030FEF7D5
:104FE000D1FB00BF66A1A06A0A7820213030FEF70D
:104FF000C9FB00F09BF9A06A4CBF33226622012155
:105000003030FEF773FBA06A332210213030FEF7F8
:105010006DFBA06AFF2202213030FEF767FB00BF64
:1050200058A1A06A0A7802213030FEF7ABFB00F0ED
:105030008AF93030FEF755FB00F078F904D5DFF837
:10504000A40DFEF7FAFA01E04FA0007800F09DF8F9
:105050003030FEF746FB00F0A1F83030FEF741FBA0
:10506000A06A022201213030FEF745FBA06A04222B
:1050700001213030FEF744FB00F090F83030FEF7AD
:1050800044FB00F050F900EB400000F019FB06DB98
:1050900000F049F900EB400000F01AFB00E00122AB
:1050A00000F080F8FEF70EFB00F027FE02280BDA76
:1050B00000F039F9C0EB001000F002FB10DB00F04B
:1050C00032F9C0EB001008E000F02DF900F0F6FA1C
:1050D00006DB00F028F910FB05F000F0F9FA00E01B
:1050E000012200F05FF8FEF7E3FA00F006FE022866
:1050F0000BDA00F018F9C0EB001000F0E1FA10DB59
:1051000000F011F9C0EB001008E000F00CF900F01D
:10511000D5FA06DB00F007F910FB05F000F0D8FA2D
:1051200000E0012200F03EF8FEF7C7FA00F0E5FDCE
:1051300002280BDA00F0F7F8C0EB001000F0C0FA1C
:1051400010DB00F0F0F8C0EB001008E000F0EBF826
:1051500000F0B4FA06DB00F0E6F810FB05F000F012
:10516000B7FA00E00122A06ABDE8704012B2002147
:105170003030FEF798BA0000010000000100000086
:10518000010000000100000001000246A06A0021A9
:105190007047A06A12B2002138307047A06A227BA3
:1051A00001217047A06A12B2002130307047A06A16
:1051B00012B2002134307047DFF8884DA16A704781
:1051C00038B5FFF7F9FF01F13C0001F05CFD00F09C
:1051D000AAF81E2500F072FA04DB00F0A4F800F033
:1051E00075FA00E00122FFF7B1FD3C30FEF7F6FA58
:1051F00000F0B1F83C30FEF779FA00F097F84CBFB8
:10520000DFF8440DDFF8440DFEF717FAFFF7BDFF96
:105210003C30FEF766FA00F086F8142500F04EFAEE
:1052200004DB00F080F800F051FA00E00122FFF703
:105230008DFD3C30FEF746FAFFF761FC3C30FEF78F
:1052400019FAA06A403001F01EFDA06A2A4600212A
:105250004030FEF70FFA00BF31A100F06BF840308C
:10526000FEF73FFA00F077F84030FEF73FFAA06A09
:10527000022200214030FEF73EFA00BF29A100F0D3
:1052800059F84030FEF741FA00F05DF84030FEF783
:105290003CFA00F05CF84030FEF737FA00F043F8D3
:1052A0000D2500F00BFA04DB00F03DF800F00EFADB
:1052B00000E0012200F042F8FEF7FAF900F033F8BE
:1052C00000F0FCF904DB00F02EF800F0FFF900E03C
:1052D000012200F033F8FEF7F0F900F024F800F0B6
:1052E000EDF904DB00F01FF800F0F0F900E0012216
:1052F00000F024F8FEF7D2F900F015F800F0DEF91E
:1053000004DB00F010F800F0E1F900E00122A06AEF
:10531000BDE8384012B200214030FEF7C4B90000A9
:10532000010000000100002002F0DAB894F820002B
:1053300081077047A06A0A7800217047A06A12B2FC
:10534000002140307047A06A227B02217047A06A8A
:10535000627B04217047A06AFF2200217047000091
:1053600038B5FFF729FF01F1500001F08CFCFFF781
:10537000DAFF800000F0A4F905DBFFF7D4FF80001E
:1053800000F0A6F900E0012200F0F2F8FEF772F951
:10539000FFF7C9FF00F091F904DBFFF7C4FF00F04D
:1053A00095F900E0012200F0E3F8FEF78BF9FFF732
:1053B0001EFC5030FEF7BDF900F0D1F85030FEF77A
:1053C000BDF9A06A7F2202215030FEF7B7F900F044
:1053D000C2F848BF00220CD4FFF7A5FF400000F040
:1053E0006FF905DBFFF79FFF400000F071F900E067
:1053F000012200F0BDF8FEF792F9FFF794FF00F0EC
:105400005DF904DBFFF78FFF00F060F900E0012297
:1054100000F0AEF8FEF788F900F0A1F85030FEF782
:10542000C9F9A06A4C2200215030FEF7D2F9A06AD7
:10543000543001F028FCA06A002202215430FEF70B
:105440007DF9FFF770FF800000F03AF905DBFFF708
:105450006AFF800000F03CF900E0012200F083F8D0
:10546000FEF708F9A06AD5A24FF4B771543001F0E5
:10547000BEFC00BF37A1A06A0A7840F2691154301F
:1054800001F04AFC00F06BF85430FEF766F9A06AB0
:10549000FF2201215430FEF760F9A06A6C22B4218A
:1054A000543001F010FCA06A226948F28E11543089
:1054B00001F09DFCFFF737FF00EB400000F000F922
:1054C00006DBFFF730FF00EB400000F001F900E0E1
:1054D000012200F048F8FEF7EBF8FFF724FF00EB9D
:1054E000400000F0EDF806DBFFF71DFF00EB400089
:1054F00000F0EEF800E0012200F035F8FEF7DDF8EC
:10550000FFF711FF00EB400000F0DAF806DBFFF7D1
:105510000AFF00EB400000F0DBF800E0012200F0A1
:1055200022F8FEF7BBF8FFF7FEFE00EB400000F0AC
:10553000C7F806DBFFF7F7FE00EB400000F0C8F805
:1055400000E00122A06ABDE8384012B200215430C8
:10555000FEF7A9B8010094F8200081067047A06A00
:10556000002200217047A06A12B200215430704717
:10557000A06A12B2002150307047000010B5FFF74A
:105580001BFE01F16C0001F07EFBFFF7E8FF6C30C1
:10559000FEF770F8FFF7C7FE800000F091F805DB1A
:1055A000FFF7C1FE800000F093F800E0012200F058
:1055B00094F8FEF7A0F8A06A022200216C30FEF7F2
:1055C0009FF8FFF7B3FE04D5DFF8A40CFEF735F81B
:1055D00002E000BF38A00078FFF7D7FD6C30FEF77F
:1055E00094F8FFF7B4FE6C30FEF78FF8FFF79BFEE0
:1055F00000EB800000F064F806DBFFF794FE00EBA0
:10560000800000F065F800E0012200F066F8FEF787
:105610004FF8FFF788FE00EB800000F051F806DB42
:10562000FFF781FE00EB800000F052F800E001225D
:1056300000F053F8FEF741F8FFF775FE00EB80002D
:1056400000F03EF806DBFFF76EFE00EB800000F096
:105650003FF800E0012200F040F8FEF71FF8FFF7E6
:1056600062FE00EB800000F02BF806DBFFF75BFE2C
:1056700000EB800000F02CF800E0012200F02DF893
:10568000FEF711F8FFF74FFE00EB400000F018F8AE
:1056900006DBFFF748FE00EB400000F019F800E0E1
:1056A0000122A06ABDE8104012B200216C30FEF762
:1056B00009B800005B4B460000000A2510FB05F00E
:1056C0005030A02190FBF1F00228704710FB05F04C
:1056D0005030A02190FBF1F27047A06A12B2002175
:1056E0006C30704710B5FFF767FD01F1840001F0E1
:1056F000CAFAFFF730FE8430FDF7F8FFFFF716FE19
:105700004CBFDFF84C0DDFF84C0DFDF796FFFFF7AF
:105710003CFD8430FDF7E5FFFFF780F88430FDF7AE
:10572000A9FFFFF700FEC0EBC000FFF7C9FF06DBD3
:10573000FFF7F9FDC0EBC000FFF7CAFF00E0012250
:1057400000F042F8FDF7A0FFFFF7EDFDC0EBC00051
:10575000FFF7B6FF06DBFFF7E6FDC0EBC000FFF783
:10576000B7FF00E0012200F02FF8FDF7A6FFFFF7DA
:10577000DAFDC0EBC000FFF7A3FF06DBFFF7D3FDA8
:10578000C0EBC000FFF7A4FF00E0012200F01CF80E
:10579000FDF789FFA06A883001F075FAFFF7DBFD9D
:1057A0008830FDF7A3FF00F00BF80246A06ABDE8C1
:1057B000104000218830FDF794BF0000EF808C007E
:1057C00040F68800FDF740BFA06A12B20021843085
:1057D000704710B5FFF7F0FC01F1B80001F053FA83
:1057E00094F8201088074CBF2A48DFF86C0CFDF7AE
:1057F00024FFFFF7CAFCB830FDF787FFFFF793FDE2
:105800004000FFF75DFF05DBFFF78DFD4000FFF770
:105810005FFF00E00122FFF799FAB830FDF76BFF58
:10582000FFF781FDFFF74CFF04DBFFF77CFDFFF77F
:105830004FFF00E00122FFF789FAB830FDF738FF8B
:10584000A06A04220021B830FDF75AFFA06ABC30DC
:1058500001F019FAFFF76AFD04D540F6AA20FDF71A
:10586000F3FE02E00748FDF7E8FE0246A06ABDE845
:1058700010400021BC30FDF785BF0000D9D7D4000F
:105880004D494500BDADA100E3DDD600978A8000FB
:10589000888888004F4031002DE9F041DFF8A446A8
:1058A000DFF8B86BA16A01F1780001F0ECF900F0C3
:1058B00038FA7830FDF7E3FE00F037FAFDF7F8FE2E
:1058C00000F033FAFDF7F9FE00F02FFAFDF7E6FEDF
:1058D00000F02BFAFDF7E7FE00F027FAFDF7F2FEE5
:1058E000A06A7C3001F0CFF9FFF735FD7C30FDF781
:1058F000FDFE94F820006FF07F4581074CBF2846DD
:105900003046FDF79AFE00F007FAFDF7EAFEFFF7D2
:105910000DFD4CBFDFF8480BDFF8480BFDF78DFE9F
:1059200000F062FA7C30FDF7DCFEFFF7FFFC4CBFB5
:1059300028463046FDF781FE00F0E2F9FDF7D1FE82
:10594000FFF72CFC7C30FDF7CCFE207BDFF82069D4
:10595000FEF72DFC0246A06A11217C30FDF7C1FE46
:10596000FFF7E4FC4CBF30462846FDF766FE00F02A
:10597000D3F9FDF707FF00F0CCF900F0C6F97C3051
:10598000FDF700FF94F8200040F6991740F6AA288A
:1059900081074CBF40463846FDF756FE00F0B0F98F
:1059A000FDF7F0FEFFF7C2FC4CBF30462846FDF77E
:1059B00044FE00F0B1F9FDF7F7FE00F0AAF900F09F
:1059C000A4F97C30FDF7F0FEFFF7B0FC4CBF404679
:1059D0003846FDF739FE00F093F9FDF7E5FE00F0DB
:1059E000A0F97C30FDF78CFEFFF7A0FC4CBFDFF880
:1059F000780ADFF8780AFDF720FE00F08DF9FDF750
:105A000084FEFFF7A0FC7C30FDF77FFE00F089F9F3
:105A10007C30FDF770FEA06A627B02217C30FDF7CE
:105A200088FEFFF798FD48BF00220CD4FFF77BFCEF
:105A30004000FFF745FE05DBFFF775FC4000FFF770
:105A400047FE00E00122A06A12B202217C30FDF77D
:105A500066FEFFF768FC400000F040F904DBFFF74A
:105A600062FC00F043F900E02A46A06A12B202216B
:105A70007C30FDF759FE00F040F91E2602280BDAB3
:105A8000FFF751FCC0EB0010FFF71AFE12DBFFF727
:105A90004AFCC0EB00100AE0FFF745FC10FB06F0E3
:105AA000FFF70EFE06DBFFF73EFC10FB06F0FFF7EC
:105AB0000FFE00E0012200F03DF9FDF7F9FD00F0D6
:105AC0001CF902280BDAFFF72EFCC0EB0010FFF7E1
:105AD000F7FD12DBFFF727FCC0EB00100AE0FFF731
